:100000000C9462000C94E9050C94C2050C948A00CF
:100010000C948A000C948A000C948A000C948A0038
:100020000C948A000C948A000C948A000C948A0028
:100030000C948A000C948A000C948A000C948A0018
:100040000C9478050C948A000C9412040C94EC0324
:100050000C948A000C948A000C948A000C948A00F8
:100060000C946D060C948A00000000002400270008
:100070002A0000000000250028002B0000000000DE
:1000800023002600290004040404040404040202DA
:100090000202020203030303030301020408102007
:1000A0004080010204081020010204081020000012
:1000B0000008000201000003040700000000000027
:1000C00000006D1111241FBECFEFD8E0DEBFCDBF01
:1000D00023E0A8EDB1E001C01D92A73FB207E1F710
:1000E00011E0A0E0B1E0E6E8F8E202C005900D9270
:1000F000A83DB107D9F710E0C2E6D0E004C02197CF
:10010000FE010E943214C136D107C9F70E94170CB4
:100110000C9441140C940000CF92DF92EF92FF9266
:100120000F931F93CF93DF937C016A018B01C0E093
:10013000D0E0CC15DD0579F0D8016D918D01D701A6
:10014000ED91FC910190F081E02DC7010995892B7B
:1001500011F02196EECFCE01DF91CF911F910F913B
:10016000FF90EF90DF90CF900895FC01918D828DEC
:10017000981761F0828DDF01A80FB11D5D968C91FB
:10018000928D9F5F9F73928F90E008958FEF9FEF06
:100190000895FC01918D828D981731F0828DE80FC2
:1001A000F11D858D90E008958FEF9FEF0895FC017C
:1001B000918D228D892F90E0805C9F4F821B910949
:1001C0008F739927089583E193E00E94D70021E07F
:1001D000892B09F420E0822F0895FC01848DDF0132
:1001E000A80FB11DA35ABF4F2C91848D90E00196AA
:1001F0008F739927848FA689B7892C93A089B18999
:100200008C9180648C93938D848D981306C00288A2
:10021000F389E02D80818F7D80830895EF92FF9296
:100220000F931F93CF93DF93EC01F62E81E0888F1D
:100230009B8D8C8D981305C0E889F989808185FD97
:100240002CC00B8D10E00F5F1F4F0F731127E02E96
:100250008C8DE8120CC00FB607FCFACFE889F9893B
:10026000808185FFF5CFCE010E94ED00F1CF8B8D0F
:10027000FE01E80FF11DE35AFF4FF0820B8FEA8970
:10028000FB8980818062808381E090E0DF91CF9163
:100290001F910F91FF90EF900895EE89FF89608381
:1002A000E889F98980818064EECFCF93DF93EC01F8
:1002B000888D882351F0EA89FB89808185FD08C0FB
:1002C000A889B9898C9186FF03C0DF91CF910895E9
:1002D0000FB607FCF2CF808185FFEFCFE889F9895F
:1002E000808185FFE8CFCE010E94ED00E4CF80E061
:1002F00090E0892B29F00E94E30081110C9400000A
:100300000895833081F028F4813099F08230A9F08B
:1003100008958730A9F08830C9F08430B1F4809115
:1003200080008F7D03C0809180008F778093800054
:10033000089584B58F7784BD089584B58F7DFBCFF4
:100340008091B0008F778093B00008958091B000C5
:100350008F7DF9CF3FB7F8948091260290912702C4
:10036000A0912802B091290226B5A89B05C02F3F75
:1003700019F00196A11DB11D3FBFBA2FA92F982FCB
:100380008827BC01CD01620F711D811D911D42E0C6
:10039000660F771F881F991F4A95D1F70895089512
:1003A00085ED8093BC008091BC0084FDFCCF109251
:1003B000D60308954091FC01262F30E0240F311D13
:1003C00021323105DCF42091D6032430C9F4FC013C
:1003D00080E090E0861738F08091FC01680F609310
:1003E000FC0180E008953091FC012191DC01A452D0
:1003F000BE4FA30FB11D2C930196ECCF81E0089561
:1004000082E00895089540912D0250E020912C0241
:1004100030E081E090E04217530714F480E090E070
:10042000919581959109089580912D02482F50E072
:1004300020912C0230E04217530734F48F5F8093F1
:100440002D0280E090E008958FEF9FEF0895809156
:100450002C0290E020912D02821B91090895CF92E9
:10046000DF92EF92FF920F931F93CF93DF937C0164
:10047000CB018A0120911F02222389F0EB016B013D
:10048000C40ED51ECC15DD0569F06991D701ED913B
:10049000FC910190F081E02DC7010995F3CF642F05
:1004A0000E94DA01C801DF91CF911F910F91FF9057
:1004B000EF90DF90CF900895CF93DF931F92CDB749
:1004C000DEB7698320911F02222309F120912A02BD
:1004D00030E0203231055CF021E030E0FC01338374
:1004E000228380E090E00F90DF91CF91089580917A
:1004F0002B02E82FF0E0E952FC4F998190838F5F47
:1005000080932B0280932A0281E090E0ECCF61E09F
:10051000CE0101960E94DA01F7CF609380027093BA
:10052000810280938202909383020895DC01ED9111
:10053000FC910190F081E02D09946115710579F02D
:10054000FB0101900020E9F73197AF01461B570BE3
:10055000DC01ED91FC910280F381E02D099480E0B3
:1005600090E008958F929F92AF92BF92EF92FF9288
:100570000F931F93CF93DF93CDB7DEB7A1970FB63D
:10058000F894DEBF0FBECDBF7C01FA01CB0119A2EA
:10059000422F50E0423051050CF42AE08E010F5DED
:1005A0001F4F822E912CA12CB12CBF01A5019401CB
:1005B0000E941014F901CA01015011096A30E4F4D3
:1005C000605DD8016C93232B242B252B71F7B80188
:1005D000C7010E949D02A1960FB6F894DEBF0FBE20
:1005E000CDBFDF91CF911F910F91FF90EF90BF9002
:1005F000AF909F908F900895695CE3CF5F926F9268
:100600007F928F929F92AF92BF92CF92DF92EF92A2
:10061000FF920F931F93CF93DF93EC016A017B014D
:10062000522E9A01AB01C701B6010E940B14882318
:1006300009F492C060E671E0AAC02FEF3FEF4FE7E8
:100640005FE4C701B6010E94061418161CF46CE59D
:1006500071E09DC02FEF3FEF4FE75FECC701B601A0
:100660000E94D41187FDF3CF20E030E0A901C7013B
:10067000B6010E94D41187FF1DC06DE2CE010E9419
:1006800096028C01F7FAF094F7F8F094B12C60E040
:1006900070E080E09FE3652C712C2B2D30E0261557
:1006A00037055CF420E030E040E251E40E9465133D
:1006B000B394F3CF00E010E0E9CFA70196010E94C8
:1006C000F9126B017C010E94D7134B015C012AE0F7
:1006D000AB01BC01CE010E94B202080F191F6728AE
:1006E00009F467C0C501B4010E94D9119B01AC0196
:1006F000C701B6010E94F8126B017C016EE2CE01C7
:100700000E949602080F191F552009F452C020E0DC
:1007100030E040E251E4C701B6010E943A124B01B9
:100720005C010E94D7136B01E12CF12C2AE0B70188
:10073000A601CE010E94B202080F191FC701B6011F
:100740000E94D9119B01AC01C501B4010E94F812AD
:100750006B017C015A94D8CF46015701E894B7F851
:100760002FEF3FEF4FE75FE7C501B4010E940B1485
:10077000811163CF2FEF3FEF4FE75FE7C501B40172
:100780000E94D41118160CF058CF68E571E0CE0124
:10079000DF91CF911F910F91FF90EF90DF90CF905D
:1007A000BF90AF909F908F907F906F905F900C94D0
:1007B0009D02C801DF91CF911F910F91FF90EF90A3
:1007C000DF90CF90BF90AF909F908F907F906F9071
:1007D0005F9008950C949D021F920F920FB60F9296
:1007E00011242F933F934F935F936F937F938F9336
:1007F0009F93AF93BF93EF93FF9383E193E00E94A6
:10080000ED00FF91EF91BF91AF919F918F917F91FB
:100810006F915F914F913F912F910F900FBE0F906D
:100820001F9018951F920F920FB60F9211242F93BD
:100830008F939F93EF93FF93E0912303F091240311
:100840008081E0912903F0912A0382FD1BC09081F1
:1008500080912C038F5F8F7320912D03821741F0BD
:10086000E0912C03F0E0ED5EFC4F958F80932C031C
:10087000FF91EF919F918F912F910F900FBE0F904D
:100880001F9018958081F4CFCF93DF93282F30E00D
:10089000F901E255FF4F8491F901E656FF4FD491DB
:1008A000F901EA57FF4FC491CC23A1F081110E94B6
:1008B0008101EC2FF0E0EE0FFF1FE458FF4FA591F0
:1008C000B491EC91ED2381E090E009F480E0DF91B8
:1008D000CF91089580E090E0FACF1F93CF93DF93FC
:1008E000162F282F30E0F901E255FF4F8491F901CE
:1008F000E656FF4FD491F901EA57FF4FC491CC233C
:10090000A1F081110E948101EC2FF0E0EE0FFF1F9A
:10091000EE58FF4FA591B4918FB7F894EC91111157
:1009200008C0D095DE23DC938FBFDF91CF911F915C
:100930000895DE2BF8CFCF93DF9390E0FC01E656CD
:10094000FF4F24918A579F4FFC0184918823C9F05F
:1009500090E0880F991FFC01E859FF4FA591B491D1
:10096000FC01EE58FF4FC591D49161110DC09FB7A6
:10097000F8948C91209582238C9388812823288356
:100980009FBFDF91CF910895623051F49FB7F894E3
:100990003C91822F809583238C93E8812E2BEFCF7F
:1009A0008FB7F894EC912E2B2C938FBFEACF80E079
:1009B00090E0A0E2B1E48093800290938102A09342
:1009C0008202B093830210923A0260E080E10E94BA
:1009D0009B0410927F0210927E020895789484B551
:1009E000826084BD84B5816084BD85B5826085BD2B
:1009F00085B5816085BDEEE6F0E080818160808311
:100A0000E1E8F0E0108280818260808380818160F3
:100A10008083E0E8F0E0808181608083E1EBF0E0BA
:100A2000808184608083E0EBF0E08081816080835E
:100A3000EAE7F0E080818460808380818260808347
:100A40008081816080838081806880831092C10072
:100A500008958230910538F0880F991F880F991FEB
:100A600005970197F1F708958F929F92AF92BF92E9
:100A7000CF92DF92EF92FF926B017C010E94AA015C
:100A80004B015C01C114D104E104F104C9F4FF90ED
:100A9000EF90DF90CF90BF90AF909F908F90089590
:100AA00021E0C21AD108E108F10888EE880E83E03F
:100AB000981EA11CB11CC114D104E104F10411F36E
:100AC0000E94AA01681979098A099B09683E734046
:100AD0008105910528F7D6CF2FB7F89460912202AF
:100AE0007091230280912402909125022FBF0895D6
:100AF0001F920F920FB60F9211242F933F938F9353
:100B00009F93AF93BF938091220290912302A09173
:100B10002402B09125023091210223E0230F2D37CA
:100B200058F50196A11DB11D209321028093220248
:100B300090932302A0932402B09325028091260271
:100B400090912702A0912802B09129020196A11D3F
:100B5000B11D8093260290932702A0932802B093A0
:100B60002902BF91AF919F918F913F912F910F904B
:100B70000FBE0F901F90189526E8230F0296A11D17
:100B8000B11DD2CF1F920F920FB60F9211242F9347
:100B90003F934F935F936F937F938F939F93AF9305
:100BA000BF93EF93FF93E0911C01F0911D01099514
:100BB000FF91EF91BF91AF919F918F917F916F9135
:100BC0005F914F913F912F910F900FBE0F901F900B
:100BD00018951F920F920FB60F9211242F933F93E7
:100BE0004F935F936F937F938F939F93AF93BF9335
:100BF000EF93FF93E0911A01F0911B010995FF918A
:100C0000EF91BF91AF919F918F917F916F915F9184
:100C10004F913F912F910F900FBE0F901F901895FD
:100C2000FC01248131E030931F02209320021092B6
:100C30002B0210922A028385682BE0912E02F091FC
:100C40002F020190F081E02D8EE292E009956091F3
:100C50002A02809120020E949E0910922B0210927B
:100C60002A0210921F0208950F931F93CF938C01B5
:100C7000C62F0E9410066C2F6460C8010E941006E7
:100C800081E090E00E9429056C2F6B7FC8010E94D3
:100C9000100682E390E0CF911F910F910C942905EB
:100CA0000F931F93CF93DF938C01D62FC42F607FB8
:100CB000642B0E94340680E1D89FB00111246C2B74
:100CC000C801DF91CF911F910F910C94340641E040
:100CD0000E94500681E090E008951F920F920FB697
:100CE0000F9211242F933F934F935F936F937F93B2
:100CF0008F939F93AF93BF93EF93FF938091B9002E
:100D0000887F803609F44AC0F0F5883209F4A5C01E
:100D100018F5803109F499C0B8F4882309F4F5C0B6
:100D2000883009F492C0FF91EF91BF91AF919F91EC
:100D30008F917F916F915F914F913F912F910F9084
:100D40000FBE0F901F901895883109F486C080322D
:100D500051F78093D40314C0803409F49BC040F44D
:100D60008033B9F38833F9F68093D40385ECAEC0B1
:100D7000803509F483C0883509F494C0883499F625
:100D80000E94D001D0CF883909F48AC038F588375D
:100D900029F050F4883611F0803729F683E08093EB
:100DA000D60310921E0255C0883809F479C08039E4
:100DB00019F0803809F0B7CF80911E02803208F018
:100DC0006FC0E0911E0281E08E0F80931E02809121
:100DD000BB00F0E0E250FE4F80833BC0803B39F027
:100DE000D0F4803A09F477C0883A09F09CCF84E0C7
:100DF0008093D6031092FD011092FC01E0E0F0E038
:100E000009958091FC0181110FC081E08093FC0164
:100E10001092DC0109C0803C09F4A8CF883C09F499
:100E2000A5CF883B09F07FCFE091FD0181E08E0FD7
:100E30008093FD01F0E0E452FE4F80818093BB007F
:100E40009091FD018091FC0129C08091B1038093B4
:100E5000BB0085EC8093BC0066CF9091D30380915A
:100E6000D203981758F5E091D30381E08E0F809359
:100E7000D303F0E0EE54FC4F8081E9CFE091D3033F
:100E800081E08E0F8093D3038091BB00F0E0EE549D
:100E9000FC4F80839091D3038091D2039817C8F2BE
:100EA00085E8D8CFE091D30381E08E0F8093D30300
:100EB0008091BB00F0E0EE54FC4F80838091D5031D
:100EC00081115ECF81E08093B00384EA8093BC00FF
:100ED0001092D60328CF85EC8093BC001092D603E5
:100EE00080911E02803230F4E0911E02F0E0E25068
:100EF000FE4F108260911E0270E08EEF91E0E0E004
:100F0000F0E0099510921E020ECF1092D40338CF54
:100F10001092D60381E08093D5031092B00361E074
:100F200082E10E946D0461E083E10E946D04E9EBBF
:100F3000F0E080818E7F808380818D7F808388E454
:100F40008093B80085E48093BC0008950E946C05EE
:100F5000AB01BC012AE083E193E00E94B20264E6A7
:100F600071E083E193E00E94EA034091780250919E
:100F7000790260917A0270917B0222E083E193E032
:100F80000E94FE0264E671E083E193E00E94EA03BE
:100F9000409180025091810260918202709183029F
:100FA00022E083E193E00E94FE0264E671E083E1C7
:100FB00093E00E94EA034091900250919102609167
:100FC00092027091930222E083E193E00E94FE027C
:100FD00064E671E083E193E00E94EA0340919402A9
:100FE00050919502609196027091970222E083E100
:100FF00093E00E94FE0266E671E083E193E00C94C8
:101000009D020F931F93CF93DF9311E006E00E94A0
:10101000050A882309F423C189E691E00E942D0A7C
:10102000882339F060E080E10E946D040C94001C7C
:10103000EECF8FE691E00E942D0A882351F10E94A5
:101040007E0ABC01990F880B990B0E94DB116093FB
:10105000800270938102809382029093830265E7FD
:1010600071E083E193E00E94EA0340918002509195
:101070008102609182027091830222E083E193E019
:101080000E94FE0266E671E083E193E00E949D0209
:10109000BECF80E891E00E942D0A8823C1F00E9413
:1010A0007E0A90937D0280937C0266E871E083E182
:1010B00093E00E94EA0340917C0250917D0260E03F
:1010C00070E02AE083E193E00E94B202DBCF8EE879
:1010D00091E00E942D0A882309F469C00E947E0ACB
:1010E000EC018130910509F457C0CCF4892B09F447
:1010F0004CC0D0937F02C0937E020C9FB0010D9F25
:10110000700D112460507F4F83E193E00E94EA0349
:1011100080917E0290917F020E94460A78CF8230B1
:101120009105F1F1039729F761E080E10E949B04AA
:101130008091940290919502A0919602B0919702AD
:101140001092630210926C0280935D0290935E0293
:10115000A0935F02B093600210926202109261024B
:101160000E946C05609368027093690280936A0222
:1011700090936B020E946C05609364027093650209
:1011800080936602909367020FC010923A0260E06B
:1011900080E10E949B04ADCF10923A0261E0F8CF4B
:1011A00061E080E10E949B0410933A02A2CF83E9A0
:1011B00091E00E942D0A882371F040919402509191
:1011C0009502609196027091970222E083E193E08C
:1011D0000E94FE021CCF88E991E00E942D0A88231C
:1011E00019F00E94A60713CF8FE991E00E942D0A03
:1011F0008823C9F089E691E00E94F20984EA91E02F
:101200000E94F20980EB91E00E94F20983E991E0EB
:101210000E94F20988E991E00E94F2098FE991E0C9
:101220000E94F209F4CE0E94050A8823A9F01093C7
:10123000CF026091C9027091CA024EE150E08BE387
:1012400092E00E9491116CEB71E083E193E00E94C7
:10125000EA038BE392E0E4CF10923B02F4CFDF91FC
:10126000CF911F910F910895DC01ED91FD91808147
:10127000ED91FD919081ED91FD916C9163708E23C4
:1012800009F064609F2309F06860E1E5F9E0E60F8A
:10129000F11D659565956D936D917D918D919D91F4
:1012A000099423C01AC012C016C010C01EC009C0C5
:1012B00014C013C006C019C009C00DC007C00DC0BE
:1012C00014C062507040804090400BC0615070402C
:1012D0008040904006C06E5F01C06F5F7F4F8F4FB0
:1012E0009F4F9E938E937E936E9308958091D80125
:1012F0009091D9010C9434098091DA019091DB012D
:101300000C9434098230C8F4E82FF0E0EE0FFF1F90
:10131000E65EFE4F71836083813041F08091690009
:101320008C7F816080936900E89A089580916900BC
:10133000837F846080936900E99A0895613208F0A0
:1013400049C09091D6039111FCCF92E09093D603BF
:1013500091E09093D5039FEF9093D4031092D30321
:101360006093D203A7EDB3E0E2EBF3E090E0691302
:101370002BC01092B1039091B103880F892B8093F9
:10138000B1038091B003813019F51092B0038091C0
:10139000B1038093BB008091BC0083FDF8CF85EC46
:1013A0008093BC008091D6038230E1F38091D40316
:1013B0008F3F91F08091D403803281F08091D403EB
:1013C000803371F084E008952D9121939F5FCFCFFA
:1013D00085EEE6CF81E0089580E0089582E00895EB
:1013E00083E00895CF93DF93BC0183E193E00E94F3
:1013F0009D02EC0166E671E083E193E00E949D02AC
:101400008C0F9D1FDF91CF9108958091C602882394
:1014100011F18130E9F482E08093C60281ED92E01F
:101420002091CF02222351F04BEC52E06DEC72E0A0
:101430000E94A5119093CA028093C9028091C902AB
:101440009091CA02892B39F01092CF0281E0089561
:1014500080E090E0E5CF80E00895CF93DF93EC014A
:101460000E94050A882389F06091C9027091CA021E
:10147000CE010E943814892B31F481E08093CF0291
:10148000DF91CF91089580E0FBCFFACFCF92DF922A
:10149000EF92FF92CF93DF936C01990FEE08FF0854
:1014A000F7FE23C06DE283E193E00E949602EC0117
:1014B00044275527BA014C195D096E097F092AE0B6
:1014C00083E193E00E94B202C80FD91F66E671E083
:1014D00083E193E00E949D028C0F9D1FDF91CF91CD
:1014E000FF90EF90DF90CF9008952AE0B701A6011A
:1014F00083E193E00E94B202EC01E8CF0E94050A6A
:10150000882349F081E08093CF028091C9029091B5
:10151000CA020C94731180E090E00895CF93DF939A
:10152000CDB7DEB728970FB6F894DEBF0FBECDBF9C
:1015300098E0E0E5F1E0DE01119601900D929A95B8
:10154000E1F79091C202462F50E0292F30E0241796
:10155000350714F46FEF690F262F30E0220F331F89
:1015600041E050E04C0F5D1F240F351FF9016081F1
:10157000680F606840E08AEB92E028960FB6F89416
:10158000DEBF0FBECDBFDF91CF910C945006E3E1DB
:10159000F3E01382128288EE93E0A0E0B0E084834F
:1015A0009583A683B78384E491E09183808385EC5F
:1015B00090E09587848784EC90E09787868780EC1D
:1015C00090E0918B808B81EC90E0938B828B82EC0E
:1015D00090E0958B848B86EC90E0978B868B118EB8
:1015E000128E138E148E0895EEE2F2E013821282B0
:1015F00088EE93E0A0E0B0E084839583A683B78370
:1016000084E391E09183808308950F931F93CF9398
:101610001092BD021092BC028CE291E09093BB024A
:101620008093BA0287E28093BE0284E18093C30272
:1016300084E08093C4021092C5028DE08093A902D9
:101640008AE08093AB028CE08093AA021092A10200
:101650001092A2021092A3021092A40280E090E0E5
:10166000A0E8BFE38093A5029093A602A093A702EF
:10167000B093A80280E88093A00280E090ECA9E7F4
:10168000B4EC80939C0290939D02A0939E02B09331
:101690009F028093980290939902A0939A02B0932C
:1016A0009B0262E082E00E949B0462E083E00E9471
:1016B0009B04E8E8F0E0E491F0E0EE0FFF1FE4584F
:1016C000FF4F859194919093850280938402ECE979
:1016D000F0E0E491E0938802E9E8F0E0E491F0E0E2
:1016E000EE0FFF1FE458FF4F85919491909387026E
:1016F00080938602EDE9F0E0E491E0938902109294
:101700008B0210928C0210928D0210928E0280ED4C
:1017100097E00E942905E0918402F0918502908172
:1017200080918802982381E009F480E0E0918602AC
:10173000F0918702908120918902922309F08260C2
:1017400004E812E080938A021093D9010093D80133
:1017500066E779E080E00E948209C1E0C0938F02D1
:101760001093DB010093DA016CE779E081E00E94DD
:10177000820980918F028F5F80938F021092C8023E
:101780001092C70280E28093CD021092CE0280E4D4
:10179000809311038FE3809312031092D002109272
:1017A000C6021092CA021092C9021092CC02109284
:1017B000CB02C093CF0210925D0210925E02109293
:1017C0005F021092600210926202109261028FEF2B
:1017D0008093630210926402109265021092660276
:1017E00010926702109268021092690210926A02C7
:1017F00010926B0210926C028AE0EEE1F1E0ADE62D
:10180000B2E001900D928A95E1F7C09377028DE8DE
:1018100092E090935A028093590287ED94E090935E
:101820005C0280935B02CF911F910F9108950E94FB
:10183000EE04E0912303F091240382E08083E091A1
:101840001F03F09120031082E0912103F091220305
:1018500080E1808310922B03E0912703F09128030D
:1018600086E08083E0912503F091260380818061EA
:101870008083E0912503F091260380818860808336
:10188000E0912503F0912603808180688083E091B8
:101890002503F091260380818F7D808310922D0295
:1018A00010922C0210922B0210922A020E9488079A
:1018B0001092BF028091C402282F30E022303105FF
:1018C0001CF098E09093BF028093C20262E370E044
:1018D00080E090E00E9434056091C5028AEB92E0BE
:1018E0000E94100668EE73E080E090E00E943405EC
:1018F00060E38AEB92E00E94340684E991E10E9461
:10190000290560E38AEB92E00E94340684E991E1C4
:101910000E94290560E38AEB92E00E94340686E982
:1019200090E00E94290560E28AEB92E00E94340672
:101930006091BF02606240E08AEB92E00E94500634
:1019400084E08093C00240E06CE08AEB92E00E9469
:10195000500640E061E08AEB92E00E94500680ED84
:1019600097E00E94290582E08093C10240E066E092
:101970008AEB92E00E94500640E062E08AEB92E03F
:101980000E94500680ED97E00E94290588E0809330
:10199000C50260E08AEB92E00E94100660E0809150
:1019A000AB020E949B0460E08091AB020E946D0438
:1019B00061E08091A9020E949B0460E08091AA02EC
:1019C0000E949B0461E080E10E949B0460E080E152
:1019D0000E946D0461E087E00E949B0461E086E064
:1019E0000E949B0460E089E00E949B0460E088E024
:1019F0000E949B0481E098E09093C8028093C70204
:101A00000E946C056093B0027093B1028093B202A1
:101A10009093B3020E946C056093AC027093AD0288
:101A20008093AE029093AF0280E090E0A0E7B1E433
:101A30008093800290938102A0938202B0938302EC
:101A400006E030E6832E3AEE932EA12CB12C11E065
:101A500022242394312C88E00E94440421E0892B25
:101A600009F420E02093B90289E00E94440421E0B7
:101A7000892B09F420E02093B80261E08091AB0249
:101A80000E949B04C0E2C12CD12C7601CC0CDD1C41
:101A9000EE1CFF1C60E08091A9020E946D04809101
:101AA000AA020E944404892B29F02FEFC21AD20AFD
:101AB000E20AF20A61E08091A9020E946D04C1501D
:101AC00029F760E08091AB020E949B04CC2DC77087
:101AD000C093A0022601370194E07694679457944E
:101AE00047949A95D1F7C301B20177708827992757
:101AF0000E94D91120E030E040E85DE30E943A12F4
:101B000053FC98C2609398027093990280939A0252
:101B100090939B0282E1F694E794D794C7948A95B8
:101B2000D1F7C701B6017F71882799270E94D91183
:101B300020E030E040E85EE30E943A12D5FC81C22A
:101B400060939C0270939D0280939E0290939F02EB
:101B5000C090A102D090A202E090A302F090A40253
:101B600020E030E0A901C701B6010E94D41188230A
:101B7000A1F0A701960160919C0270919D02809155
:101B80009E0290919F020E94F91260939C027093B2
:101B90009D0280939E0290939F02CC2351F065ECAE
:101BA00071E083E193E00E94EA038C2F90E00E94B1
:101BB000460A2091A5023091A6024091A7025091B9
:101BC000A80260919C0270919D0280919E0290916A
:101BD0009F020E943A126093940270939502809340
:101BE0009602909397028091980290919902A09109
:101BF0009A02B0919B028093900290939102A093DD
:101C00009202B093930280918F0290E002970CF0C1
:101C10001FC2F89484E892E00E94340980918B02FC
:101C200090918C02A0918D02B0918E027894409197
:101C3000B4025091B5026091B6027091B702481794
:101C400059076A077B0741F08093B4029093B5026D
:101C5000A093B602B093B7028091B90281110EC071
:101C600080911901882351F087E00E94440461E0CB
:101C7000892B09F060E087E00E946D048091B80232
:101C8000811132C080911801882371F16091B402F2
:101C90007091B5028091B6029091B7020E94DB115B
:101CA00020E030E040E85DE30E943A129B01AC0185
:101CB00060918002709181028091820290918302F2
:101CC0000E94F912609380027093810280938202D5
:101CD00090938302F89410928B0210928C021092CF
:101CE0008D0210928E0278948091B902809319012E
:101CF0008091B8028093180180913A02882309F4F8
:101D00004BC0C0908002D0908102E0908202F0909F
:101D10008302209190023091910240919202509161
:101D20009302C701B6010E94F8122DEC3CEC4CE482
:101D300050E40E943A122B013C0120919402309110
:101D400095024091960250919702C701B6010E94F8
:101D5000F81220E030E040E252E40E943A129B0187
:101D6000AC01C301B2010E94F9126B017C0120E0B9
:101D700030E04AEF54E40E94061418160CF06AC1D1
:101D800080E090E0AAEFB4E4809378029093790227
:101D9000A0937A02B0937B0280917E0290917F02A1
:101DA000019781F460917C0270917D0280E090E067
:101DB0000E94D911609378027093790280937A021D
:101DC00090937B020E946C056B017C018091B002B4
:101DD0009091B102A091B202B091B302A701960115
:101DE000281B390B4A0B5B0BDA01C901813D974077
:101DF000A105B10540F0C092B002D092B102E092CC
:101E0000B202F092B3028091AC029091AD02A09127
:101E1000AE02B091AF02A7019601281B390B4A0B05
:101E20005B0BDA01C901853F9140A105B10508F4BA
:101E3000A5C00E94A60740E061E08AEB92E00E9404
:101E4000500680ED97E00E94290560E082E00E9444
:101E50008E0A409194025091950260919602709181
:101E6000970222E08AEB92E00E94FE0260E08AE0A4
:101E70000E948E0A80917E0290917F02089FB0019D
:101E8000099F700D112460507F4F8AEB92E00E94F1
:101E9000EA0361E080E00E948E0A80917E029091C8
:101EA0007F02892B31F46BE372E08AEB92E00E94AF
:101EB000EA0380917E0290917F02029739F56DECE2
:101EC00071E08AEB92E00E94EA036091B4027091A3
:101ED000B5028091B6029091B7020E94DB1120E01A
:101EE00030E040E85DE30E943A1220918002309198
:101EF000810240918202509183020E94F912AB014B
:101F0000BC0122E08AEB92E00E94FE0280917E02F8
:101F100090917F02039799F46DEC71E08AEB92E067
:101F20000E94EA03409180025091810260918202F6
:101F30007091830222E08AEB92E00E94FE0280917F
:101F40007E0290917F02019789F462ED71E08AEB45
:101F500092E00E94EA0340917C0250917D0260E091
:101F600070E02AE08AEB92E00E94B202C092AC02DA
:101F7000D092AD02E092AE02F092AF028091B00238
:101F80009091B102A091B202B091B302A701960163
:101F9000281B390B4A0B5B0BCA01B9010E94D911EE
:101FA000209178023091790240917A0250917B021F
:101FB0000E94061418160CF068C060E080E10E94D0
:101FC0006D0483E193E00E94D700892B09F47DC062
:101FD00083E193E00E94B5001092C602181619061C
:101FE000ECF48A309105D1F0E091D0028D3091056A
:101FF00009F04DC0F0E0EA53FD4F13861092D00275
:102000001092CC021092CB021093CF021093C60212
:1020100041ED52E05093CA024093C9028091C6023A
:10202000813079F6E091C702F091C802309749F209
:102030000995C7CF20E030E040E053E40E94F81259
:1020400061CD20E030E040E055E40E94F81278CD08
:10205000F894E4CD20E030E0A901C701B6010E9468
:10206000D41187FD09C0C0927802D0927902E09223
:102070007A02F0927B0290CE10927802109279024E
:1020800010927A0210927B0287CE61E097CFAE2F3A
:10209000B0E0AA53BD4F1B968C93EF5FE093D00244
:1020A000F0E02091120330E0E217F3070CF4B6CF12
:1020B0001092D0021092CA021092C9021092CC0261
:1020C0001092CB021093CF02A9CFC0909402D0906F
:1020D0009502E0909602F090970280916C02811137
:1020E00068C08091610290916202019709F061C01D
:1020F0000E946C05C0916302409068025090690292
:1021000060906A0270906B026419750986099709DC
:10211000A50194010E9410146C2F70E08AE0C89F02
:10212000F0011124E75AFD4F848D958DA0E0B0E0B9
:1021300082179307A407B507E0F59B012F5F3F4F78
:102140008091770290E02817390724F5CF5FC0937C
:102150006302C0925D02D0925E02E0925F02F09252
:10216000600210926202109261020E946C056093FC
:1021700068027093690280936A0290936B020E94D6
:102180006C0560936402709365028093660290937D
:10219000670207C010936C02E0915B02F0915C0251
:1021A000099547E751E0452B09F455CC0E9477018A
:1021B00052CC8091610290916202892B91F70E942A
:1021C0006C054090640250906502609066027090C9
:1021D00067026419750986099709693E734081058C
:1021E0009105F8F2C701B6010E94D71380E090E094
:1021F0000E94D911E0916302DAE0DE9FF001112420
:10220000E75AFD4F208D318D428D538D0E9406146B
:1022100087FD0FC030926202209261020E946C051D
:10222000609368027093690280936A0290936B02D4
:10223000B8CF40905D0250905E0260905F02709057
:1022400060020E946C05E0906302F12C209168020C
:102250003091690240916A0250916B02621B730BCC
:10226000840B950BA50194010E941014CA01B901B9
:102270000E94D911DE9D9001DF9D300D1124E901EE
:10228000C75ADD4F2C893D894E895F890E943A12D9
:10229000A30192010E94F912562E672E782EC92EA4
:1022A000D88CE98CFA8CCB8D262F372F482F592FBD
:1022B0006D2D7E2D8F2D9C2F0E94D41187FD03C084
:1022C000D52C7301CC2DE0915902F0915A026D2D5D
:1022D0007E2D8F2D9C2F099552CF0E94C70A0E94F8
:1022E000F40A0C94050BFC0188279927E8942191A6
:1022F0002032E9F3293010F02E30C8F32B3241F0B0
:102300002D3239F4689404C00E94CC11820F911DC3
:10231000219120532A30C0F31EF4909581959F4F50
:102320000895DC01FB014150504058F049F0019004
:102330000D920020C1F7E61BF70B3197CF010895EE
:102340001C9201900020E9F7F6CFFA01A191B0812B
:10235000009719F41097E1F0CD01DC01CD010D904B
:10236000002011F4C00113C0FB012191222319F0B8
:102370002015D9F7F3CFFB012191201519F41E92F6
:10238000119606C02223C1F70D900020A1F7D001BD
:10239000FA01A193B08308957AE0979F902D879FCB
:1023A000802D910D112408950E94161208F481E0E9
:1023B0000895E89409C097FB3EF490958095709538
:1023C00061957F4F8F4F9F4F9923A9F0F92F96E981
:1023D000BB279395F695879577956795B795F111F6
:1023E000F8CFFAF4BB0F11F460FF1BC06F5F7F4F93
:1023F0008F4F9F4F16C0882311F096E911C07723A5
:1024000021F09EE8872F762F05C0662371F096E8AD
:10241000862F70E060E02AF09A95660F771F881F7C
:10242000DAF7880F9695879597F90895990F000820
:10243000550FAA0BE0E8FEEF16161706E807F90796
:10244000C0F012161306E407F50798F0621B730B31
:10245000840B950B39F40A2661F0232B242B252BB2
:1024600021F408950A2609F4A140A6958FEF811D55
:10247000811D08950E944D120C94BE120E94B0124C
:1024800038F00E94B71220F0952311F00C94A71297
:102490000C94AD1211240C94F2120E94CF1270F31E
:1024A000959FC1F3950F50E0551F629FF001729FF9
:1024B000BB27F00DB11D639FAA27F00DB11DAA1F08
:1024C000649F6627B00DA11D661F829F2227B00D55
:1024D000A11D621F739FB00DA11D621F839FA00DE0
:1024E000611D221F749F3327A00D611D231F849F30
:1024F000600D211D822F762F6A2F11249F57504087
:102500009AF0F1F088234AF0EE0FFF1FBB1F661F01
:10251000771F881F91505040A9F79E3F510580F0CA
:102520000C94A7120C94F2125F3FE4F3983ED4F39C
:10253000869577956795B795F795E7959F5FC1F76E
:10254000FE2B880F911D9695879597F9089597F919
:102550009F6780E870E060E008959FEF80EC089549
:1025600000240A9416161706180609060895002472
:102570000A9412161306140605060895092E0394EC
:10258000000C11F4882352F0BB0F40F4BF2B11F460
:1025900060FF04C06F5F7F4F8F4F9F4F089557FDBF
:1025A0009058440F551F59F05F3F71F04795880FC1
:1025B00097FB991F61F09F3F79F087950895121658
:1025C00013061406551FF2CF4695F1DF08C0161604
:1025D00017061806991FF1CF8695710561050894B5
:1025E0000895E894BB2766277727CB0197F90895CC
:1025F0005058BB27AA270E9410130C94BE120E94A9
:10260000B01238F00E94B71220F039F49F3F19F44D
:1026100026F40C94AD120EF4E095E7FB0C94A7128F
:10262000E92F0E94CF1258F3BA1762077307840785
:10263000950720F079F4A6F50C94F1120EF4E095CC
:102640000B2EBA2FA02D0B01B90190010C01CA016C
:10265000A0011124FF27591B99F0593F50F4503E17
:1026600068F11A16F040A22F232F342F4427585F09
:10267000F3CF469537952795A795F0405395C9F721
:102680007EF41F16BA0B620B730B840BBAF09150D9
:10269000A1F0FF0FBB1F661F771F881FC2F70EC078
:1026A000BA0F621F731F841F48F48795779567954B
:1026B000B795F7959E3F08F0B0CF9395880F08F037
:1026C0009927EE0F9795879508950E9479130C949A
:1026D000BE120E94B71258F00E94B01240F029F4C6
:1026E0005F3F29F00C94A71251110C94F2120C9434
:1026F000AD120E94CF1268F39923B1F3552391F3E1
:10270000951B550BBB27AA2762177307840738F060
:102710009F5F5F4F220F331F441FAA1FA9F335D0BD
:102720000E2E3AF0E0E832D091505040E695001C71
:10273000CAF72BD0FE2F29D0660F771F881FBB1F2B
:10274000261737074807AB07B0E809F0BB0B802D09
:10275000BF01FF2793585F4F3AF09E3F510578F035
:102760000C94A7120C94F2125F3FE4F3983ED4F35A
:10277000869577956795B795F7959F5FC9F7880F09
:10278000911D9695879597F90895E1E0660F771F5B
:10279000881FBB1F621773078407BA0720F0621BEC
:1027A000730B840BBA0BEE1F88F7E09508950E9417
:1027B000D71288F09F5798F0B92F9927B751B0F0EA
:1027C000E1F0660F771F881F991F1AF0BA95C9F7B5
:1027D00014C0B13091F00E94F112B1E008950C9450
:1027E000F112672F782F8827B85F39F0B93FCCF303
:1027F000869577956795B395D9F73EF49095809532
:10280000709561957F4F8F4F9F4F08950E941612CC
:1028100008F48FEF08950E941612880B990B089503
:10282000A1E21A2EAA1BBB1BFD010DC0AA1FBB1FD4
:10283000EE1FFF1FA217B307E407F50720F0A21B46
:10284000B30BE40BF50B661F771F881F991F1A94B3
:1028500069F760957095809590959B01AC01BD01DD
:10286000CF010895EE0FFF1F0590F491E02D09941C
:10287000FB01DC018D91019080190110D9F3990BB6
:062880000895F894FFCF5B
:1028860049444C452000504F57455200504F494E41
:10289600540050524F4752000101CF01CF01CDCC19
:1028A6004C3F0000F0421E000000000067068C004E
:1028B600000000005C022F0227021402030202023B
:1028C600000000000E018C00D700B500C9005501BC
:1028D6000000400014005400696E66006F766600C2
:1028E6006E616E002C000D0A00524553455400706F
:1028F6006F696E7400536574706F696E74203A0068
:10290600706F77657200506F776572203A006D6F51
:1029160064650074656D7000737461747573006826
:10292600656C7000706F776572203C7077723E0040
:102936006D6F6465203C6D6F64653E0062756C6CFE
:102946007368697400737461743A09090053657495
:08295600200050777220000000
:107800000C94343C0C94513C0C94513C0C94513CE1
:107810000C94513C0C94513C0C94513C0C94513CB4
:107820000C94513C0C94513C0C94513C0C94513CA4
:107830000C94513C0C94513C0C94513C0C94513C94
:107840000C94513C0C94513C0C94513C0C94513C84
:107850000C94513C0C94513C0C94513C0C94513C74
:107860000C94513C0C94513C11241FBECFEFD8E036
:10787000DEBFCDBF11E0A0E0B1E0ECE9FFE702C060
:1078800005900D92A230B107D9F712E0A2E0B1E065
:1078900001C01D92AD30B107E1F70E942D3D0C945F
:1078A000CC3F0C94003C982F959595959595959582
:1078B000905D8F708A307CF0282F295A8091C0000B
:1078C00085FFFCCF9093C6008091C00085FFFCCF60
:1078D0002093C6000895282F205DF0CF982F809127
:1078E000C00085FFFCCF9093C6000895EF92FF92F1
:1078F0000F931F93EE24FF2487018091C00087FD22
:1079000017C00894E11CF11C011D111D81E4E8164B
:1079100082E4F8068FE0080780E0180770F3E09132
:107920000401F091050109958091C00087FFE9CF1E
:107930008091C6001F910F91FF90EF9008950E94D3
:10794000763C982F8091C00085FFFCCF9093C600B5
:1079500091362CF490330CF09053892F089597555D
:10796000892F08951F930E949F3C182F0E949F3CCF
:107970001295107F810F1F9108951F93182F882350
:1079800021F00E94763C1150E1F71F9108951F935A
:10799000182F0E94763C803249F0809103018F5F5E
:1079A000809303018530C1F01F9108958091C0003C
:1079B00085FFFCCF84E18093C6008091C00085FFE5
:1079C000FCCF1093C6008091C00085FFFCCF80E102
:1079D0008093C6001F910895E0910401F091050184
:1079E00009951F9108950E94763C803241F0809164
:1079F00003018F5F80930301853081F008958091AA
:107A0000C00085FFFCCF84E18093C6008091C00058
:107A100085FFFCCF80E18093C6000895E0910401CA
:107A2000F09105010995089540E951E08823A1F0FE
:107A30002D9A28EE33E0FA013197F1F721503040CA
:107A4000D1F72D9828EE33E0FA013197F1F7215064
:107A50003040D1F7815061F708953F924F925F9285
:107A60006F927F928F929F92AF92BF92CF92DF924E
:107A7000EF92FF920F931F93CF93DF93000080E16B
:107A80008093C4001092C50088E18093C10086E015
:107A90008093C2005098589A259A81E00E94143D24
:107AA00024E1F22E9EE1E92E85E9D82E0FE0C02ECA
:107AB00010E1B12EAA24A394B1E49B2EA6E58A2E50
:107AC000F2E57F2EE0E26E2E79E4572E63E5462E36
:107AD00050E5352E0E94763C8033B1F18133B9F107
:107AE000803409F46FC0813409F476C0823409F41B
:107AF00085C0853409F488C0803531F1823521F1A3
:107B0000813511F1853509F485C0863509F48DC0BC
:107B1000843609F496C0843709F403C1853709F423
:107B200072C1863709F466C0809103018F5F80932C
:107B30000301853079F6E0910401F0910501099582
:107B40000E94763C803351F60E94F33CC3CF0E94E2
:107B5000763C803249F78091C00085FFFCCFF092DF
:107B6000C6008091C00085FFFCCF9092C600809136
:107B7000C00085FFFCCF8092C6008091C00085FFC9
:107B8000FCCF7092C6008091C00085FFFCCF609250
:107B9000C6008091C00085FFFCCF5092C600809146
:107BA000C00085FFFCCF4092C6008091C00085FFD9
:107BB000FCCF3092C6008091C00085FFFCCFB09210
:107BC000C60088CF0E94763C863808F4BDCF0E945C
:107BD000763C0E94F33C7ECF0E94763C803809F4CC
:107BE0009CC0813809F40BC1823809F43CC1883942
:107BF00009F48FC080E00E94C73C6CCF84E10E94F2
:107C0000BD3C0E94F33C66CF85E00E94BD3C0E94D3
:107C1000F33C60CF0E94763C809306010E94763C44
:107C2000809307010E94F33C55CF0E94763C80333D
:107C300009F41DC183E00E94BD3C80E00E94C73C66
:107C400049CF0E94763C809309020E94763C809343
:107C5000080280910C028E7F80930C020E94763C79
:107C6000853409F415C18091080290910902892B8D
:107C700089F000E010E00E94763CF801E85FFE4FDA
:107C800080830F5F1F4F80910802909109020817AF
:107C9000190788F30E94763C803209F045CF809125
:107CA0000C0280FF01C16091060170910701660F0F
:107CB000771F7093070160930601A0910802B091AD
:107CC00009021097C9F0E8E0F1E09B01AD014E0F09
:107CD0005F1FF999FECF32BD21BD819180BDFA9A17
:107CE000F99A2F5F3F4FE417F50799F76A0F7B1F4B
:107CF00070930701609306018091C00085FFFCCF5F
:107D0000F092C6008091C00085FFFCCFB092C60003
:107D1000E1CE83E00E94C73CDDCE82E00E94C73CFA
:107D2000D9CE0E94763C809309020E94763C8093D3
:107D300008028091060190910701880F991F909386
:107D40000701809306010E94763C853409F4A6C0A1
:107D500080910C028E7F80930C020E94763C8032D0
:107D600009F0B8CE8091C00085FFFCCFF092C6002C
:107D7000609108027091090261157105B9F140E046
:107D800050E080910C02A82FA170B82FB27011C0E2
:107D9000BB2309F45CC0E0910601F0910701319624
:107DA000F0930701E09306014F5F5F4F46175707B7
:107DB000E8F4AA2369F3F999FECF209106013091E6
:107DC000070132BD21BDF89A90B58091C00085FFB2
:107DD000FCCF9093C6002F5F3F4F30930701209355
:107DE00006014F5F5F4F4617570718F38091C00099
:107DF00085FDE5CE8091C00085FFF8CFE0CE81E023
:107E00000E94C73C67CE0E94763C803209F08CCE3F
:107E10008091C00085FFFCCFF092C6008091C00029
:107E200085FFFCCFE092C6008091C00085FFFCCFAB
:107E3000D092C6008091C00085FFFCCFC092C600E2
:107E40008091C00085FFFCCFB092C60043CEE09188
:107E50000601F091070194918091C00085FFFCCF4D
:107E60009093C6009CCF80E10E94C73C33CE0E9415
:107E7000763C0E94763C182F0E94763C112309F430
:107E800083C0113009F484C08FE00E94C73C22CE29
:107E900080910C02816080930C02E5CE80910C02EF
:107EA000816080930C0259CF809107018823880F4D
:107EB000880B8A2180930B02809106019091070123
:107EC000880F991F90930701809306018091080203
:107ED00080FF09C080910802909109020196909359
:107EE000090280930802F894F999FECF1127E091D6
:107EF0000601F0910701C8E0D1E08091080290915D
:107F00000902103091F40091570001700130D9F34B
:107F100003E000935700E89500915700017001308D
:107F2000D9F301E100935700E89509901990009169
:107F3000570001700130D9F301E000935700E89534
:107F40001395103498F011270091570001700130FB
:107F5000D9F305E000935700E895009157000170B0
:107F60000130D9F301E100935700E895329602976A
:107F700009F0C7CF103011F00296E5CF112480919F
:107F8000C00085FFB9CEBCCE8EE10E94C73CA2CD19
:0C7F900085E90E94C73C9ECDF894FFCF0D
:027F9C00800063
:040000030000780081
:00000001FF
