:100000000C9462000C941C050C94F5040C948A006A
:100010000C948A000C948A000C948A000C948A0038
:100020000C948A000C948A000C948A000C948A0028
:100030000C948A000C948A000C948A000C948A0018
:100040000C94AB040C948A000C945C030C9436035F
:100050000C948A000C948A000C948A000C948A00F8
:100060000C94A0050C948A000000000024002700D6
:100070002A0000000000250028002B0000000000DE
:1000800023002600290004040404040404040202DA
:100090000202020203030303030301020408102007
:1000A0004080010204081020010204081020000012
:1000B0000008000201000003040700000000000027
:1000C0000000441011241FBECFEFD8E0DEBFCDBF2B
:1000D00023E0A8E5B1E001C01D92A638B207E1F720
:1000E00011E0A0E0B1E0E8EEF5E202C005900D926B
:1000F000A835B107D9F710E0C2E6D0E004C02197D7
:10010000FE010E94E312C136D107C9F70E94940A8A
:100110000C94F2120C940000CF92DF92EF92FF92B7
:100120000F931F93CF93DF937C016A018B01C0E093
:10013000D0E0CC15DD0579F0D8016D918D01D701A6
:10014000ED91FC910190F081E02DC7010995892B7B
:1001500011F02196EECFCE01DF91CF911F910F913B
:10016000FF90EF90DF90CF900895FC01918D828DEC
:10017000981761F0828DDF01A80FB11D5D968C91FB
:10018000928D9F5F9F73928F90E008958FEF9FEF06
:100190000895FC01918D828D981731F0828DE80FC2
:1001A000F11D858D90E008958FEF9FEF0895FC017C
:1001B000918D228D892F90E0805C9F4F821B910949
:1001C0008F739927089589E292E00E94D70021E079
:1001D000892B09F420E0822F0895FC01848DDF0132
:1001E000A80FB11DA35ABF4F2C91848D90E00196AA
:1001F0008F739927848FA689B7892C93A089B18999
:100200008C9180648C93938D848D981306C00288A2
:10021000F389E02D80818F7D80830895EF92FF9296
:100220000F931F93CF93DF93EC01F62E81E0888F1D
:100230009B8D8C8D981305C0E889F989808185FD97
:100240002CC00B8D10E00F5F1F4F0F731127E02E96
:100250008C8DE8120CC00FB607FCFACFE889F9893B
:10026000808185FFF5CFCE010E94ED00F1CF8B8D0F
:10027000FE01E80FF11DE35AFF4FF0820B8FEA8970
:10028000FB8980818062808381E090E0DF91CF9163
:100290001F910F91FF90EF900895EE89FF89608381
:1002A000E889F98980818064EECFCF93DF93EC01F8
:1002B000888D882351F0EA89FB89808185FD08C0FB
:1002C000A889B9898C9186FF03C0DF91CF910895E9
:1002D0000FB607FCF2CF808185FFEFCFE889F9895F
:1002E000808185FFE8CFCE010E94ED00E4CF80E061
:1002F00090E0892B29F00E94E30081110C9400000A
:100300000895833081F028F4813099F08230A9F08B
:1003100008958730A9F08830C9F08430B1F4809115
:1003200080008F7D03C0809180008F778093800054
:10033000089584B58F7784BD089584B58F7DFBCFF4
:100340008091B0008F778093B00008958091B000C5
:100350008F7DF9CF3FB7F8948091C4019091C5018A
:10036000A091C601B091C70126B5A89B05C02F3F3B
:1003700019F00196A11DB11D3FBFBA2FA92F982FCB
:100380008827BC01CD01620F711D811D911D42E0C6
:10039000660F771F881F991F4A95D1F70895089512
:1003A00085ED8093BC008091BC0084FDFCCF109251
:1003B0001803089540919A01262F30E0240F311D33
:1003C00021323105DCF4209118032430C9F4FC01FA
:1003D00080E090E0861738F080919A01680F609372
:1003E0009A0180E0089530919A012191DC01A6588C
:1003F000BE4FA30FB11D2C930196ECCF81E0089561
:1004000082E0089508954091CB0150E02091CA0107
:1004100030E081E090E04217530714F480E090E070
:1004200091958195910908958091CB01482F50E0D5
:100430002091CA0130E04217530734F48F5F809354
:10044000CB0180E090E008958FEF9FEF08958091B9
:10045000CA0190E02091CB01821B91090895CF92AF
:10046000DF92EF92FF920F931F93CF93DF937C0164
:10047000CB018A012091BD01222389F0EB016B01A0
:10048000C40ED51ECC15DD0569F06991D701ED913B
:10049000FC910190F081E02DC7010995F3CF642F05
:1004A0000E94DA01C801DF91CF911F910F91FF9057
:1004B000EF90DF90CF900895CF93DF931F92CDB749
:1004C000DEB769832091BD01222309F12091C80183
:1004D00030E0203231055CF021E030E0FC01338374
:1004E000228380E090E00F90DF91CF91089580917A
:1004F000C901E82FF0E0E75EFC4F998190838F5FA0
:100500008093C9018093C80181E090E0ECCF61E065
:10051000CE0101960E94DA01F7CFDC01ED91FC914A
:100520000190F081E02D09946115710579F0FB01CE
:1005300001900020E9F73197AF01461B570BDC0112
:10054000ED91FC910280F381E02D099480E090E030
:1005500008958F929F92AF92BF92EF92FF920F9366
:100560001F93CF93DF93CDB7DEB7A1970FB6F89463
:10057000DEBF0FBECDBF7C01FA01CB0119A2422F15
:1005800050E0423051050CF42AE08E010F5D1F4F00
:10059000822E912CA12CB12CBF01A50194010E94A7
:1005A000C112F901CA01015011096A30E4F4605D19
:1005B000D8016C93232B242B252B71F7B801C7018D
:1005C0000E949402A1960FB6F894DEBF0FBECDBF75
:1005D000DF91CF911F910F91FF90EF90BF90AF905F
:1005E0009F908F900895695CE3CFCF93DF93D1E024
:1005F0000E9427078823B9F10E942707882381F0EA
:1006000060913C0370913D038AE391E00E94E912FE
:10061000892B41F4D09342030C94001CC1E0E8CF35
:10062000C111FACF0E9427078823D1F0D09342034B
:1006300060913C0370913D034EE150E088E591E00C
:100640000E944A1068E571E089E292E00E949402FB
:1006500060E471E089E292E00E949402C0E0C8CFB9
:1006600010925801EFCFDF91CF9108951F920F9212
:100670000FB60F9211242F933F934F935F936F9375
:100680007F938F939F93AF93BF93EF93FF9389E2F1
:1006900092E00E94ED00FF91EF91BF91AF919F9189
:1006A0008F917F916F915F914F913F912F910F901B
:1006B0000FBE0F901F9018951F920F920FB60F92BA
:1006C00011242F938F939F93EF93FF93E09139021F
:1006D000F0913A028081E0913F02F091400282FD68
:1006E0001BC09081809142028F5F8F7320914302E3
:1006F000821741F0E0914202F0E0E75DFD4F958FF7
:1007000080934202FF91EF919F918F912F910F90D3
:100710000FBE0F901F9018958081F4CFCF93DF9379
:10072000282F30E0F901E255FF4F8491F901E65698
:10073000FF4FD491F901EA57FF4FC491CC23A1F0A8
:1007400081110E948101EC2FF0E0EE0FFF1FE458B1
:10075000FF4FA591B491EC91ED2381E090E009F475
:1007600080E0DF91CF91089580E090E0FACF1F9371
:10077000CF93DF93162F282F30E0F901E255FF4F7A
:100780008491F901E656FF4FD491F901EA57FF4FE2
:10079000C491CC23A1F081110E948101EC2FF0E0E3
:1007A000EE0FFF1FEE58FF4FA591B4918FB7F8944D
:1007B000EC91111108C0D095DE23DC938FBFDF913F
:1007C000CF911F910895DE2BF8CFCF93DF9390E068
:1007D000FC01E656FF4F24918A579F4FFC018491FC
:1007E0008823C9F090E0880F991FFC01E859FF4F5A
:1007F000A591B491FC01EE58FF4FC591D4916111C0
:100800000DC09FB7F8948C91209582238C9388819A
:10081000282328839FBFDF91CF910895623051F440
:100820009FB7F8943C91822F809583238C93E88125
:100830002E2BEFCF8FB7F894EC912E2B2C938FBFEC
:10084000EACF789484B5826084BD84B5816084BD2C
:1008500085B5826085BD85B5816085BDEEE6F0E039
:10086000808181608083E1E8F0E010828081826095
:100870008083808181608083E0E8F0E08081816016
:100880008083E1EBF0E0808184608083E0EBF0E046
:10089000808181608083EAE7F0E0808184608083EA
:1008A0008081826080838081816080838081806894
:1008B00080831092C10008958230910538F0880F2E
:1008C000991F880F991F05970197F1F708958F9247
:1008D0009F92AF92BF92CF92DF92EF92FF926B0105
:1008E0007C010E94AA014B015C01C114D104E10406
:1008F000F104C9F4FF90EF90DF90CF90BF90AF90DC
:100900009F908F90089521E0C21AD108E108F10864
:1009100088EE880E83E0981EA11CB11CC114D1047E
:10092000E104F10411F30E94AA01681979098A0906
:100930009B09683E73408105910528F7D6CF2FB7F4
:10094000F8946091C0017091C1018091C2019091B1
:10095000C3012FBF08951F920F920FB60F9211245B
:100960002F933F938F939F93AF93BF938091C00139
:100970009091C101A091C201B091C3013091BF011A
:1009800023E0230F2D3758F50196A11DB11D2093AB
:10099000BF018093C0019093C101A093C201B093A5
:1009A000C3018091C4019091C501A091C601B0918D
:1009B000C7010196A11DB11D8093C4019093C5018B
:1009C000A093C601B093C701BF91AF919F918F9142
:1009D0003F912F910F900FBE0F901F90189526E812
:1009E000230F0296A11DB11DD2CF1F920F920FB6F9
:1009F0000F9211242F933F934F935F936F937F93A5
:100A00008F939F93AF93BF93EF93FF93E091080170
:100A1000F09109010995FF91EF91BF91AF919F91DD
:100A20008F917F916F915F914F913F912F910F9097
:100A30000FBE0F901F9018951F920F920FB60F9236
:100A400011242F933F934F935F936F937F938F93D3
:100A50009F93AF93BF93EF93FF93E0910601F091C3
:100A600007010995FF91EF91BF91AF919F918F91F0
:100A70007F916F915F914F913F912F910F900FBE9A
:100A80000F901F901895FC01248131E03093BD0137
:100A90002093BE011092C9011092C8018385682B72
:100AA000E091CC01F091CD010190F081E02D8CEC32
:100AB00091E009956091C8018091BE010E946B0789
:100AC0001092C9011092C8011092BD0108950F93B0
:100AD0001F93CF938C01C62F0E9443056C2F646037
:100AE000C8010E94430581E090E00E945C046C2FE5
:100AF0006B7FC8010E94430582E390E0CF911F9174
:100B00000F910C945C040F931F93CF93DF938C0190
:100B1000D62FC42F607F642B0E94670580E1D89F89
:100B2000B00111246C2BC801DF91CF911F910F915F
:100B30000C94670541E00E94830581E090E00895F0
:100B40001F920F920FB60F9211242F933F934F9342
:100B50005F936F937F938F939F93AF93BF93EF9325
:100B6000FF938091B900887F803609F44AC0F0F580
:100B7000883209F4A5C018F5803109F499C0B8F499
:100B8000882309F4F5C0883009F492C0FF91EF91F1
:100B9000BF91AF919F918F917F916F915F914F9195
:100BA0003F912F910F900FBE0F901F901895883195
:100BB00009F486C0803251F78093160314C0803444
:100BC00009F49BC040F48033B9F38833F9F680937D
:100BD000160385ECAEC0803509F483C0883509F46E
:100BE00094C0883499F60E94D001D0CF883909F496
:100BF0008AC038F5883729F050F4883611F08037EC
:100C000029F683E0809318031092BC0155C0883800
:100C100009F479C0803919F0803809F0B7CF809194
:100C2000BC01803208F06FC0E091BC0181E08E0F02
:100C30008093BC018091BB00F0E0E456FE4F8083BE
:100C40003BC0803B39F0D0F4803A09F477C0883A51
:100C500009F09CCF84E08093180310929B011092BE
:100C60009A01E0E0F0E0099580919A0181110FC0AE
:100C700081E080939A0110927A0109C0803C09F4C6
:100C8000A8CF883C09F4A5CF883B09F07FCFE0913D
:100C90009B0181E08E0F80939B01F0E0E658FE4FB0
:100CA00080818093BB0090919B0180919A0129C023
:100CB0008091F3028093BB0085EC8093BC0066CFEB
:100CC0009091150380911403981758F5E09115033E
:100CD00081E08E0F80931503F0E0EC50FD4F808192
:100CE000E9CFE091150381E08E0F80931503809189
:100CF000BB00F0E0EC50FD4F808390911503809194
:100D000014039817C8F285E8D8CFE091150381E065
:100D10008E0F809315038091BB00F0E0EC50FD4FE7
:100D200080838091170381115ECF81E08093F2026E
:100D300084EA8093BC001092180328CF85EC80933E
:100D4000BC00109218038091BC01803230F4E09115
:100D5000BC01F0E0E456FE4F10826091BC0170E0EF
:100D60008CE991E0E0E0F0E009951092BC010ECF33
:100D70001092160338CF1092180381E08093170366
:100D80001092F20261E082E10E94B70361E083E128
:100D90000E94B703E9EBF0E080818E7F8083808141
:100DA0008D7F808388E48093B80085E48093BC00C5
:100DB0000895DC01ED91FD918081ED91FD9190818F
:100DC000ED91FD916C9163708E2309F064609F2317
:100DD00009F06860E6EFF6E0E60FF11D65956595B0
:100DE0006D936D917D918D919D91099423C01AC051
:100DF00012C016C010C01EC009C014C013C006C067
:100E000019C009C00DC007C00DC014C062507040A9
:100E1000804090400BC0615070408040904006C0C0
:100E20006E5F01C06F5F7F4F8F4F9F4F9E938E937A
:100E30007E936E93089580917601909177010C9442
:100E4000D90680917801909179010C94D90680910E
:100E50003903882311F18130E9F482E0809339036A
:100E600084E493E020914203222351F04EE353E0C7
:100E700060E473E00E945E1090933D0380933C0316
:100E800080913C0390913D03892B39F010924203ED
:100E900081E0089580E090E0E5CF80E00895823021
:100EA000C8F4E82FF0E0EE0FFF1FEA5FFE4F7183FA
:100EB0006083813041F0809169008C7F81608093F4
:100EC0006900E89A089580916900837F8460809327
:100ED0006900E99A0895613208F049C090911803B9
:100EE0009111FCCF92E09093180391E09093170337
:100EF0009FEF909316031092150360931403A9E1DA
:100F0000B3E0E4EFF2E090E069132BC01092F3023B
:100F10009091F302880F892B8093F3028091F20263
:100F2000813019F51092F2028091F3028093BB0098
:100F30008091BC0083FDF8CF85EC8093BC0080914C
:100F400018038230E1F3809116038F3F91F0809176
:100F50001603803281F080911603803371F084E0B3
:100F600008952D9121939F5FCFCF85EEE6CF81E04D
:100F7000089580E0089582E0089583E00895CF9376
:100F8000DF93CDB7DEB728970FB6F894DEBF0FBE5C
:100F9000CDBF98E0E2E3F1E0DE01119601900D9201
:100FA0009A95E1F79091EE02462F50E0292F30E01C
:100FB0002417350714F46FEF690F262F30E0220F46
:100FC000331F41E050E04C0F5D1F240F351FF90126
:100FD0006081680F606840E086EE92E028960FB668
:100FE000F894DEBF0FBECDBFDF91CF910C94830587
:100FF0004F925F926F927F928F929F92AF92BF9229
:10100000CF92DF92EF92FF920F931F93CF93DF93D4
:101010006B017C01C42F9B01AC010E94BC12882390
:1010200009F497C063E571E0AFC02FEF3FEF4FE7E2
:101030005FE4C701B6010E94B71218161CF46FE4F2
:1010400071E0A2C02FEF3FEF4FE75FECC701B601A1
:101050000E94851087FDF3CF20E030E0A901C70191
:10106000B6010E94851087FF1EC06DE286EE92E0F9
:101070000E948D024C01F7FAF094F7F8F094D0E05A
:1010800060E070E080E09FE30C2F10E02D2F30E057
:10109000201731075CF420E030E040E251E40E9488
:1010A0001612DF5FF3CF812C912CE9CFA7019601B7
:1010B0000E94AA112B013C010E9488125B016C0165
:1010C0002AE0AB01BC0186EE92E00E94A9027C01FD
:1010D000E80CF91C012B09F46BC0C601B5010E9494
:1010E0008A109B01AC01C301B2010E94A9114B01FE
:1010F0005C016EE286EE92E00E948D02E80EF91E1F
:10110000CC2309F455C020E030E040E251E4C501B1
:10111000B4010E94EB102B013C010E9488124B018C
:10112000A12CB12C2AE0B501A40186EE92E00E9428
:10113000A902E80EF91EC501B4010E948A109B01A4
:10114000AC01C301B2010E94A9114B015C01C15065
:10115000D7CF46015701E894B7F82FEF3FEF4FE79D
:101160005FE7C501B4010E94BC1281115ECF2FEF71
:101170003FEF4FE75FE7C501B4010E9485101816E5
:101180000CF053CF6BE471E086EE92E0DF91CF91EB
:101190001F910F91FF90EF90DF90CF90BF90AF9095
:1011A0009F908F907F906F905F904F900C949402DF
:1011B000C701DF91CF911F910F91FF90EF90DF90CA
:1011C000CF90BF90AF909F908F907F906F905F90E7
:1011D0004F900895E9E2F2E01382128288EE93E0E4
:1011E000A0E0B0E084839583A683B78386E291E094
:1011F0009183808385EC90E09587848784EC90E0F0
:101200009787868780EC90E0918B808B81EC90E0D3
:10121000938B828B82EC90E0958B848B86EC90E0B4
:10122000978B868B118E128E138E148E0895ECEC94
:10123000F1E01382128288EE93E0A0E0B0E08483B4
:101240009583A683B78386E191E091838083089597
:101250000F931F93CF931092E9021092E8028EE051
:1012600091E09093E7028093E60287E28093EA029E
:1012700084E18093EF0284E08093F0021092F10207
:101280008DE08093D7028AE08093D9028CE080932E
:10129000D8021092CF021092D0021092D102109276
:1012A000D20280E090E0A0E8BFE38093D302909365
:1012B000D402A093D502B093D60280E88093CE02E8
:1012C00080E090ECA9E7B4EC8093CA029093CB0243
:1012D000A093CC02B093CD028093C6029093C70234
:1012E000A093C802B093C90262E082E00E94E503C5
:1012F00062E083E00E94E503E8E8F0E0E491F0E0DA
:10130000EE0FFF1FE458FF4F8591949190931E02BA
:1013100080931D02ECE9F0E0E491E0932102E9E81A
:10132000F0E0E491F0E0EE0FFF1FE458FF4F8591ED
:1013300094919093200280931F02EDE9F0E0E491F4
:10134000E0932202109224021092250210922602AB
:101350001092270280ED97E00E945C04E0911D024C
:10136000F0911E02908180912102982381E009F47E
:1013700080E0E0911F02F0912002908120912202F2
:10138000922309F082600DE112E080932302109312
:101390007701009376016BE177E080E00E944F07D0
:1013A000C1E0C0932802109379010093780161E2B3
:1013B00077E081E00E944F07809128028F5F809341
:1013C000280210923B0310923A0380E2809340037C
:1013D0001092410380E4809384038FE3809385031C
:1013E000109243031092390310923D0310923C0374
:1013F00010923F0310923E03C09342038CED91E0A4
:101400009093FD018093FC0189E192E09093FB01B0
:101410008093FA0188ED91E09093FF018093FE01A3
:1014200010921802109210021092110210921202E1
:101430001092130280E090E0AFE7B3E480931402CF
:1014400090931502A0931602B093170284E690E0E1
:10145000A0E0B0E080930C0290930D02A0930E02E6
:10146000B0930F021092F9011092F80180E090E021
:10147000AAEFB3E48093E0019093E101A093E2012D
:10148000B093E30140E050E060E87FE34093E40183
:101490005093E5016093E6017093E70140E050E06E
:1014A00068EC72E44093E8015093E9016093EA012B
:1014B0007093EB018093EC019093ED01A093EE010A
:1014C000B093EF018DEC9CECACECBDE38093F001AC
:1014D0009093F101A093F201B093F30180E090E0CA
:1014E000AAE7B4E48093F4019093F501A093F60188
:1014F000B093F7010E949F0400910C0210910D021D
:1015000020910E0230910F02601B710B820B930B26
:101510006093000270930102809302029093030291
:10152000CF911F910F910895CF93DF93CDB7DEB781
:1015300029970FB6F894DEBF0FBECDBF0E942104DD
:10154000E0913902F0913A0282E08083E091350225
:10155000F09136021082E0913702F091380280E17A
:10156000808310924102E0913D02F0913E0286E0BC
:101570008083E0913B02F0913C0280818061808316
:10158000E0913B02F0913C02808188608083E09191
:101590003B02F0913C02808180688083E0913B02B5
:1015A000F0913C0280818F7D80831092CB0110925C
:1015B000CA011092C9011092C8010E94BB06109284
:1015C000EB028091F002282F30E0223031051CF030
:1015D00098E09093EB028093EE0262E370E080E08B
:1015E00090E00E9467046091F10286EE92E00E9412
:1015F000430568EE73E080E090E00E94670460E3DA
:1016000086EE92E00E94670584E991E10E945C0405
:1016100060E386EE92E00E94670584E991E10E9412
:101620005C0460E386EE92E00E94670586E990E044
:101630000E945C0460E286EE92E00E946705609181
:10164000EB02606240E086EE92E00E94830584E057
:101650008093EC0240E06CE086EE92E00E9483050D
:1016600040E061E086EE92E00E94830580ED97E025
:101670000E945C0482E08093ED0240E066E086EE2A
:1016800092E00E94830540E062E086EE92E00E94D4
:10169000830580ED97E00E945C0488E08093F1026E
:1016A00060E086EE92E00E94430560E08091D902FE
:1016B0000E94E50360E08091D9020E94B70361E0D7
:1016C0008091D7020E94E50360E08091D8020E94D9
:1016D000E50361E080E10E94E50361E080E10E94B2
:1016E000B70361E087E00E94E50361E086E00E94C5
:1016F000E50360E089E00E94E50360E088E00E9485
:10170000E50385EF92E090933B0380933A030E94B8
:101710009F046093DA027093DB028093DC02909363
:10172000DD0280E090E0A8ECB1E48093D8019093D2
:10173000D901A093DA01B093DB011092100210924C
:1017400011021092120210921302C12CD12C5AEFE6
:10175000E52E54E4F52EC0921402D0921502E092C8
:101760001602F0921702809118020091FC0110916C
:10177000FD01882309F40BC1D8018D909D90AD9097
:10178000BC90A7019601C501B4010E94B7121816BA
:1017900034F5F801C082D182E282F38280900402A3
:1017A00090900502A0900602B0900702C09014022B
:1017B000D0901502E0901602F0901702A701960152
:1017C000C501B4010E94B7121816CCF4C0920402ED
:1017D000D0920502E0920602F092070220C020E0BB
:1017E00030E0A901C501B4010E94851087FFD6CF62
:1017F000D8011D921D921D921C921397CFCFC090BD
:101800001002D0901102E0901202F0901302A70192
:101810009601C501B4010E94851087FDD7CF609164
:101820000C0270910D0280910E0290910F020E94A5
:101830008A109B01AC0160E070E08AE794E40E94AA
:1018400016126B017C019B01AC016091F00170915B
:10185000F1018091F2019091F3010E94EB106093ED
:10186000F0017093F1018093F2019093F301A701CD
:1018700096016091F4017091F5018091F6019091CB
:10188000F7010E9416126093F4017093F5018093A2
:10189000F6019093F70188EE93E0A0E0B0E080932A
:1018A0000C0290930D02A0930E02B0930F02E7C0BA
:1018B00020E030E0A901C501B4010E94851087FF36
:1018C000DEC01092040210920502109206021092DD
:1018D0000702D5C020E030E040E053E40E94A911A7
:1018E0002EC120E030E040E055E40E94A91145C13E
:1018F000F894BCC18091100290911102A091120243
:10190000B09113028D839E83AF83B8879C01AD0194
:10191000C701B6010E94851087FF75C22D813E81E7
:101920004F815885209304023093050240930602AC
:101930005093070268C22AE0B701A60145C361E0DF
:1019400067C3AE2FB0E0A75CBC4F1B968C93EF5FD4
:10195000E0934303F0E02091850330E0E217F307C2
:101960000CF486C31092430310923D0310923C0383
:1019700010923F0310923E033092420379C387E7EF
:1019800091E0892B09F480C00E9477017DC06091AD
:101990000C0270910D0280910E0290910F020E9434
:1019A0008A109B01AC0160E070E08AE794E40E9439
:1019B00016124B015C019B01AC016091F00170912A
:1019C000F1018091F2019091F3010E94EB1060937C
:1019D000F0017093F1018093F2019093F301A5015E
:1019E00094016091F4017091F5018091F60190915C
:1019F000F7010E9416126093F4017093F501809331
:101A0000F6019093F70188EE93E0A0E0B0E08093B8
:101A10000C0290930D02A0930E02B0930F02D80116
:101A20008D909D90AD90BC908092040290920502A2
:101A3000A0920602B0920702E091FA01F091FB0138
:101A400080819181A281B3818093080290930902E1
:101A5000A0930A02B0930B0220E030E04AEF54E476
:101A6000C501B4010E94B71218160CF021CFC09224
:101A70000402D0920502E0920602F092070281E091
:101A8000809318023324339488E00E948E038C01E3
:101A900055245394892B09F4512C89E00E948E031C
:101AA0009A83898366246394892B09F4612C61E00D
:101AB0008091D9020E94E50340E2B42EC12CD12CC2
:101AC0007601CC0CDD1CEE1CFF1C60E08091D7027F
:101AD0000E94B7038091D8020E948E03892B29F0BF
:101AE000BFEFCB1ADB0AEB0AFB0A61E08091D70259
:101AF0000E94B703BA94B110E4CF60E08091D9029C
:101B00000E94E503EC2DE7707E2EE093CE024601A5
:101B1000570124E0B694A794979487942A95D1F717
:101B2000C501B4017770882799270E948A1020E0A8
:101B300030E040E85DE30E94EB1093FCCBCE609375
:101B4000C6027093C7028093C8029093C90292E1C3
:101B5000F694E794D794C7949A95D1F7C701B60144
:101B60007F71882799270E948A1020E030E040E8A2
:101B70005EE30E94EB10D5FCB4CE6093CA02709372
:101B8000CB028093CC029093CD02C090CF02D09034
:101B9000D002E090D102F090D20220E030E0A90122
:101BA000C701B6010E9485108823A1F0A701960104
:101BB0006091CA027091CB028091CC029091CD02CB
:101BC0000E94AA116093CA027093CB028093CC0248
:101BD0009093CD027720A9F063E471E089E292E06E
:101BE0000E949402472D50E060E070E02AE089E214
:101BF00092E00E94A90260E471E089E292E00E9412
:101C000094022091D3023091D4024091D502509198
:101C1000D6026091CA027091CB028091CC02909161
:101C2000CD020E94EB106093E2027093E302809376
:101C3000E4029093E5028091C6029091C702A091C0
:101C4000C802B091C9028093DE029093DF02A09394
:101C5000E002B093E1028091280290E002970CF03C
:101C600047CEF8948DE192E00E94D906809124023B
:101C700090912502A0912602B0912702789440917C
:101C80000201509103016091040170910501481710
:101C900059076A077B0741F0809302019093030183
:101CA000A0930401B0930501012B71F4809101010F
:101CB000882351F087E00E948E0361E0892B09F0B0
:101CC00060E087E00E94B70329813A81232B71F4F9
:101CD00080910001882351F086E00E948E0361E02C
:101CE000892B09F060E086E00E94B7035092010161
:101CF000609200018091E2029091E302A091E402DF
:101D0000B091E5028093190290931A02A0931B02EE
:101D1000B0931C0280911802882309F4E7C00E9446
:101D20009F0469837A838B839C83809100029091C6
:101D30000102A0910202B091030249815A816B8194
:101D40007C81481B590B6A0B7B0B80910C02909194
:101D50000D02A0910E02B0910F02481759076A07B1
:101D60007B0708F4C3C0E091FA01F091FB01808089
:101D70009180A280B380E091FE01F091FF01A50166
:101D8000940160817181828193810E94A9112B014C
:101D90003C012091F0013091F1014091F20150910C
:101DA000F3010E94EB102091040230910502409152
:101DB0000602509107020E94AA116B017C016093F8
:101DC000040270930502809306029093070200912B
:101DD00014021091150230911602398720901702D3
:101DE00098014985522D0E94B71218160CF082CD29
:101DF000C801A985B22D8093040290930502A09397
:101E00000602B09307022091EC013091ED01409160
:101E1000EE015091EF01C301B2010E94EB1020913D
:101E200004023091050240910602509107020E947F
:101E3000AA116B017C0120910802309109024091A6
:101E40000A0250910B02C501B4010E94A911209110
:101E5000F4013091F5014091F6015091F7010E9493
:101E6000EB109B01AC01C701B6010E94A9116B01E7
:101E70007C019B01AC01B8018985922D0E948510DF
:101E800087FD15C0009110021091110230911202CD
:101E900039872090130298014985522DB601C70158
:101EA0000E94851087FD03C08601E9862F2CE091F2
:101EB000FC01F091FD01C801A985B22D80839183B9
:101EC000A283B3838092080290920902A0920A0230
:101ED000B0920B0289819A81AB81BC818093000210
:101EE00090930102A0930202B09303020E949F0408
:101EF0004B015C018091DA029091DB02A091DC023F
:101F0000B091DD02B501A401481B590B6A0B7B0B94
:101F1000413D57406105710508F45AC08053984F00
:101F2000AF4FBF4F8093DA029093DB02A093DC02A5
:101F3000B093DD0240E061E086EE92E00E9483050E
:101F400080ED97E00E945C0460E082E00E94BF07A1
:101F50006091E2027091E3028091E4029091E502C7
:101F600042E00E94F80760E08AE00E94BF076091AB
:101F7000DE027091DF028091E0029091E10242E086
:101F80000E94F80761E082E00E94BF07C090020152
:101F9000D0900301E0900401F090050182E0F594F7
:101FA000E794D794C7948A95D1F7F7FEC4CC6DE235
:101FB00086EE92E00E948D0244275527BA014C1903
:101FC0005D096E097F092AE086EE92E00E94A9026F
:101FD0008091DA029091DB02A091DC02B091DD02E7
:101FE000A5019401281B390B4A0B5B0BCA01B901EF
:101FF0000E948A102091DC013091DD014091DE01C8
:102000005091DF010E94B71218160CF098CC60E0D6
:1020100080E10E94B70389E292E00E94D700892BF9
:1020200009F4ADCC89E292E00E94B5001092390328
:1020300018161906ECF48A309105D1F0E0914303AB
:102040008D30910509F07DCCF0E0E75CFC4F138604
:102050001092430310923F0310923E0330924203CA
:102060003092390344E453E050933D0340933C03E2
:1020700080913903813079F6E0913A03F0913B0386
:10208000309749F20995C7CF0E94EA080E941709C4
:102090000C942809DC01FB014150504058F049F0F4
:1020A00001900D920020C1F7E61BF70B3197CF018D
:1020B00008951C9201900020E9F7F6CFFA01A19152
:1020C000B081009719F41097E1F0CD01DC01CD014A
:1020D0000D90002011F4C00113C0FB0121912223B7
:1020E00019F02015D9F7F3CFFB012191201519F430
:1020F0001E92119606C02223C1F70D900020A1F771
:10210000D001FA01A193B08308950E94C71008F48A
:1021100081E00895E89409C097FB3EF4909580957E
:10212000709561957F4F8F4F9F4F9923A9F0F92F9D
:1021300096E9BB279395F695879577956795B7951B
:10214000F111F8CFFAF4BB0F11F460FF1BC06F5F01
:102150007F4F8F4F9F4F16C0882311F096E911C013
:10216000772321F09EE8872F762F05C0662371F034
:1021700096E8862F70E060E02AF09A95660F771F48
:10218000881FDAF7880F9695879597F90895990F24
:102190000008550FAA0BE0E8FEEF16161706E80731
:1021A000F907C0F012161306E407F50798F0621B52
:1021B000730B840B950B39F40A2661F0232B242B27
:1021C000252B21F408950A2609F4A140A6958FEF46
:1021D000811D811D08950E94FE100C946F110E94B4
:1021E000611138F00E94681120F0952311F00C94D1
:1021F00058110C945E1111240C94A3110E948011AB
:1022000070F3959FC1F3950F50E0551F629FF00149
:10221000729FBB27F00DB11D639FAA27F00DB11D62
:10222000AA1F649F6627B00DA11D661F829F2227EB
:10223000B00DA11D621F739FB00DA11D621F839F72
:10224000A00D611D221F749F3327A00D611D231F48
:10225000849F600D211D822F762F6A2F11249F5796
:1022600050409AF0F1F088234AF0EE0FFF1FBB1F99
:10227000661F771F881F91505040A9F79E3F510558
:1022800080F00C9458110C94A3115F3FE4F3983E36
:10229000D4F3869577956795B795F795E7959F5F02
:1022A000C1F7FE2B880F911D9695879597F9089594
:1022B00097F99F6780E870E060E008959FEF80ECF9
:1022C000089500240A94161617061806090608959C
:1022D00000240A9412161306140605060895092E02
:1022E0000394000C11F4882352F0BB0F40F4BF2B71
:1022F00011F460FF04C06F5F7F4F8F4F9F4F0895B1
:1023000057FD9058440F551F59F05F3F71F04795A6
:10231000880F97FB991F61F09F3F79F0879508958B
:10232000121613061406551FF2CF4695F1DF08C0AA
:10233000161617061806991FF1CF869571056105C7
:1023400008940895E894BB2766277727CB0197F96F
:1023500008955058BB27AA270E94C1110C946F11F1
:102360000E94611138F00E94681120F039F49F3FFB
:1023700019F426F40C945E110EF4E095E7FB0C942E
:102380005811E92F0E94801158F3BA17620773079A
:102390008407950720F079F4A6F50C94A2110EF4A9
:1023A000E0950B2EBA2FA02D0B01B90190010C0165
:1023B000CA01A0011124FF27591B99F0593F50F47D
:1023C000503E68F11A16F040A22F232F342F4427D5
:1023D000585FF3CF469537952795A795F0405395CD
:1023E000C9F77EF41F16BA0B620B730B840BBAF09D
:1023F0009150A1F0FF0FBB1F661F771F881FC2F708
:102400000EC0BA0F621F731F841F48F4879577951B
:102410006795B795F7959E3F08F0B0CF9395880FD5
:1024200008F09927EE0F9795879508950E942A1234
:102430000C946F110E94681158F00E94611140F0D5
:1024400029F45F3F29F00C94581151110C94A311F9
:102450000C945E110E94801168F39923B1F3552307
:1024600091F3951B550BBB27AA27621773078407A7
:1024700038F09F5F5F4F220F331F441FAA1FA9F33D
:1024800035D00E2E3AF0E0E832D091505040E6952B
:10249000001CCAF72BD0FE2F29D0660F771F881F8C
:1024A000BB1F261737074807AB07B0E809F0BB0B7F
:1024B000802DBF01FF2793585F4F3AF09E3F510593
:1024C00078F00C9458110C94A3115F3FE4F3983EFC
:1024D000D4F3869577956795B795F7959F5FC9F77C
:1024E000880F911D9695879597F90895E1E0660FFD
:1024F000771F881FBB1F621773078407BA0720F076
:10250000621B730B840BBA0BEE1F88F7E0950895DE
:102510000E94881188F09F5798F0B92F9927B751DA
:10252000B0F0E1F0660F771F881F991F1AF0BA9577
:10253000C9F714C0B13091F00E94A211B1E0089522
:102540000C94A211672F782F8827B85F39F0B93F14
:10255000CCF3869577956795B395D9F73EF490952A
:102560008095709561957F4F8F4F9F4F08950E9482
:10257000C71008F48FEF08950E94C710880B990BBD
:102580000895A1E21A2EAA1BBB1BFD010DC0AA1FB4
:10259000BB1FEE1FFF1FA217B307E407F50720F0CC
:1025A000A21BB30BE40BF50B661F771F881F991F47
:1025B0001A9469F760957095809590959B01AC0190
:1025C000BD01CF010895EE0FFF1F0590F491E02D9E
:1025D0000994FB01DC018D91019080190110D9F360
:0825E000990B0895F894FFCF58
:1025E800010119FCFFFFCF01CF01000000009A058F
:1025F8008C00000000005C022F0227021402030274
:102608000202000000000E018C00D700B500C900CE
:102618005501000040001400540052455345540031
:102628000D0A00737461743A090900696E66006FD7
:082638007666006E616E000081
:00000001FF
