:100000000C9462000C94C9050C94A2050C948A000F
:100010000C948A000C948A000C948A000C948A0038
:100020000C948A000C948A000C948A000C948A0028
:100030000C948A000C948A000C948A000C948A0018
:100040000C9458050C948A000C9409040C94E30356
:100050000C948A000C948A000C948A000C948A00F8
:100060000C944D060C948A00000000002400270028
:100070002A0000000000250028002B0000000000DE
:1000800023002600290004040404040404040202DA
:100090000202020203030303030301020408102007
:1000A0004080010204081020010204081020000012
:1000B0000008000201000003040700000000000027
:1000C00000005D1211241FBECFEFD8E0DEBFCDBF10
:1000D00024E0AEECB1E001C01D92AA30B207E1F716
:1000E00011E0A0E0B1E0E6E6FAE202C005900D9270
:1000F000AE3CB107D9F710E0C2E6D0E004C02197CA
:10010000FE010E942215C136D107C9F70E947B0C5F
:100110000C9431150C940000CF92DF92EF92FF9275
:100120000F931F93CF93DF937C016A018B01C0E093
:10013000D0E0CC15DD0579F0D8016D918D01D701A6
:10014000ED91FC910190F081E02DC7010995892B7B
:1001500011F02196EECFCE01DF91CF911F910F913B
:10016000FF90EF90DF90CF900895FC01918D828DEC
:10017000981761F0828DDF01A80FB11D5D968C91FB
:10018000928D9F5F9F73928F90E008958FEF9FEF06
:100190000895FC01918D828D981731F0828DE80FC2
:1001A000F11D858D90E008958FEF9FEF0895FC017C
:1001B000918D228D892F90E0805C9F4F821B910949
:1001C0008F73992708958DEE92E00E94D70021E069
:1001D000892B09F420E0822F0895FC01848DDF0132
:1001E000A80FB11DA35ABF4F2C91848D90E00196AA
:1001F0008F739927848FA689B7892C93A089B18999
:100200008C9180648C93938D848D981306C00288A2
:10021000F389E02D80818F7D80830895EF92FF9296
:100220000F931F93CF93DF93EC01F62E81E0888F1D
:100230009B8D8C8D981305C0E889F989808185FD97
:100240002CC00B8D10E00F5F1F4F0F731127E02E96
:100250008C8DE8120CC00FB607FCFACFE889F9893B
:10026000808185FFF5CFCE010E94ED00F1CF8B8D0F
:10027000FE01E80FF11DE35AFF4FF0820B8FEA8970
:10028000FB8980818062808381E090E0DF91CF9163
:100290001F910F91FF90EF900895EE89FF89608381
:1002A000E889F98980818064EECFCF93DF93EC01F8
:1002B000888D882351F0EA89FB89808185FD08C0FB
:1002C000A889B9898C9186FF03C0DF91CF910895E9
:1002D0000FB607FCF2CF808185FFEFCFE889F9895F
:1002E000808185FFE8CFCE010E94ED00E4CF80E061
:1002F00090E0892B29F00E94E30081110C9400000A
:100300000895833081F028F4813099F08230A9F08B
:1003100008958730A9F08830C9F08430B1F4809115
:1003200080008F7D03C0809180008F778093800054
:10033000089584B58F7784BD089584B58F7DFBCFF4
:100340008091B0008F778093B00008958091B000C5
:100350008F7DF9CF3FB7F89480911C0290911D02D8
:10036000A0911E02B0911F0226B5A89B05C02F3F89
:1003700019F00196A11DB11D3FBFBA2FA92F982FCB
:100380008827BC01CD01620F711D811D911D42E0C6
:10039000660F771F881F991F4A95D1F70895089512
:1003A00085ED8093BC008091BC0084FDFCCF109251
:1003B000B00308954091F201262F30E0240F311D43
:1003C00021323105DCF42091B0032430C9F4FC0162
:1003D00080E090E0861738F08091F201680F60931A
:1003E000F20180E008953091F2012191DC01AE52DA
:1003F000BE4FA30FB11D2C930196ECCF81E0089561
:1004000082E0089508954091230250E02091220255
:1004100030E081E090E04217530714F480E090E070
:10042000919581959109089580912302482F50E07C
:100430002091220230E04217530734F48F5F8093FB
:10044000230280E090E008958FEF9FEF0895809160
:10045000220290E020912302821B91090895CF92FD
:10046000DF92EF92FF920F931F93CF93DF937C0164
:10047000CB018A0120911502222389F0EB016B0147
:10048000C40ED51ECC15DD0569F06991D701ED913B
:10049000FC910190F081E02DC7010995F3CF642F05
:1004A0000E94DA01C801DF91CF911F910F91FF9057
:1004B000EF90DF90CF900895CF93DF931F92CDB749
:1004C000DEB7698320911502222309F120912002D1
:1004D00030E0203231055CF021E030E0FC01338374
:1004E000228380E090E00F90DF91CF91089580917A
:1004F0002102E82FF0E0EF54FC4F998190838F5F49
:10050000809321028093200281E090E0ECCF61E0B3
:10051000CE0101960E94DA01F7CFDC01ED91FC914A
:100520000190F081E02D09946115710579F0FB01CE
:1005300001900020E9F73197AF01461B570BDC0112
:10054000ED91FC910280F381E02D099480E090E030
:1005500008958F929F92AF92BF92EF92FF920F9366
:100560001F93CF93DF93CDB7DEB7A1970FB6F89463
:10057000DEBF0FBECDBF7C01FA01CB0119A2422F15
:1005800050E0423051050CF42AE08E010F5D1F4F00
:10059000822E912CA12CB12CBF01A50194010E94A7
:1005A0000015F901CA01015011096A30E4F4605DD7
:1005B000D8016C93232B242B252B71F7B801C7018D
:1005C0000E949402A1960FB6F894DEBF0FBECDBF75
:1005D000DF91CF911F910F91FF90EF90BF90AF905F
:1005E0009F908F900895695CE3CF5F926F927F92A6
:1005F0008F929F92AF92BF92CF92DF92EF92FF9233
:100600000F931F93CF93DF93EC016A017B01522E6E
:100610009A01AB01C701B6010E94FB14882309F4BB
:1006200092C066E571E0AAC02FEF3FEF4FE75FE4AD
:10063000C701B6010E94F61418161CF462E571E0B9
:100640009DC02FEF3FEF4FE75FECC701B6010E945F
:10065000C41287FDF3CF20E030E0A901C701B60145
:100660000E94C41287FF1DC06DE2CE010E948D0260
:100670008C01F7FAF094F7F8F094B12C60E070E098
:1006800080E09FE3652C712C2B2D30E0261537057B
:100690005CF420E030E040E251E40E945514B39451
:1006A000F3CF00E010E0E9CFA70196010E94E91323
:1006B0006B017C010E94C7144B015C012AE0AB0175
:1006C000BC01CE010E94A902080F191F672809F476
:1006D00067C0C501B4010E94C9129B01AC01C701EA
:1006E000B6010E94E8136B017C016EE2CE010E940C
:1006F0008D02080F191F552009F452C020E030E088
:1007000040E251E4C701B6010E942A134B015C018B
:100710000E94C7146B01E12CF12C2AE0B701A6015D
:10072000CE010E94A902080F191FC701B6010E943D
:10073000C9129B01AC01C501B4010E94E8136B0111
:100740007C015A94D8CF46015701E894B7F82FEFAF
:100750003FEF4FE75FE7C501B4010E94FB14811131
:1007600063CF2FEF3FEF4FE75FE7C501B4010E9472
:10077000C41218160CF058CF6EE471E0CE01DF9170
:10078000CF911F910F91FF90EF90DF90CF90BF908E
:10079000AF909F908F907F906F905F900C94940299
:1007A000C801DF91CF911F910F91FF90EF90DF90E3
:1007B000CF90BF90AF909F908F907F906F905F9001
:1007C00008950C9494021F920F920FB60F92112469
:1007D0002F933F934F935F936F937F938F939F9349
:1007E000AF93BF93EF93FF938DEE92E00E94ED00E5
:1007F000FF91EF91BF91AF919F918F917F916F91F9
:100800005F914F913F912F910F900FBE0F901F90CE
:1008100018951F920F920FB60F9211242F938F935A
:100820009F93EF93FF93E091FD02F091FE02808190
:10083000E0910303F091040382FD1BC0908180913D
:1008400006038F5F8F7320910703821741F0E091B9
:100850000603F0E0E351FD4F958F80930603FF916F
:10086000EF919F918F912F910F900FBE0F901F903E
:1008700018958081F4CFCF93DF93282F30E0F901D2
:10088000E255FF4F8491F901E656FF4FD491F901EB
:10089000EA57FF4FC491CC23A1F081110E9481013E
:1008A000EC2FF0E0EE0FFF1FE458FF4FA591B4913D
:1008B000EC91ED2381E090E009F480E0DF91CF91AD
:1008C000089580E090E0FACF1F93CF93DF93162F27
:1008D000282F30E0F901E255FF4F8491F901E656E7
:1008E000FF4FD491F901EA57FF4FC491CC23A1F0F7
:1008F00081110E948101EC2FF0E0EE0FFF1FEE58F6
:10090000FF4FA591B4918FB7F894EC91111108C0E5
:10091000D095DE23DC938FBFDF91CF911F91089597
:10092000DE2BF8CFCF93DF9390E0FC01E656FF4F2C
:1009300024918A579F4FFC0184918823C9F090E04D
:10094000880F991FFC01E859FF4FA591B491FC0154
:10095000EE58FF4FC591D49161110DC09FB7F89427
:100960008C91209582238C938881282328839FBF94
:10097000DF91CF910895623051F49FB7F8943C9184
:10098000822F809583238C93E8812E2BEFCF8FB716
:10099000F894EC912E2B2C938FBFEACF789484B5EA
:1009A000826084BD84B5816084BD85B5826085BD6B
:1009B00085B5816085BDEEE6F0E080818160808351
:1009C000E1E8F0E010828081826080838081816034
:1009D0008083E0E8F0E0808181608083E1EBF0E0FB
:1009E000808184608083E0EBF0E08081816080839F
:1009F000EAE7F0E080818460808380818260808388
:100A00008081816080838081806880831092C100B2
:100A100008958230910538F0880F991F880F991F2B
:100A200005970197F1F708958F929F92AF92BF9229
:100A3000CF92DF92EF92FF926B017C010E94AA019C
:100A40004B015C01C114D104E104F104C9F4FF902D
:100A5000EF90DF90CF90BF90AF909F908F900895D0
:100A600021E0C21AD108E108F10888EE880E83E07F
:100A7000981EA11CB11CC114D104E104F10411F3AE
:100A80000E94AA01681979098A099B09683E734086
:100A90008105910528F7D6CF2FB7F89460911802F9
:100AA0007091190280911A0290911B022FBF089534
:100AB0001F920F920FB60F9211242F933F938F9393
:100AC0009F93AF93BF938091180290911902A091C8
:100AD0001A02B0911B023091170223E0230F2D3729
:100AE00058F50196A11DB11D20931702809318029D
:100AF00090931902A0931A02B0931B0280911C02DA
:100B000090911D02A0911E02B0911F020196A11D9D
:100B1000B11D80931C0290931D02A0931E02B093FE
:100B20001F02BF91AF919F918F913F912F910F9095
:100B30000FBE0F901F90189526E8230F0296A11D57
:100B4000B11DD2CF1F920F920FB60F9211242F9387
:100B50003F934F935F936F937F938F939F93AF9345
:100B6000BF93EF93FF93E0911C01F0911D01099554
:100B7000FF91EF91BF91AF919F918F917F916F9175
:100B80005F914F913F912F910F900FBE0F901F904B
:100B900018951F920F920FB60F9211242F933F9327
:100BA0004F935F936F937F938F939F93AF93BF9375
:100BB000EF93FF93E0911A01F0911B010995FF91CA
:100BC000EF91BF91AF919F918F917F916F915F91C5
:100BD0004F913F912F910F900FBE0F901F9018953E
:100BE000FC01248131E0309315022093160210920B
:100BF0002102109220028385682BE0912402F0915B
:100C000025020190F081E02D84E292E00995609147
:100C10002002809116020E94B809109221021092BF
:100C200020021092150208950F931F93CF938C0109
:100C3000C62F0E94F0056C2F6460C8010E94F00569
:100C400081E090E00E9409056C2F6B7FC8010E9433
:100C5000F00582E390E0CF911F910F910C9409056C
:100C60000F931F93CF93DF938C01D62FC42F607FF8
:100C7000642B0E94140680E1D89FB00111246C2BD4
:100C8000C801DF91CF911F910F910C94140641E0A0
:100C90000E94300681E090E008951F920F920FB6F7
:100CA0000F9211242F933F934F935F936F937F93F2
:100CB0008F939F93AF93BF93EF93FF938091B9006E
:100CC000887F803609F44AC0F0F5883209F4A5C05F
:100CD00018F5803109F499C0B8F4882309F4F5C0F7
:100CE000883009F492C0FF91EF91BF91AF919F912D
:100CF0008F917F916F915F914F913F912F910F90C5
:100D00000FBE0F901F901895883109F486C080326D
:100D100051F78093AE0314C0803409F49BC040F4B3
:100D20008033B9F38833F9F68093AE0385ECAEC017
:100D3000803509F483C0883509F494C0883499F665
:100D40000E94D001D0CF883909F48AC038F588379D
:100D500029F050F4883611F0803729F683E080932B
:100D6000B0031092140255C0883809F479C0803954
:100D700019F0803809F0B7CF80911402803208F062
:100D80006FC0E091140281E08E0F80931402809175
:100D9000BB00F0E0EC50FE4F80833BC0803B39F05D
:100DA000D0F4803A09F477C0883A09F09CCF84E007
:100DB0008093B0031092F3011092F201E0E0F0E0B2
:100DC00009958091F20181110FC081E08093F201B9
:100DD0001092D20109C0803C09F4A8CF883C09F4E4
:100DE000A5CF883B09F07FCFE091F30181E08E0F22
:100DF0008093F301F0E0EE52FE4F80818093BB00C0
:100E00009091F3018091F20129C080918B0380932E
:100E1000BB0085EC8093BC0066CF9091AD038091C0
:100E2000AC03981758F5E091AD0381E08E0F8093E5
:100E3000AD03F0E0E457FC4F8081E9CFE091AD03D2
:100E400081E08E0F8093AD038091BB00F0E0E4570A
:100E5000FC4F80839091AD038091AC039817C8F24A
:100E600085E8D8CFE091AD0381E08E0F8093AD038C
:100E70008091BB00F0E0E457FC4F80838091AF038A
:100E800081115ECF81E080938A0384EA8093BC0065
:100E90001092B00328CF85EC8093BC001092B00371
:100EA00080911402803230F4E0911402F0E0EC50B2
:100EB000FE4F10826091140270E084EF91E0E0E058
:100EC000F0E00995109214020ECF1092AE0338CFC5
:100ED0001092B00381E08093AF0310928A0361E027
:100EE00082E10E94640461E083E10E946404E9EB12
:100EF000F0E080818E7F808380818D7F808388E495
:100F00008093B80085E48093BC0008950E944C054E
:100F1000AB01BC012AE08DEE92E00E94A9026AE5D5
:100F200071E08DEE92E00E94E10340914E025091FB
:100F30004F02609150027091510222E08DEE92E0DA
:100F40000E94F5026AE571E08DEE92E00E94E103F5
:100F500040915A0250915B0260915C0270915D0277
:100F600022E08DEE92E00E94F5026AE571E08DEEDE
:100F700092E00E94E10340916A0250916B026091FD
:100F80006C0270916D0222E08DEE92E00E94F502FB
:100F90006AE571E08DEE92E00E94E10340916E02FD
:100FA00050916F02609170027091710222E08DEE9B
:100FB00092E00E94F5026CE571E08DEE92E00C94F7
:100FC00094020F931F93CF93DF9311E006E00E94EA
:100FD0001F0A882309F4F5C08FE591E00E94470AB3
:100FE000882339F060E080E10E9464040C94001CC6
:100FF000EECF85E691E00E94470A882351F10E94D6
:10100000980ABC01990F880B990B0E94CB12609330
:101010005A0270935B0280935C0290935D026BE6D0
:1010200071E08DEE92E00E94E10340915A025091EE
:101030005B0260915C0270915D0222E08DEE92E0B5
:101040000E94F5026CE571E08DEE92E00E94940240
:10105000BECF86E791E00E94470A8823C1F00E9434
:10106000980A90935302809352026CE771E08DEEE0
:1010700092E00E94E103409152025091530260E0DD
:1010800070E02AE08DEE92E00E94A902DBCF84E8B6
:1010900091E00E94470A8823E1F10E94980AEC013E
:1010A0008130910581F1C4F4892B21F1D09355024F
:1010B000C09354020C9FB0010D9F700D112460501D
:1010C0007F4F8DEE92E00E94E10380915402909157
:1010D00055020E94600A7BCF8230910511F0039780
:1010E00029F761E080E10E94920481E090E00E9493
:1010F0005009DCCF80E090E00E94500960E080E180
:101100000E949204D3CF80E090E00E94500961E0F9
:10111000F6CF89E891E00E94470A882371F0409158
:101120006E0250916F02609170027091710222E024
:101130008DEE92E00E94F5024ACF8EE891E00E9487
:10114000470A882319F00E94860741CF85E991E07C
:101150000E94470A8823C9F08FE591E00E940C0A9B
:101160008AE991E00E940C0A86EA91E00E940C0A4A
:1011700089E891E00E940C0A8EE891E00E940C0A36
:1011800085E991E00E940C0A22CF0E941F0A882361
:10119000A9F01093A9026091A3027091A4024EE1FC
:1011A00050E080E392E00E94811262EB71E08DEEEC
:1011B00092E00E94E10380E392E0E4CF10923002DB
:1011C000F4CFDF91CF911F910F910895DC01ED9144
:1011D000FD918081ED91FD919081ED91FD916C915A
:1011E00063708E2309F064609F2309F06860E3E078
:1011F000F9E0E60FF11D659565956D936D917D9113
:101200008D919D91099423C01AC012C016C010C0C0
:101210001EC009C014C013C006C019C009C00DC04B
:1012200007C00DC014C062507040804090400BC099
:10123000615070408040904006C06E5F01C06F5F9B
:101240007F4F8F4F9F4F9E938E937E936E93089503
:101250008091CE019091CF010C94E6088091D0014D
:101260009091D1010C94E6088230C8F4E82FF0E0A8
:10127000EE0FFF1FE65EFE4F71836083813041F009
:10128000809169008C7F816080936900E89A08955D
:1012900080916900837F846080936900E99A089552
:1012A0008F929F92AF92BF92CF92DF92EF92FF9276
:1012B000CF93C1E0019709F0C0E08091090491E06B
:1012C0008927C81349C0E091ED03F091EE03C08077
:1012D000D180E280F380C092F503D092F603E092D1
:1012E000F703F092F803E091EB03F091EC038081B7
:1012F0009181A281B3818093F9039093FA03A09323
:10130000FB03B093FC038090050490900604A0902A
:101310000704B0900804A5019401C701B6010E941A
:10132000F61418164CF48092F5039092F603A092EE
:10133000F703B092F80310C080900104909002046B
:10134000A0900304B0900404A5019401C701B60164
:101350000E94C41287FDE7CFC0930904CF91FF908C
:10136000EF90DF90CF90BF90AF909F908F900895B7
:10137000613208F049C09091B0039111FCCF92E026
:101380009093B00391E09093AF039FEF9093AE03DF
:101390001092AD036093AC03A1EBB3E0ECE8F3E093
:1013A00090E069132BC010928B0390918B03880FF0
:1013B000892B80938B0380918A03813019F51092D9
:1013C0008A0380918B038093BB008091BC0083FDD6
:1013D000F8CF85EC8093BC008091B0038230E1F3BC
:1013E0008091AE038F3F91F08091AE03803281F007
:1013F0008091AE03803371F084E008952D912193A4
:101400009F5FCFCF85EEE6CF81E0089580E008951D
:1014100082E0089583E00895CF93DF93BC018DEEC1
:1014200092E00E949402EC016CE571E08DEE92E096
:101430000E9494028C0F9D1FDF91CF91089580919F
:10144000A002882311F18130E9F482E08093A002A8
:101450008BEA92E02091A902222351F045EA52E062
:1014600067EA72E00E9495129093A4028093A3020F
:101470008091A3029091A402892B39F01092A902C5
:1014800081E0089580E090E0E5CF80E00895CF937B
:10149000DF93EC010E941F0A882389F06091A30268
:1014A0007091A402CE010E942815892B31F481E0AD
:1014B0008093A902DF91CF91089580E0FBCFFACF0E
:1014C000CF92DF92EF92FF92CF93DF936C01990F4F
:1014D000EE08FF08F7FE23C06DE28DEE92E00E9459
:1014E0008D02EC0144275527BA014C195D096E099C
:1014F0007F092AE08DEE92E00E94A902C80FD91F51
:101500006CE571E08DEE92E00E9494028C0F9D1FBD
:10151000DF91CF91FF90EF90DF90CF9008952AE078
:10152000B701A6018DEE92E00E94A902EC01E8CF7E
:101530000E941F0A882349F081E08093A9028091CC
:10154000A3029091A4020C94631280E090E00895AD
:10155000CF93DF93CDB7DEB728970FB6F894DEBFF1
:101560000FBECDBF98E0E6E4F1E0DE0111960190F8
:101570000D929A95E1F790919C02462F50E0292F09
:1015800030E02417350714F46FEF690F262F30E091
:10159000220F331F41E050E04C0F5D1F240F351F19
:1015A000F9016081680F606840E084E992E0289664
:1015B0000FB6F894DEBF0FBECDBFDF91CF910C9474
:1015C0003006EDEEF2E01382128288EE93E0A0E0A6
:1015D000B0E084839583A683B7838AE391E0918307
:1015E000808385EC90E09587848784EC90E09787F2
:1015F000868780EC90E0918B808B81EC90E0938BE0
:10160000828B82EC90E0958B848B86EC90E0978BBC
:10161000868B118E128E138E148E0895E4E2F2E002
:101620001382128288EE93E0A0E0B0E08483958379
:10163000A683B7838AE291E09183808308950F9314
:101640001F93CF93109297021092960282E291E03C
:10165000909395028093940287E28093980284E1AC
:1016600080939D0284E080939E0210929F028DE001
:10167000809383028AE0809385028CE080938402C9
:1016800010927B0210927C0210927D0210927E02D8
:1016900080E090E0A0E8BFE380937F029093800217
:1016A000A0938102B093820280E880937A0280E066
:1016B00090ECA9E7B4EC8093760290937702A09324
:1016C0007802B09379028093720290937302A09390
:1016D0007402B093750262E082E00E94920462E0BC
:1016E00083E00E949204E8E8F0E0E491F0E0EE0F7D
:1016F000FF1FE458FF4F8591949190935F02809370
:101700005E02ECE9F0E0E491E0936202E9E8F0E0E7
:10171000E491F0E0EE0FFF1FE458FF4F85919491A4
:101720009093610280936002EDE9F0E0E491E09330
:101730006302109265021092660210926702109284
:10174000680280ED97E00E940905E0915E02F09149
:101750005F02908180916202982381E009F480E029
:10176000E0916002F09161029081209163029223E6
:1017700009F082600EE512E0809364021093CF01BD
:101780000093CE0168E279E080E00E943409C1E074
:10179000C09369021093D1010093D0016EE279E009
:1017A00081E00E943409809169028F5F8093690211
:1017B0001092A2021092A10280E28093A7021092DE
:1017C000A80280E48093EB028FE38093EC021092F6
:1017D000AA021092A0021092A4021092A3021092E8
:1017E000A6021092A502C093A9028EE492E0909303
:1017F000EE038093ED0386E592E09093EC038093F3
:10180000EB038AE592E09093F0038093EF0310924C
:101810000904109201041092020410920304109221
:10182000040480E090E0AFE7B3E480930504909374
:101830000604A0930704B093080484E690E0A0E0B7
:10184000B0E08093FD039093FE03A093FF03B09359
:1018500000041092EA031092E90380E090E0A8E40B
:10186000B3E48093D1039093D203A093D303B093B6
:10187000D4031092D5031092D6031092D70310927E
:10188000D8031092D9031092DA031092DB0310925E
:10189000DC038093DD039093DE03A093DF03B0931A
:1018A000E0031092E1031092E2031092E30310921E
:1018B000E4031092E5031092E6031092E7031092FE
:1018C000E8030E944C050091FD031091FE03209156
:1018D000FF0330910004601B710B820B930B60932C
:1018E000F1037093F2038093F3039093F403CF9189
:1018F0001F910F910895CF93DF93CDB7DEB72A974D
:101900000FB6F894DEBF0FBECDBF0E94CE04E091AB
:10191000FD02F091FE0282E08083E091F902F091F5
:10192000FA021082E091FB02F091FC0280E18083D8
:1019300010920503E0910103F091020386E0808399
:10194000E091FF02F0910003808180618083E0914B
:10195000FF02F0910003808188608083E091FF02A4
:10196000F0910003808180688083E091FF02F09114
:10197000000380818F7D80831092230210922202C7
:1019800010922102109220020E9468071092990280
:1019900080919E02282F30E0223031051CF098E023
:1019A0009093990280939C0262E370E080E090E063
:1019B0000E94140560919F0284E992E00E94F00564
:1019C00068EE73E080E090E00E94140560E384E933
:1019D00092E00E94140684E991E10E94090560E307
:1019E00084E992E00E94140684E991E10E940905CD
:1019F00060E384E992E00E94140686E990E00E9488
:101A0000090560E284E992E00E941406609199025F
:101A1000606240E084E992E00E94300684E08093B6
:101A20009A0240E06CE084E992E00E94300640E0D7
:101A300061E084E992E00E94300680ED97E00E9428
:101A4000090582E080939B0240E066E084E992E031
:101A50000E94300640E062E084E992E00E94300695
:101A600080ED97E00E94090588E080939F0260E086
:101A700084E992E00E94F00560E0809185020E9476
:101A8000920460E0809185020E94640461E080918C
:101A900083020E94920460E0809184020E9492047A
:101AA00061E080E10E94920460E080E10E946404B1
:101AB00061E087E00E94920461E086E00E94920467
:101AC00060E089E00E94920460E088E00E94920455
:101AD00081EE97E09093A2028093A1020E944C05B0
:101AE00060938A0270938B0280938C0290938D0294
:101AF0000E944C056093860270938702809388024F
:101B00009093890280E090E0A0E7B1E480935A02CC
:101B100090935B02A0935C02B0935D02109201046B
:101B2000109202041092030410920404812C912C50
:101B30004AEFA42E44E4B42E809205049092060449
:101B4000A0920704B092080480910904882309F444
:101B500057C00091ED031091EE03D801CD90DD90B8
:101B6000ED90FC90A5019401C701B6010E94F61406
:101B7000181634F5F80180829182A282B382809097
:101B8000F5039090F603A090F703B090F803C0908F
:101B90000504D0900604E0900704F0900804A70123
:101BA0009601C501B4010E94F6141816CCF4C09237
:101BB000F503D092F603E092F703F092F80320C009
:101BC00020E030E0A901C701B6010E94C41287FFDE
:101BD000D6CFD8011D921D921D921C921397CFCF84
:101BE000C0900104D0900204E0900304F09004043B
:101BF000A7019601C501B4010E94C41287FDD7CF89
:101C00006091FD037091FE038091FF0390910004A9
:101C10000E94C9129B01AC0160E070E08AE794E485
:101C20000E9455146B017C019B01AC016091E103A2
:101C30007091E2038091E3039091E4030E942A13E0
:101C40006093E1037093E2038093E3039093E403D2
:101C5000A70196016091E5037091E6038091E70387
:101C60009091E8030E9455146093E5037093E60396
:101C70008093E7039093E80388EE93E0A0E0B0E060
:101C80008093FD039093FE03A093FF03B0930004A1
:101C900080E090E00E94500936E0232E33243394F4
:101CA00088E00E943B0421E0892B09F420E0209386
:101CB000930289E00E943B0421E0892B09F420E093
:101CC0002093920261E0809185020E94920410E2CA
:101CD000C12CD12C7601CC0CDD1CEE1CFF1C60E06D
:101CE000809183020E946404809184020E943B04DC
:101CF000892B29F0BFEFCB1ADB0AEB0AFB0A61E064
:101D0000809183020E946404115029F760E0809161
:101D100085020E9492041C2D177010937A024601CE
:101D2000570194E0B694A794979487949A95D1F725
:101D3000C501B4017770882799270E94C91220E055
:101D400030E040E85DE30E942A1393FC67C3609390
:101D5000720270937302809374029093750282E111
:101D6000F694E794D794C7948A95D1F7C701B60142
:101D70007F71882799270E94C91220E030E040E84F
:101D80005EE30E942A13D5FC50C3609376027093E1
:101D900077028093780290937902C0907B02D09072
:101DA0007C02E0907D02F0907E0220E030E0A9010C
:101DB000C701B6010E94C4128823A1F0A7019601B1
:101DC0006091760270917702809178029091790209
:101DD0000E94E913609376027093770280937802F1
:101DE00090937902112351F06BEB71E08DEE92E04C
:101DF0000E94E103812F90E00E94600A20917F02FF
:101E0000309180024091810250918202609176026D
:101E10007091770280917802909179020E942A1342
:101E200060936E0270936F028093700290937102C0
:101E30008091720290917302A0917402B091750228
:101E400080936A0290936B02A0936C02B0936D0230
:101E50008091690290E002970CF0EEC2F8948EE552
:101E600092E00E94E6088091650290916602A0913E
:101E70006702B0916802789440918E0250918F026F
:101E80006091900270919102481759076A077B0789
:101E900041F080938E0290938F02A0939002B093B2
:101EA00091028091930281110EC0809119018823C3
:101EB00051F087E00E943B0461E0892B09F060E06B
:101EC00087E00E94640480919202811132C0809167
:101ED0001801882371F160918E0270918F028091B8
:101EE0009002909191020E94CB1220E030E040E8F5
:101EF0005DE30E942A139B01AC0160915A0270912C
:101F00005B0280915C0290915D020E94E9136093F4
:101F10005A0270935B0280935C0290935D02F89486
:101F20001092650210926602109267021092680287
:101F3000789480919302809319018091920280930A
:101F4000180180916E0290916F02A0917002B09181
:101F500071028093560290935702A0935802B09357
:101F6000590280910904882309F4E8C00E944C05B5
:101F700069837A838B839C838091F1039091F20330
:101F8000A091F303B091F40349815A816B817C8164
:101F9000481B590B6A0B7B0B8091FD039091FE034C
:101FA000A091FF03B0910004481759076A077B0707
:101FB00008F4C4C0E091EB03F091EC0380809180C1
:101FC000A280B380E091EF03F091F003A5019401AA
:101FD00060817181828193810E94E8132B013C0111
:101FE0002091E1033091E2034091E3035091E40337
:101FF0000E942A132091F5033091F6034091F703D4
:102000005091F8030E94E9136B017C016093F50382
:102010007093F6038093F7039093F80300910504FF
:1020200010910604E0910704EA87F0910804F9870B
:102030009801AF010E94F61418160CF0FFC1C801F8
:10204000AA85B9858093F5039093F603A093F703CF
:10205000B093F8032091DD033091DE034091DF035C
:102060005091E003C301B2010E942A132091F503AD
:102070003091F6034091F7035091F8030E94E91361
:102080006B017C012091F9033091FA034091FB032D
:102090005091FC03C501B4010E94E8132091E503AF
:1020A0003091E6034091E7035091E8030E942A1320
:1020B0009B01AC01C701B6010E94E8136B017C01D2
:1020C0009B01AC01B8018A8599850E94C41287FDE5
:1020D00016C00091010410910204909103049A87A4
:1020E000A0910404A9879801492F5A2FB601C7016E
:1020F0000E94C41287FD03C08601EA86F986E0913A
:10210000ED03F091EE03C801AA85B9858083918320
:10211000A283B3838092F9039092FA03A092FB0307
:10212000B092FC0329813A814B815C812093F103B9
:102130003093F2034093F3035093F40380915402DD
:1021400090915502019781F460915202709153026F
:1021500080E090E00E94C91260934E0270934F029B
:1021600080935002909351020E944C056B017C01B8
:1021700080918A0290918B02A0918C02B0918D0285
:10218000B701A601481B590B6A0B7B0B413D574019
:102190006105710560F08053984FAF4FBF4F80933A
:1021A0008A0290938B02A0938C02B0938D0280914F
:1021B000860290918702A0918802B0918902A701BE
:1021C0009601281B390B4A0B5B0BDA01C901853FCD
:1021D0009140A105B10508F4C5C00E94860740E002
:1021E00061E084E992E00E94300680ED97E00E9471
:1021F000090560E082E00E94A80A40916E025091B9
:102200006F02609170027091710222E084E992E0A5
:102210000E94F50260E08AE00E94A80A80915402C0
:1022200090915502289EB001299E700D1124605096
:102230007F4F84E992E00E94E10361E080E00E9428
:10224000A80A8091540290915502892B31F460E3E1
:1022500072E084E992E00E94E1038091540290913F
:102260005502029739F563EC71E084E992E00E942F
:10227000E10360918E0270918F02809190029091A3
:1022800091020E94CB1220E030E040E85DE30E9422
:102290002A1320915A0230915B0240915C025091C6
:1022A0005D020E94E913AB01BC0122E084E992E0E7
:1022B0000E94F5028091540290915502039739F5DE
:1022C00063EC71E084E992E00E94E10360918E0288
:1022D00070918F0280919002909191020E94CB1296
:1022E00020E030E040E85DE30E942A1320915A028A
:1022F00030915B0240915C0250915D020E94E913B3
:10230000AB01BC0122E084E992E00E94F5028091D9
:10231000540290915502019789F468EC71E084E9C8
:1023200092E00E94E103409152025091530260E01A
:1023300070E02AE084E992E00E94A902809186027E
:1023400090918702A0918802B09189028C509E4F93
:10235000AF4FBF4F8093860290938702A09388026D
:10236000B093890280918A0290918B02A0918C0295
:10237000B0918D02A7019601281B390B4A0B5B0B0C
:10238000CA01B9010E94C91220914E0230914F0238
:1023900040915002509151020E94F61418160CF010
:1023A00064C060E080E10E9464048DEE92E00E94CF
:1023B000D700892B09F479C08DEE92E00E94B50018
:1023C0001092A00218161906ECF48A309105D1F08B
:1023D000E091AA028D30910509F049C0F0E0E05685
:1023E000FD4F13861092AA021092A6021092A50227
:1023F0003092A9023092A0024BEA52E05093A4021C
:102400004093A3028091A002813079F6E091A1026D
:10241000F091A202309749F20995C7CF20E030E051
:1024200040E053E40E94E81392CC20E030E040E02A
:1024300055E40E94E813A9CCF89415CD209101042D
:102440003091020440910304509104042D833E8393
:102450004F835887C701B6010E94C41287FFFACD87
:102460008D819E81AF81B885EDCD61E09BCFAE2F90
:10247000B0E0A056BD4F1B968C93EF5FE093AA028D
:10248000F0E02091EC0230E0E217F3070CF4BACF51
:102490001092AA021092A4021092A3021092A60215
:1024A0001092A5023092A902ADCF87E791E0892B67
:1024B00009F4F6CB0E947701F3CB0E94E10A0E9457
:1024C0000E0B0C941F0BFC0188279927E89421918F
:1024D0002032E9F3293010F02E30C8F32B3241F0CE
:1024E0002D3239F4689404C00E94BC12820F911DF1
:1024F000219120532A30C0F31EF4909581959F4F6F
:102500000895DC01FB014150504058F049F0019022
:102510000D920020C1F7E61BF70B3197CF0108950C
:102520001C9201900020E9F7F6CFFA01A191B08149
:10253000009719F41097E1F0CD01DC01CD010D9069
:10254000002011F4C00113C0FB012191222319F0D6
:102550002015D9F7F3CFFB012191201519F41E9214
:10256000119606C02223C1F70D900020A1F7D001DB
:10257000FA01A193B08308957AE0979F902D879FE9
:10258000802D910D112408950E94061308F481E016
:102590000895E89409C097FB3EF490958095709556
:1025A00061957F4F8F4F9F4F9923A9F0F92F96E99F
:1025B000BB279395F695879577956795B795F11114
:1025C000F8CFFAF4BB0F11F460FF1BC06F5F7F4FB1
:1025D0008F4F9F4F16C0882311F096E911C07723C3
:1025E00021F09EE8872F762F05C0662371F096E8CC
:1025F000862F70E060E02AF09A95660F771F881F9B
:10260000DAF7880F9695879597F90895990F00083E
:10261000550FAA0BE0E8FEEF16161706E807F907B4
:10262000C0F012161306E407F50798F0621B730B4F
:10263000840B950B39F40A2661F0232B242B252BD0
:1026400021F408950A2609F4A140A6958FEF811D73
:10265000811D08950E943D130C94AE130E94A01397
:1026600038F00E94A71320F0952311F00C949713D3
:102670000C949D1311240C94E2130E94BF1370F369
:10268000959FC1F3950F50E0551F629FF001729F17
:10269000BB27F00DB11D639FAA27F00DB11DAA1F26
:1026A000649F6627B00DA11D661F829F2227B00D73
:1026B000A11D621F739FB00DA11D621F839FA00DFE
:1026C000611D221F749F3327A00D611D231F849F4E
:1026D000600D211D822F762F6A2F11249F575040A5
:1026E0009AF0F1F088234AF0EE0FFF1FBB1F661F20
:1026F000771F881F91505040A9F79E3F510580F0E9
:102700000C9497130C94E2135F3FE4F3983ED4F3D8
:10271000869577956795B795F795E7959F5FC1F78C
:10272000FE2B880F911D9695879597F9089597F937
:102730009F6780E870E060E008959FEF80EC089567
:1027400000240A9416161706180609060895002490
:102750000A9412161306140605060895092E03940A
:10276000000C11F4882352F0BB0F40F4BF2B11F47E
:1027700060FF04C06F5F7F4F8F4F9F4F089557FDDD
:102780009058440F551F59F05F3F71F04795880FDF
:1027900097FB991F61F09F3F79F087950895121676
:1027A00013061406551FF2CF4695F1DF08C0161622
:1027B00017061806991FF1CF8695710561050894D3
:1027C0000895E894BB2766277727CB0197F90895EA
:1027D0005058BB27AA270E9400140C94AE130E94E5
:1027E000A01338F00E94A71320F039F49F3F19F48A
:1027F00026F40C949D130EF4E095E7FB0C949713CC
:10280000E92F0E94BF1358F3BA17620773078407B2
:10281000950720F079F4A6F50C94E1130EF4E095F9
:102820000B2EBA2FA02D0B01B90190010C01CA018A
:10283000A0011124FF27591B99F0593F50F4503E35
:1028400068F11A16F040A22F232F342F4427585F27
:10285000F3CF469537952795A795F0405395C9F73F
:102860007EF41F16BA0B620B730B840BBAF09150F7
:10287000A1F0FF0FBB1F661F771F881FC2F70EC096
:10288000BA0F621F731F841F48F487957795679569
:10289000B795F7959E3F08F0B0CF9395880F08F055
:1028A0009927EE0F9795879508950E9469140C94C7
:1028B000AE130E94A71358F00E94A01340F029F411
:1028C0005F3F29F00C94971351110C94E2130C9470
:1028D0009D130E94BF1368F39923B1F3552391F31D
:1028E000951B550BBB27AA2762177307840738F07F
:1028F0009F5F5F4F220F331F441FAA1FA9F335D0DC
:102900000E2E3AF0E0E832D091505040E695001C8F
:10291000CAF72BD0FE2F29D0660F771F881FBB1F49
:10292000261737074807AB07B0E809F0BB0B802D27
:10293000BF01FF2793585F4F3AF09E3F510578F053
:102940000C9497130C94E2135F3FE4F3983ED4F396
:10295000869577956795B795F7959F5FC9F7880F27
:10296000911D9695879597F90895E1E0660F771F79
:10297000881FBB1F621773078407BA0720F0621B0A
:10298000730B840BBA0BEE1F88F7E09508950E9435
:10299000C71388F09F5798F0B92F9927B751B0F017
:1029A000E1F0660F771F881F991F1AF0BA95C9F7D3
:1029B00014C0B13091F00E94E113B1E008950C947D
:1029C000E113672F782F8827B85F39F0B93FCCF330
:1029D000869577956795B395D9F73EF49095809550
:1029E000709561957F4F8F4F9F4F08950E940613FA
:1029F00008F48FEF08950E940613880B990B089531
:102A0000A1E21A2EAA1BBB1BFD010DC0AA1FBB1FF2
:102A1000EE1FFF1FA217B307E407F50720F0A21B64
:102A2000B30BE40BF50B661F771F881F991F1A94D1
:102A300069F760957095809590959B01AC01BD01FB
:102A4000CF010895EE0FFF1F0590F491E02D09943A
:102A5000FB01DC018D91019080190110D9F3990BD4
:062A60000895F894FFCF79
:102A660049444C452000504F57455200504F494E5F
:102A7600540050524F4752000101CF01CF010000D0
:102A8600000047068C00000000005C022F022702AF
:102A9600140203020202000000000E018C00D7009F
:102AA600B500C90055010000400014005400696ECD
:102AB60066006F7666006E616E002C000D0A00528D
:102AC6004553455400706F696E7400536574706F9A
:102AD600696E74203A00706F77657200506F776583
:102AE60072203A006D6F64650074656D70007374D2
:102AF600617475730068656C7000706F776572201D
:102B06003C7077723E006D6F6465203C6D6F646546
:102B16003E0062756C6C7368697400737461743A14
:0E2B26000909005365742000507772200000EA
:00000001FF
