:100000000C9462000C943A090C9413090C948A0025
:100010000C948A000C948A000C948A000C948A0038
:100020000C948A000C948A000C948A000C948A0028
:100030000C948A000C948A000C948A000C948A0018
:100040000C94C9080C948A000C947A070C945407F9
:100050000C948A000C948A000C948A000C948A00F8
:100060000C9433030C948A00000000002400270045
:100070002A0000000000250028002B0000000000DE
:1000800023002600290004040404040404040202DA
:100090000202020203030303030301020408102007
:1000A0004080010204081020010204081020000012
:1000B0000008000201000003040700000000000027
:1000C0000000B01311241FBECFEFD8E0DEBFCDBFBC
:1000D00024E0A6EEB1E001C01D92AD33B207E1F716
:1000E00011E0A0E0B1E0ECE0FDE202C005900D926D
:1000F000A63EB107D9F710E0C2E6D0E004C02197D0
:10010000FE010E947516C136D107C9F70E94D30CB3
:100110000C9484160C94000085ED8093BC008091B3
:10012000BC0084FDFCCF10924603089540910A0262
:10013000262F30E0240F311D21323105DCF42091CF
:1001400046032430C9F4FC0180E090E0861738F0C3
:1001500080910A02680F60930A0280E0089530914E
:100160000A022191DC01A651BE4FA30FB11D2C93B1
:100170000196ECCF81E0089582E0089508954091C2
:10018000300250E020912F0230E081E090E04217F1
:10019000530714F480E090E09195819591090895BA
:1001A00080913002482F50E020912F0230E042171A
:1001B000530734F48F5F8093300280E090E008951D
:1001C0008FEF9FEF089580912F0290E020913002F1
:1001D000821B91090895CF92DF92EF92FF920F93C5
:1001E0001F93CF93DF937C01CB018A012091BC0246
:1001F000222389F0EB016B01C40ED51ECC15DD0561
:1002000069F06991D701ED91FC910190F081E02DA9
:10021000C7010995F3CF642F0E949600C801DF91B2
:10022000CF911F910F91FF90EF90DF90CF900895A5
:10023000CF93DF931F92CDB7DEB769832091BC02C5
:10024000222309F120912D0230E0203231055CF0AB
:1002500021E030E0FC013383228380E090E00F90C6
:10026000DF91CF91089580912E02E82FF0E0E95BB5
:10027000FC4F998190838F5F80932E0280932D0293
:1002800081E090E0ECCF61E0CE0101960E94960003
:10029000F7CFBC0180E090E00E941C1460938202C2
:1002A00070938302809384029093850286E591E0A7
:1002B0000C94850980E090E0A0E2B1E48093820292
:1002C00090938302A0938402B093850280E090E033
:1002D0000E94B40960E080E10E94030810927D0250
:1002E00010927C0208950F931F93CF93DF9311E038
:1002F00006E00E94700A882309F477C187E691E03E
:100300000E94980A882339F060E080E10E94D507B6
:100310000C94001CEECF8DE691E00E94980A882391
:1003200021F10E94E90ABC01990F880B990B0E94E8
:100330001E146093820270938302809384029093D0
:10034000850263E771E080EA93E00E9452074091E2
:10035000820250918302609184027091850222E0B2
:1003600080EA93E00E9466061DC081E891E00E9449
:10037000980A8823F1F00E94E90A90937B02809307
:100380007A0267E871E080EA93E00E9452074091A8
:100390007A0250917B0260E070E02AE080EA93E00C
:1003A0000E941A066EE771E080EA93E00E9405065B
:1003B000A0CF8FE891E00E94980A882309F46EC0CC
:1003C0000E94E90AEC018130910509F458C0CCF48F
:1003D000892B09F44BC0D0937D02C0937C020C9F03
:1003E000B0010D9F700D112460507F4F80EA93E0A3
:1003F0000E94520780917C0290917D020E94B10A76
:1004000078CF8230910509F440C0039721F761E06D
:1004100080E10E940308609196027091970280919A
:100420009802909199020E941A16109263021092FB
:100430006C027093600260935F02109262021092ED
:1004400061020E94BD086093680270936902809304
:100450006A0290936B020E94BD08609364027093DD
:100460006502809366029093670213C080E090E07B
:100470000E94B40960E080E10E940308ACCF80E0F4
:1004800090E00E94B40961E0F6CF61E080E10E9453
:10049000030881E090E00E94B4099DCF84E991E0D7
:1004A0000E94980A882371F0409196025091970219
:1004B000609198027091990222E080EA93E00E9494
:1004C000660617CF89E991E00E94980A882309F40B
:1004D00051C00E94BD08AB01BC012AE080EA93E054
:1004E0000E941A0660EA71E080EA93E00E945207D7
:1004F0004091760250917702609178027091790272
:1005000022E080EA93E00E94660660EA71E080EAF9
:1005100093E00E94520740918202509183026091C1
:1005200084027091850222E080EA93E00E946606D0
:1005300060EA71E080EA93E00E94520740919202E3
:1005400050919302609194027091950222E080EAAA
:1005500093E00E94660660EA71E080EA93E00E9400
:1005600052074091960250919702609198027091C3
:100570009902F5CE82EA91E00E94980A8823C9F098
:1005800087E691E00E94850987EA91E00E9485094B
:1005900083EB91E00E94850984E991E00E9485093E
:1005A00089E991E00E94850982EA91E00E9485092B
:1005B000A0CE0E94700A8823A9F01093DC026091FB
:1005C000D6027091D7024EE150E08DE392E00E9496
:1005D000D4136FEB71E080EA93E00E9452078DE341
:1005E00092E0E4CF10923D02F4CFDF91CF911F91C2
:1005F0000F9108950F931F93CF938C01C62F0E94E4
:1006000061096C2F6460C8010E94610981E090E07B
:100610000E947A086C2F6B7FC8010E94610982E3F7
:1006200090E0CF911F910F910C947A080F931F9334
:10063000CF93DF938C01D62FC42F607F642B0E9451
:10064000FA0280E1D89FB00111246C2BC801DF9120
:10065000CF911F910F910C94FA0241E00E94160372
:1006600081E090E008951F920F920FB60F9211242F
:100670002F933F934F935F936F937F938F939F93AA
:10068000AF93BF93EF93FF938091B900887F80363B
:1006900009F44AC0F0F5883209F4A5C018F5803194
:1006A00009F499C0B8F4882309F4F5C0883009F436
:1006B00092C0FF91EF91BF91AF919F918F917F91E8
:1006C0006F915F914F913F912F910F900FBE0F90BF
:1006D0001F901895883109F486C0803251F78093B5
:1006E000440314C0803409F49BC040F48033B9F350
:1006F0008833F9F68093440385ECAEC0803509F465
:1007000083C0883509F494C0883499F60E948C001F
:10071000D0CF883909F48AC038F5883729F050F4E9
:10072000883611F0803729F683E0809346031092D3
:100730002C0255C0883809F479C0803919F0803806
:1007400009F0B7CF80912C02803208F06FC0E091A1
:100750002C0281E08E0F80932C028091BB00F0E090
:10076000E45FFD4F80833BC0803B39F0D0F4803A9A
:1007700009F477C0883A09F09CCF84E0809346035F
:1007800010920B0210920A02E0E0F0E009958091CD
:100790000A0281110FC081E080930A021092EA01DF
:1007A00009C0803C09F4A8CF883C09F4A5CF883B58
:1007B00009F07FCFE0910B0281E08E0F80930B0256
:1007C000F0E0E651FE4F80818093BB0090910B02D8
:1007D00080910A0229C0809121038093BB0085EC9F
:1007E0008093BC0066CF9091430380914203981799
:1007F00058F5E091430381E08E0F80934303F0E0CE
:10080000EE5DFC4F8081E9CFE091430381E08E0FE4
:10081000809343038091BB00F0E0EE5DFC4F80834A
:1008200090914303809142039817C8F285E8D8CF8E
:10083000E091430381E08E0F809343038091BB00DE
:10084000F0E0EE5DFC4F80838091450381115ECF27
:1008500081E08093200384EA8093BC0010924603D9
:1008600028CF85EC8093BC001092460380912C0227
:10087000803230F4E0912C02F0E0E45FFD4F108212
:1008800060912C0270E08CE092E0E0E0F0E00995ED
:1008900010922C020ECF1092440338CF10924603D0
:1008A00081E0809345031092200361E082E10E9481
:1008B000D50761E083E10E94D507E9EBF0E0808194
:1008C0008E7F808380818D7F808388E48093B800D1
:1008D00085E48093BC000895DC01ED91FD91808159
:1008E000ED91FD919081ED91FD916C9163708E235E
:1008F00009F064609F2309F06860E9E8F4E0E60F1E
:10090000F11D659565956D936D917D918D919D918D
:10091000099423C01AC012C016C010C01EC009C05E
:1009200014C013C006C019C009C00DC007C00DC057
:1009300014C062507040804090400BC061507040C5
:100940008040904006C06E5F01C06F5F7F4F8F4F49
:100950009F4F9E938E937E936E9308958091E601B0
:100960009091E7010C946C048091E8019091E90169
:100970000C946C04CF92DF92EF92FF920F931F932F
:10098000CF93DF937C016A018B01C0E0D0E0CC15EE
:10099000DD0579F0D8016D918D01D701ED91FC91C4
:1009A0000190F081E02DC7010995892B11F0219666
:1009B000EECFCE01DF91CF911F910F91FF90EF907D
:1009C000DF90CF900895FC01918D828D981761F092
:1009D000828DDF01A80FB11D5D968C91928D9F5F76
:1009E0009F73928F90E008958FEF9FEF0895FC0121
:1009F000918D828D981731F0828DE80FF11D858DD4
:100A000090E008958FEF9FEF0895FC01918D228D66
:100A1000892F90E0805C9F4F821B91098F739927EB
:100A2000089580EA93E00E94050521E0892B09F4EE
:100A300020E0822F0895FC01848DDF01A80FB11DF5
:100A4000A35ABF4F2C91848D90E001968F73992704
:100A5000848FA689B7892C93A089B1898C918064F1
:100A60008C93938D848D981306C00288F389E02DB2
:100A700080818F7D80830895EF92FF920F931F9363
:100A8000CF93DF93EC01F62E81E0888F9B8D8C8DC8
:100A9000981305C0E889F989808185FD2CC00B8DEC
:100AA00010E00F5F1F4F0F731127E02E8C8DE8129F
:100AB0000CC00FB607FCFACFE889F989808185FF61
:100AC000F5CFCE010E941B05F1CF8B8DFE01E80F03
:100AD000F11DE35AFF4FF0820B8FEA89FB89808179
:100AE0008062808381E090E0DF91CF911F910F9130
:100AF000FF90EF900895EE89FF896083E889F98976
:100B000080818064EECFCF93DF93EC01888D8823C2
:100B100051F0EA89FB89808185FD08C0A889B989DF
:100B20008C9186FF03C0DF91CF9108950FB607FC2B
:100B3000F2CF808185FFEFCFE889F989808185FF39
:100B4000E8CFCE010E941B05E4CF80E090E0892B26
:100B500029F00E94110581110C9400000895833042
:100B600081F028F4813099F08230A9F0089587301F
:100B7000A9F08830C9F08430B1F4809180008F7D75
:100B800003C0809180008F7780938000089584B5A2
:100B90008F7784BD089584B58F7DFBCF8091B000A1
:100BA0008F778093B00008958091B0008F7DF9CF4A
:100BB0003FB7F8948091C3029091C402A091C502FE
:100BC000B091C60226B5A89B05C02F3F19F001962B
:100BD000A11DB11D3FBFBA2FA92F982F8827BC0197
:100BE000CD01620F711D811D911D42E0660F771FBF
:100BF000881F991F4A95D1F708950895DC01ED915A
:100C0000FC910190F081E02D09946115710579F056
:100C1000FB0101900020E9F73197AF01461B570B0C
:100C2000DC01ED91FC910280F381E02D099480E0DC
:100C300090E008958F929F92AF92BF92EF92FF92B1
:100C40000F931F93CF93DF93CDB7DEB7A1970FB666
:100C5000F894DEBF0FBECDBF7C01FA01CB0119A213
:100C6000422F50E0423051050CF42AE08E010F5D16
:100C70001F4F822E912CA12CB12CBF01A5019401F4
:100C80000E945316F901CA01015011096A30E4F4B7
:100C9000605DD8016C93232B242B252B71F7B801B1
:100CA000C7010E940506A1960FB6F894DEBF0FBEDD
:100CB000CDBFDF91CF911F910F91FF90EF90BF902B
:100CC000AF909F908F900895695CE3CF5F926F9291
:100CD0007F928F929F92AF92BF92CF92DF92EF92CC
:100CE000FF920F931F93CF93DF93EC016A017B0177
:100CF000522E9A01AB01C701B6010E944E168823FD
:100D000009F492C062EE71E0AAC02FEF3FEF4FE707
:100D10005FE4C701B6010E94491618161CF46EED77
:100D200071E09DC02FEF3FEF4FE75FECC701B601C9
:100D30000E94171487FDF3CF20E030E0A901C7011E
:100D4000B6010E94171487FF1DC06DE2CE010E94FC
:100D5000FE058C01F7FAF094F7F8F094B12C60E0FE
:100D600070E080E09FE3652C712C2B2D30E0261580
:100D700037055CF420E030E040E251E40E94A81521
:100D8000B394F3CF00E010E0E9CFA70196010E94F1
:100D90003C156B017C010E941A164B015C012AE094
:100DA000AB01BC01CE010E941A06080F191F67286B
:100DB00009F467C0C501B4010E941C149B01AC0179
:100DC000C701B6010E943B156B017C016EE2CE01AA
:100DD0000E94FE05080F191F552009F452C020E09B
:100DE00030E040E251E4C701B6010E947D144B019E
:100DF0005C010E941A166B01E12CF12C2AE0B7016C
:100E0000A601CE010E941A06080F191FC701B601DC
:100E10000E941C149B01AC01C501B4010E943B154A
:100E20006B017C015A94D8CF46015701E894B7F87A
:100E30002FEF3FEF4FE75FE7C501B4010E944E1669
:100E4000811163CF2FEF3FEF4FE75FE7C501B4019B
:100E50000E94171418160CF058CF6AED71E0CE01FD
:100E6000DF91CF911F910F91FF90EF90DF90CF9086
:100E7000BF90AF909F908F907F906F905F900C94F9
:100E80000506C801DF91CF911F910F91FF90EF9060
:100E9000DF90CF90BF90AF909F908F907F906F909A
:100EA0005F9008950C9405061F920F920FB60F9253
:100EB00011242F933F934F935F936F937F938F935F
:100EC0009F93AF93BF93EF93FF9380EA93E00E94C9
:100ED0001B05FF91EF91BF91AF919F918F917F91F2
:100EE0006F915F914F913F912F910F900FBE0F9097
:100EF0001F9018951F920F920FB60F9211242F93E7
:100F00008F939F93EF93FF93E091B003F091B10320
:100F10008081E091B603F091B70382FD1BC0908100
:100F20008091B9038F5F8F732091BA03821741F0CC
:100F3000E091B903F0E0E056FC4F958F8093B90340
:100F4000FF91EF919F918F912F910F900FBE0F9076
:100F50001F9018958081F4CFCF93DF93282F30E036
:100F6000F901E255FF4F8491F901E656FF4FD49104
:100F7000F901EA57FF4FC491CC23A1F081110E94DF
:100F8000AF05EC2FF0E0EE0FFF1FE458FF4FA591E7
:100F9000B491EC91ED2381E090E009F480E0DF91E1
:100FA000CF91089580E090E0FACF1F93CF93DF9325
:100FB000162F282F30E0F901E255FF4F8491F901F7
:100FC000E656FF4FD491F901EA57FF4FC491CC2365
:100FD000A1F081110E94AF05EC2FF0E0EE0FFF1F92
:100FE000EE58FF4FA591B4918FB7F894EC91111181
:100FF00008C0D095DE23DC938FBFDF91CF911F9186
:101000000895DE2BF8CFCF93DF9390E0FC01E656F6
:10101000FF4F24918A579F4FFC0184918823C9F088
:1010200090E0880F991FFC01E859FF4FA591B491FA
:10103000FC01EE58FF4FC591D49161110DC09FB7CF
:10104000F8948C91209582238C938881282328837F
:101050009FBFDF91CF910895623051F49FB7F8940C
:101060003C91822F809583238C93E8812E2BEFCFA8
:101070008FB7F894EC912E2B2C938FBFEACF7894F6
:1010800084B5826084BD84B5816084BD85B582608D
:1010900085BD85B5816085BDEEE6F0E0808181602B
:1010A0008083E1E8F0E0108280818260808380812B
:1010B00081608083E0E8F0E0808181608083E1EB03
:1010C000F0E0808184608083E0EBF0E080818160EB
:1010D0008083EAE7F0E080818460808380818260A1
:1010E000808380818160808380818068808310928A
:1010F000C10008958230910538F0880F991F880F3C
:10110000991F05970197F1F708958F929F92AF92DB
:10111000BF92CF92DF92EF92FF926B017C010E940F
:10112000D8054B015C01C114D104E104F104C9F4F8
:10113000FF90EF90DF90CF90BF90AF909F908F90F7
:10114000089521E0C21AD108E108F10888EE880E5E
:1011500083E0981EA11CB11CC114D104E104F10468
:1011600011F30E94D805681979098A099B09683E1C
:1011700073408105910528F7D6CF2FB7F894609179
:10118000BF027091C0028091C1029091C2022FBF34
:1011900008951F920F920FB60F9211242F933F9331
:1011A0008F939F93AF93BF938091BF029091C002A2
:1011B000A091C102B091C2023091BE0223E0230F80
:1011C0002D3758F50196A11DB11D2093BE028093C5
:1011D000BF029093C002A093C102B093C20280915B
:1011E000C3029091C402A091C502B091C6020196BB
:1011F000A11DB11D8093C3029093C402A093C502A8
:10120000B093C602BF91AF919F918F913F912F9163
:101210000F900FBE0F901F90189526E8230F02968F
:10122000A11DB11DD2CF1F920F920FB60F921124A4
:101230002F933F934F935F936F937F938F939F93DE
:10124000AF93BF93EF93FF93E0911C01F0911D01C9
:101250000995FF91EF91BF91AF919F918F917F91F0
:101260006F915F914F913F912F910F900FBE0F9013
:101270001F9018951F920F920FB60F9211242F9363
:101280003F934F935F936F937F938F939F93AF930E
:10129000BF93EF93FF93E0911A01F0911B01099521
:1012A000FF91EF91BF91AF919F918F917F916F913E
:1012B0005F914F913F912F910F900FBE0F901F9014
:1012C0001895FC01248131E03093BC022093BD02CB
:1012D00010922E0210922D028385682BE09131022C
:1012E000F09132020190F081E02D81E392E00995C6
:1012F00060912D028091BD020E941C0A10922E0264
:1013000010922D021092BC020895CF93DF93BC017E
:1013100080EA93E00E940506EC016EE771E080EA46
:1013200093E00E9405068C0F9D1FDF91CF910895D9
:101330008230C8F4E82FF0E0EE0FFF1FE65EFE4FAC
:1013400071836083813041F0809169008C7F81607E
:1013500080936900E89A089580916900837F846092
:1013600080936900E99A08958F929F92AF92BF92FD
:10137000CF92DF92EF92FF92CF93C1E0019709F0F5
:10138000C0E080919F0391E08927C81349C0E09194
:101390008303F0918403C080D180E280F380C09207
:1013A0008B03D0928C03E0928D03F0928E03E09138
:1013B0008103F091820380819181A281B381809326
:1013C0008F0390939003A0939103B0939203809026
:1013D0009B0390909C03A0909D03B0909E03A50159
:1013E0009401C701B6010E94491618164CF4809268
:1013F0008B0390928C03A0928D03B0928E0310C049
:101400008090970390909803A0909903B0909A03CE
:10141000A5019401C701B6010E94171487FDE7CF0B
:10142000C0939F03CF91FF90EF90DF90CF90BF903C
:10143000AF909F908F900895613208F049C09091CD
:1014400046039111FCCF92E09093460391E0909374
:1014500045039FEF9093440310924303609342032C
:10146000A7E4B3E0E2E2F3E090E069132BC010924E
:10147000210390912103880F892B80932103809170
:101480002003813019F5109220038091210380936D
:10149000BB008091BC0083FDF8CF85EC8093BC003D
:1014A000809146038230E1F3809144038F3F91F0B5
:1014B00080914403803281F080914403803371F045
:1014C00084E008952D9121939F5FCFCF85EEE6CFE5
:1014D00081E0089580E0089582E0089583E0089512
:1014E0008091D302882311F18130E9F482E0809366
:1014F000D3028EED92E02091DC02222351F048EDE0
:1015000052E06AED72E00E94E8139093D702809354
:10151000D6028091D6029091D702892B39F0109291
:10152000DC0281E0089580E090E0E5CF80E008955E
:10153000CF93DF93EC010E94700A882389F06091B9
:10154000D6027091D702CE010E947B16892B31F40E
:1015500081E08093DC02DF91CF91089580E0FBCFA2
:10156000FACFCF92DF92EF92FF92CF93DF936C018D
:10157000990FEE08FF08F7FE23C06DE280EA93E0C2
:101580000E94FE05EC0144275527BA014C195D095C
:101590006E097F092AE080EA93E00E941A06C80FCC
:1015A000D91F6EE771E080EA93E00E9405068C0F78
:1015B0009D1FDF91CF91FF90EF90DF90CF90089526
:1015C0002AE0B701A60180EA93E00E941A06EC0126
:1015D000E8CF0E94700A882349F081E08093DC0202
:1015E0008091D6029091D7020C94B61380E090E0DF
:1015F0000895CF93DF93CDB7DEB728970FB6F89451
:10160000DEBF0FBECDBF98E0EEE4F1E0DE01119643
:1016100001900D929A95E1F79091CF02462F50E0FC
:10162000292F30E02417350714F46FEF690F262FA8
:1016300030E0220F331F41E050E04C0F5D1F240FBC
:10164000351FF9016081680F606840E087EC92E027
:1016500028960FB6F894DEBF0FBECDBFDF91CF91B5
:101660000C941603E1E3F2E01382128288EE93E019
:10167000A0E0B0E084839583A683B78382E391E002
:101680009183808308950F931F93CF931092CA0282
:101690001092C9028AE291E09093C8028093C70237
:1016A00087E28093CB0284E18093D00284E0809330
:1016B000D1021092D2028DE08093AB028AE0809337
:1016C000AD028CE08093AC021092A3021092A402AF
:1016D0001092A5021092A60280E090E0A0E8BFE37D
:1016E0008093A7029093A802A093A902B093AA02A4
:1016F00080E88093A20280E090ECA9E7B4EC8093AC
:101700009E0290939F02A093A002B093A1028093A7
:101710009A0290939B02A0939C02B0939D0262E078
:1017200082E00E94030862E083E00E940308E8E888
:10173000F0E0E491F0E0EE0FFF1FE458FF4F8591D9
:1017400094919093870280938602ECE9F0E0E49113
:10175000E0938A02E9E8F0E0E491F0E0EE0FFF1F89
:10176000E458FF4F85919491909389028093880269
:10177000EDE9F0E0E491E0938B0210928D0210927B
:101780008E0210928F021092900280ED97E00E94DC
:101790007A08E0918602F0918702908180918A0216
:1017A000982381E009F480E0E0918802F0918902B9
:1017B000908120918B02922309F0826006E812E06A
:1017C00080938C021093E7010093E6016EEA74E0C7
:1017D00080E00E949809C1E0C09391021093E90152
:1017E0000093E80164EB74E081E00E949809809125
:1017F00091028F5F809391021092D5021092D402D1
:1018000080E28093DA021092DB0280E480931E0370
:101810008FE380931F031092DD021092D302109287
:10182000D7021092D6021092D9021092D802C09319
:10183000DC021092600210925F021092620210921B
:1018400061028FEF8093630210926402109265022E
:10185000109266021092670210926802109269025A
:1018600010926A0210926B0210926C0288E0EEE114
:10187000F1E0ADE6B2E001900D928A95E1F7C093F8
:10188000750289E491E090935C0280935B028AE5A3
:1018900091E090935E0280935D0286E792E09093E0
:1018A0008403809383038EE792E090938203809376
:1018B000810382E892E090938603809385031092DF
:1018C0009F0310929703109298031092990310921D
:1018D0009A0380E090E0AFE7B3E480939B0390939A
:1018E0009C03A0939D03B0939E0384E690E0A0E048
:1018F000B0E08093930390939403A0939503B093E7
:1019000096031092800310927F0380E090E0A0E2A3
:10191000B2E48093670390936803A0936903B09344
:101920006A0310926B0310926C0310926D03109275
:101930006E0310926F031092700310927103109255
:1019400072038093730390937403A0937503B09311
:101950007603109277031092780310927903109215
:101960007A0310927B0310927C0310927D031092F5
:101970007E030E94BD08009193031091940320916F
:10198000950330919603601B710B820B930B609350
:101990008703709388038093890390938A03CF9180
:1019A0001F910F910895CF93DF93CDB7DEB72A979C
:1019B0000FB6F894DEBF0FBECDBF0E943F08E09186
:1019C000B003F091B10382E08083E091AC03F09129
:1019D000AD031082E091AE03F091AF0380E180830C
:1019E0001092B803E091B403F091B50386E08083D0
:1019F000E091B203F091B303808180618083E09134
:101A0000B203F091B303808188608083E091B203D8
:101A1000F091B303808180688083E091B203F091FC
:101A2000B30380818F7D80831092300210922F0249
:101A300010922E0210922D020E944E041092CC029F
:101A40008091D102282F30E0223031051CF098E03F
:101A50009093CC028093CF0262E370E080E090E04C
:101A60000E9485086091D20287EC92E00E94610991
:101A700068EE73E080E090E00E94850860E387EC08
:101A800092E00E94FA0284E991E10E947A0860E300
:101A900087EC92E00E94FA0284E991E10E947A08C0
:101AA00060E387EC92E00E94FA0286E990E00E94EF
:101AB0007A0860E287EC92E00E94FA026091CC0220
:101AC000606240E087EC92E00E94160384E080931D
:101AD000CD0240E06CE087EC92E00E94160340E00B
:101AE00061E087EC92E00E94160380ED97E00E948F
:101AF0007A0882E08093CE0240E066E087EC92E0D4
:101B00000E94160340E062E087EC92E00E94160318
:101B100080ED97E00E947A0888E08093D20260E02E
:101B200087EC92E00E94610960E08091AD020E9422
:101B3000030860E08091AD020E94D50761E08091CA
:101B4000AB020E94030860E08091AC020E9403088F
:101B500061E080E10E94030860E080E10E94D50717
:101B600061E087E00E94030861E086E00E940308CC
:101B700060E089E00E94030860E088E00E940308BA
:101B800083E791E09093D5028093D4020E94BD0830
:101B90006093B2027093B3028093B4029093B50243
:101BA0000E94BD086093AE027093AF028093B002B2
:101BB0009093B10280E090E0A0E7B1E480938202CC
:101BC00090938302A0938402B093850210929703AE
:101BD000109298031092990310929A03812C912CE1
:101BE0005AEFA52E54E4B52E80929B0390929C034D
:101BF000A0929D03B0929E0380919F03882309F4D5
:101C000057C00091830310918403D801CD90DD90DB
:101C1000ED90FC90A5019401C701B6010E94491600
:101C2000181634F5F80180829182A282B3828090E6
:101C30008B0390908C03A0908D03B0908E03C09086
:101C40009B03D0909C03E0909D03F0909E03A7011E
:101C50009601C501B4010E9449161816CCF4C09231
:101C60008B03D0928C03E0928D03F0928E0320C000
:101C700020E030E0A901C701B6010E94171487FFD8
:101C8000D6CFD8011D921D921D921C921397CFCFD3
:101C9000C0909703D0909803E0909903F0909A0336
:101CA000A7019601C501B4010E94171487FDD7CF83
:101CB00060919303709194038091950390919603A2
:101CC0000E941C149B01AC0160E070E08AE794E480
:101CD0000E94A8156B017C019B01AC016091770308
:101CE000709178038091790390917A030E947D141A
:101CF00060937703709378038093790390937A03CA
:101D0000A701960160917B0370917C0380917D0314
:101D100090917E030E94A81560937B0370937C03CF
:101D200080937D0390937E0388EE93E0A0E0B0E083
:101D30008093930390939403A0939503B093960399
:101D400080E090E00E94B40946E0242E33243394CE
:101D500088E00E94AC0721E0892B09F420E0209361
:101D6000BB0289E00E94AC0721E0892B09F420E046
:101D70002093BA0261E08091AD020E94030810E254
:101D8000C12CD12C7601CC0CDD1CEE1CFF1C60E0BC
:101D90008091AB020E94D5078091AC020E94AC07F3
:101DA000892B29F0BFEFCB1ADB0AEB0AFB0A61E0B3
:101DB0008091AB020E94D507115029F760E0809115
:101DC000AD020E9403081C2D17701093A202460159
:101DD000570124E0B694A794979487942A95D1F755
:101DE000C501B4017770882799270E941C1420E050
:101DF00030E040E85DE30E947D1493FC4EC36093A5
:101E00009A0270939B0280939C0290939D0292E1B0
:101E1000F694E794D794C7949A95D1F7C701B60181
:101E20007F71882799270E941C1420E030E040E849
:101E30005EE30E947D14D5FC37C360939E027093CD
:101E40009F028093A0029093A102C090A302D09021
:101E5000A402E090A502F090A60220E030E0A901E3
:101E6000C701B6010E9417148823A1F0A7019601AB
:101E700060919E0270919F028091A0029091A102B8
:101E80000E943C1560939E0270939F028093A00273
:101E90009093A102112351F068EC71E080EA93E085
:101EA0000E945207812F90E00E94B10A2091A70260
:101EB0003091A8024091A9025091AA0260919E021D
:101EC00070919F028091A0029091A1020E947D14C6
:101ED0006093960270939702809398029093990270
:101EE00080919A0290919B02A0919C02B0919D02D8
:101EF0008093920290939302A0939402B0939502E0
:101F00008091910290E002970CF0D5C2F89486E897
:101F100092E00E946C0480918D0290918E02A091BB
:101F20008F02B091900278944091B6025091B7021E
:101F30006091B8027091B902481759076A077B0788
:101F400041F08093B6029093B702A093B802B09389
:101F5000B9028091BB0281110EC0809119018823C2
:101F600051F087E00E94AC0761E0892B09F060E046
:101F700087E00E94D5078091BA02811132C080911A
:101F80001801882371F16091B6027091B7028091B7
:101F9000B8029091B9020E941E1420E030E040E89F
:101FA0005DE30E947D149B01AC01609182027091FF
:101FB000830280918402909185020E943C15609377
:101FC0008202709383028093840290938502F89436
:101FD00010928D0210928E0210928F021092900237
:101FE00078948091BB02809319018091BA0280930A
:101FF00018018091960290919702A0919802B09159
:10200000990280937E0290937F02A0938002B09306
:10201000810280919F03882309F4F3C00E94BD08C8
:1020200069837A838B839C83809187039091880353
:10203000A0918903B0918A0349815A816B817C8187
:10204000481B590B6A0B7B0B80919303909194036F
:10205000A0919503B0919603481759076A077B072B
:1020600008F4CFC0E0918103F091820380809180D9
:10207000A280B380E0918503F0918603A5019401CD
:1020800060817181828193810E943B156D837E8383
:102090008F8398872091770330917803409179035B
:1020A00050917A030E947D1420918B0330918C0310
:1020B00040918D0350918E030E943C156B017C0171
:1020C00060938B0370938C0380938D0390938E03A6
:1020D00010919B03E0919C03EA8700919D03F0918E
:1020E0009E03F987212F3E2F402F5F2F0E94491614
:1020F00018160CF0E2C1812F9A85A02FB985809324
:102100008B0390938C03A0938D03B0938E03209147
:1021100073033091740340917503509176036D8180
:102120007E818F8198850E947D1420918B03309150
:102130008C0340918D0350918E030E943C156B01DE
:102140007C0120918F033091900340919103509135
:102150009203C501B4010E943B1520917B0330918D
:102160007C0340917D0350917E030E947D149B016E
:10217000AC01C701B6010E943B156B017C019B01BC
:10218000AC01612F7A85802F99850E94171487FDF5
:1021900018C010919703209198032A870091990302
:1021A00030919A033987212F3A85402F5985B601FE
:1021B000C7010E94171487FD04C01C2DDA860E2D5E
:1021C000F986E0918303F0918403812F9A85A02FF3
:1021D000B98580839183A283B38380928F03909289
:1021E0009003A0929103B092920389819A81AB816E
:1021F000BC818093870390938803A0938903B09355
:102200008A0380917C0290917D02019781F4609114
:102210007A0270917B0280E090E00E941C1460932F
:1022200076027093770280937802909379020E94ED
:10223000BD086B017C018091B2029091B302A09124
:10224000B402B091B502A7019601281B390B4A0BC5
:102250005B0BDA01C901813D9740A105B10540F052
:10226000C092B202D092B302E092B402F092B502F0
:102270008091AE029091AF02A091B002B091B102F4
:10228000A7019601281B390B4A0B5B0BDA01C90128
:10229000853F9140A105B10508F4A3C040E061E08D
:1022A00087EC92E00E94160380ED97E00E947A0886
:1022B00060E082E00E94F90A4091960250919702F4
:1022C000609198027091990222E087EC92E00E945E
:1022D000660660E08AE00E94F90A80917C02909193
:1022E0007D02289EB001299E700D112460507F4F01
:1022F00087EC92E00E94520761E080E00E94F90AB8
:1023000080917C0290917D02892B31F46DE372E023
:1023100087EC92E00E94520780917C0290917D02AE
:10232000029739F560ED71E087EC92E00E94520768
:102330006091B6027091B7028091B8029091B90293
:102340000E941E1420E030E040E85DE30E947D140E
:102350002091820230918302409184025091850243
:102360000E943C15AB01BC0122E087EC92E00E9488
:10237000660680917C0290917D02039799F460ED4E
:1023800071E087EC92E00E945207409182025091E6
:102390008302609184027091850222E087EC92E0D2
:1023A0000E94660680917C0290917D02019789F4DB
:1023B00065ED71E087EC92E00E94520740917A024D
:1023C00050917B0260E070E02AE087EC92E00E948E
:1023D0001A06C092AE02D092AF02E092B002F09222
:1023E000B1028091B2029091B302A091B402B09177
:1023F000B502A7019601281B390B4A0B5B0BCA01DA
:10240000B9010E941C14209176023091770240910C
:102410007802509179020E94491618160CF066C095
:1024200060E080E10E94D50780EA93E00E94050504
:10243000892B09F47BC080EA93E00E94E3041092A8
:10244000D30218161906ECF48A309105D1F0E09108
:10245000DD028D30910509F04BC0F0E0ED52FD4FEB
:1024600013861092DD021092D9021092D802309297
:10247000DC023092D3024EED52E05093D7024093EB
:10248000D6028091D302813079F6E091D402F091A6
:10249000D502309749F20995C7CF20E030E040E0FF
:1024A00053E40E943B15ABCC20E030E040E055E423
:1024B0000E943B15C2CCF8942ECD409097035090CB
:1024C00098036090990370909A03A3019201C70149
:1024D000B6010E94171487FF1ACE40928B035092C8
:1024E0008C0360928D0370928E0311CE61E099CFC0
:1024F000AE2FB0E0AD52BD4F1B968C93EF5FE093D3
:10250000DD02F0E020911F0330E0E217F3070CF446
:10251000B8CF1092DD021092D7021092D60210921C
:10252000D9021092D8023092DC02ABCF60919602B1
:102530007091970280919802909199020E941A16C8
:102540004B015C018B0180916C02811168C080910C
:10255000610290916202019709F061C00E94BD087A
:10256000F0906302CF2CD12C409068025090690209
:1025700060906A0270906B02641975098609970968
:1025800020E63AEE40E050E00E945316F60183E068
:10259000EE0FFF1F8A95E1F7ED58FD4F8081918185
:1025A000A0E0B0E082179307A407B507C0F55FEF7E
:1025B000C51AD50A8091750290E0C816D90604F5AF
:1025C000F394F09263029092600280925F02109204
:1025D0006202109261020E94BD08609368027093CB
:1025E000690280936A0290936B020E94BD08609317
:1025F000640270936502809366029093670207C03D
:1026000030926C02E0915D02F0915E02099545EA1C
:1026100055E0452B09F49CCB0E94A50599CB8091F0
:10262000610290916202892B91F70E94BD08C090CF
:102630006402D0906502E0906602F09067026C1927
:102640007D098E099F09693E734081059105F8F265
:10265000E0916302B8E0EB9FF0011124E55AFD4FD1
:10266000868997890817190788F0E1E0F0E0F09370
:102670006202E09361020E94BD0860936802709359
:10268000690280936A0290936B02C1CF60915F02EE
:102690007091600280E090E00E941C146B017C014C
:1026A0000E94BD08009168021091690220916A029F
:1026B00030916B02601B710B820B930B20E63AEE9C
:1026C00040E050E00E945316CA01B9010E941C1458
:1026D000E091630228E0E29FF0011124E55AFD4FEA
:1026E00022893389448955890E947D14A701960166
:1026F0000E943C150E941A16E0915B02F0915C0268
:10270000CB01099572CFE0EAF3E01382128288EEE2
:1027100093E0A0E0B0E084839583A683B78382E44E
:1027200091E09183808385EC90E09587848784ECA9
:1027300090E09787868780EC90E0918B808B81EC8E
:1027400090E0938B828B82EC90E0958B848B86EC6F
:1027500090E0978B868B118E128E138E148E0895B7
:102760000E9483130E94320B0C94430BFC018827B8
:102770009927E89421912032E9F3293010F02E3086
:10278000C8F32B3241F02D3239F4689404C00E9412
:102790000F14820F911D219120532A30C0F31EF493
:1027A000909581959F4F0895DC01FB014150504069
:1027B00058F049F001900D920020C1F7E61BF70B8D
:1027C0003197CF0108951C9201900020E9F7F6CFD0
:1027D000FA01A191B081009719F41097E1F0CD01B1
:1027E000DC01CD010D90002011F4C00113C0FB01EC
:1027F0002191222319F02015D9F7F3CFFB01219164
:10280000201519F41E92119606C02223C1F70D90CF
:102810000020A1F7D001FA01A193B08308957AE0D6
:10282000979F902D879F802D910D112408950E94D0
:10283000591408F481E00895E89409C097FB3EF428
:1028400090958095709561957F4F8F4F9F4F9923FD
:10285000A9F0F92F96E9BB279395F695879577957B
:102860006795B795F111F8CFFAF4BB0F11F460FF3B
:102870001BC06F5F7F4F8F4F9F4F16C0882311F093
:1028800096E911C0772321F09EE8872F762F05C0A7
:10289000662371F096E8862F70E060E02AF09A9542
:1028A000660F771F881FDAF7880F9695879597F937
:1028B0000895990F0008550FAA0BE0E8FEEF1616D1
:1028C0001706E807F907C0F012161306E407F50724
:1028D00098F0621B730B840B950B39F40A2661F098
:1028E000232B242B252B21F408950A2609F4A1403B
:1028F000A6958FEF811D811D08950E9490140C9460
:1029000001150E94F31438F00E94FA1420F0952368
:1029100011F00C94EA140C94F01411240C94351555
:102920000E94121570F3959FC1F3950F50E0551F4B
:10293000629FF001729FBB27F00DB11D639FAA2714
:10294000F00DB11DAA1F649F6627B00DA11D661F63
:10295000829F2227B00DA11D621F739FB00DA11D84
:10296000621F839FA00D611D221F749F3327A00D3E
:10297000611D231F849F600D211D822F762F6A2FDA
:1029800011249F5750409AF0F1F088234AF0EE0F3F
:10299000FF1FBB1F661F771F881F91505040A9F76C
:1029A0009E3F510580F00C94EA140C9435155F3F5E
:1029B000E4F3983ED4F3869577956795B795F795A8
:1029C000E7959F5FC1F7FE2B880F911D9695879520
:1029D00097F9089597F99F6780E870E060E008959F
:1029E0009FEF80EC089500240A9416161706180627
:1029F0000906089500240A94121613061406050603
:102A00000895092E0394000C11F4882352F0BB0F93
:102A100040F4BF2B11F460FF04C06F5F7F4F8F4FF6
:102A20009F4F089557FD9058440F551F59F05F3F31
:102A300071F04795880F97FB991F61F09F3F79F0E0
:102A400087950895121613061406551FF2CF469562
:102A5000F1DF08C0161617061806991FF1CF8695E4
:102A60007105610508940895E894BB2766277727C8
:102A7000CB0197F908955058BB27AA270E945315F8
:102A80000C9401150E94F31438F00E94FA1420F0FF
:102A900039F49F3F19F426F40C94F0140EF4E095E9
:102AA000E7FB0C94EA14E92F0E94121558F3BA17A9
:102AB000620773078407950720F079F4A6F50C9454
:102AC00034150EF4E0950B2EBA2FA02D0B01B90191
:102AD00090010C01CA01A0011124FF27591B99F094
:102AE000593F50F4503E68F11A16F040A22F232FA0
:102AF000342F4427585FF3CF469537952795A795F0
:102B0000F0405395C9F77EF41F16BA0B620B730B96
:102B1000840BBAF09150A1F0FF0FBB1F661F771F07
:102B2000881FC2F70EC0BA0F621F731F841F48F4BC
:102B3000879577956795B795F7959E3F08F0B0CF45
:102B40009395880F08F09927EE0F9795879508952C
:102B50000E94BC150C9401150E94FA1458F00E94B2
:102B6000F31440F029F45F3F29F00C94EA1451115A
:102B70000C9435150C94F0140E94121568F39923E7
:102B8000B1F3552391F3951B550BBB27AA27621769
:102B90007307840738F09F5F5F4F220F331F441F76
:102BA000AA1FA9F335D00E2E3AF0E0E832D09150AA
:102BB0005040E695001CCAF72BD0FE2F29D0660F97
:102BC000771F881FBB1F261737074807AB07B0E8DA
:102BD00009F0BB0B802DBF01FF2793585F4F3AF0E0
:102BE0009E3F510578F00C94EA140C9435155F3F24
:102BF000E4F3983ED4F3869577956795B795F79566
:102C00009F5FC9F7880F911D9695879597F908954D
:102C1000E1E0660F771F881FBB1F621773078407E9
:102C2000BA0720F0621B730B840BBA0BEE1F88F7F8
:102C3000E09508950E941A1588F09F5798F0B92FD3
:102C40009927B751B0F0E1F0660F771F881F991FE1
:102C50001AF0BA95C9F714C0B13091F00E9434153A
:102C6000B1E008950C943415672F782F8827B85F4A
:102C700039F0B93FCCF3869577956795B395D9F739
:102C80003EF490958095709561957F4F8F4F9F4F43
:102C900008950E94591408F48FEF08950E94591462
:102CA000880B990B0895A1E21A2EAA1BBB1BFD01EC
:102CB0000DC0AA1FBB1FEE1FFF1FA217B307E4071B
:102CC000F50720F0A21BB30BE40BF50B661F771F73
:102CD000881F991F1A9469F7609570958095909553
:102CE0009B01AC01BD01CF010895EE0FFF1F0590C0
:102CF000F491E02D0994FB01DC018D910190801984
:0C2D00000110D9F3990B0895F894FFCF4F
:102D0C0049444C452000504F57455200504F494EB6
:102D1C00540050524F4752000101FD05FD05CDCC2A
:102D2C00CC3E78001E00000000002D03BA04000009
:102D3C0000001801EB00E300D000BF00BE00000053
:102D4C0000003C05BA040505E304F7048305000004
:102D5C00400014005400736574706F696E742075B4
:102D6C0070646174656400524553455400706F691A
:102D7C006E7400536574706F696E74203A000D0A9E
:102D8C0000706F77657200506F776572203A006D36
:102D9C006F64650074656D70007374617475730095
:102DAC002C0068656C7000706F776572203C7077D2
:102DBC00723E006D6F6465203C6D6F64653E006211
:102DCC00756C6C7368697400737461743A090900EA
:102DDC0053657420005077722000696E66006F7620
:062DEC0066006E616E003E
:00000001FF
