:100000000C9462000C9429090C9402090C948A0047
:100010000C948A000C948A000C948A000C948A0038
:100020000C948A000C948A000C948A000C948A0028
:100030000C948A000C948A000C948A000C948A0018
:100040000C94B8080C948A000C9469070C9443072C
:100050000C948A000C948A000C948A000C948A00F8
:100060000C949D010C948A000000000024002700DD
:100070002A0000000000250028002B0000000000DE
:1000800023002600290004040404040404040202DA
:100090000202020203030303030301020408102007
:1000A0004080010204081020010204081020000012
:1000B0000008000201000003040700000000000027
:1000C0000000971311241FBECFEFD8E0DEBFCDBFD5
:1000D00024E0A6EDB1E001C01D92AD32B207E1F718
:1000E00011E0A0E0B1E0EAEDFCE202C005900D9263
:1000F000A63DB107D9F710E0C2E6D0E004C02197D1
:10010000FE010E945C16C136D107C9F70E94C20CDD
:100110000C946B160C94000085ED8093BC008091CC
:10012000BC0084FDFCCF1092D30308954091FA01E6
:10013000262F30E0240F311D21323105DCF42091CF
:10014000D3032430C9F4FC0180E090E0861738F036
:100150008091FA01680F6093FA0180E00895309170
:10016000FA012191DC01A652BE4FA30FB11D2C93C1
:100170000196ECCF81E0089582E0089508954091C2
:10018000200250E020911F0230E081E090E0421711
:10019000530714F480E090E09195819591090895BA
:1001A00080912002482F50E020911F0230E042173A
:1001B000530734F48F5F8093200280E090E008952D
:1001C0008FEF9FEF089580911F0290E02091200211
:1001D000821B91090895CF92DF92EF92FF920F93C5
:1001E0001F93CF93DF937C01CB018A012091AC0256
:1001F000222389F0EB016B01C40ED51ECC15DD0561
:1002000069F06991D701ED91FC910190F081E02DA9
:10021000C7010995F3CF642F0E949600C801DF91B2
:10022000CF911F910F91FF90EF90DF90CF900895A5
:10023000CF93DF931F92CDB7DEB769832091AC02D5
:10024000222309F120911D0230E0203231055CF0BB
:1002500021E030E0FC013383228380E090E00F90C6
:10026000DF91CF91089580911E02E82FF0E0EC52CB
:10027000FC4F998190838F5F80931E0280931D02B3
:1002800081E090E0ECCF61E0CE0101960E94960003
:10029000F7CFBC0180E090E00E94031460937202EB
:1002A000709373028093740290937502089580E0B6
:1002B00090E00E94900960E080E10E94F2071092B5
:1002C0006D0210926C0208950F931F93CF938C01CF
:1002D000C62F0E9450096C2F6460C8010E9450090B
:1002E00081E090E00E9469086C2F6B7FC8010E943A
:1002F000500982E390E0CF911F910F910C9469080F
:100300000F931F93CF93DF938C01D62FC42F607F61
:10031000642B0E94640180E1D89FB00111246C2BF2
:10032000C801DF91CF911F910F910C94640141E0BE
:100330000E94800181E090E008951F920F920FB615
:100340000F9211242F933F934F935F936F937F935B
:100350008F939F93AF93BF93EF93FF938091B900D7
:10036000887F803609F44AC0F0F5883209F4A5C0C8
:1003700018F5803109F499C0B8F4882309F4F5C060
:10038000883009F492C0FF91EF91BF91AF919F9196
:100390008F917F916F915F914F913F912F910F902E
:1003A0000FBE0F901F901895883109F486C08032D7
:1003B00051F78093D10314C0803409F49BC040F4FA
:1003C0008033B9F38833F9F68093D10385ECAEC05E
:1003D000803509F483C0883509F494C0883499F6CF
:1003E0000E948C00D0CF883909F48AC038F588374C
:1003F00029F050F4883611F0803729F683E0809395
:10040000D30310921C0255C0883809F479C0803992
:1004100019F0803809F0B7CF80911C02803208F0C3
:100420006FC0E0911C0281E08E0F80931C028091CE
:10043000BB00F0E0E450FE4F80833BC0803B39F0CE
:10044000D0F4803A09F477C0883A09F09CCF84E070
:100450008093D3031092FB011092FA01E0E0F0E0E8
:1004600009958091FA0181110FC081E08093FA0112
:100470001092DA0109C0803C09F4A8CF883C09F445
:10048000A5CF883B09F07FCFE091FB0181E08E0F83
:100490008093FB01F0E0E652FE4F80818093BB0029
:1004A0009091FB018091FA0129C08091AE03809365
:1004B000BB0085EC8093BC0066CF9091D003809107
:1004C000CF03981758F5E091D00381E08E0F809309
:1004D000D003F0E0E155FC4F8081E9CFE091D003FB
:1004E00081E08E0F8093D0038091BB00F0E0E15556
:1004F000FC4F80839091D0038091CF039817C8F26E
:1005000085E8D8CFE091D00381E08E0F8093D003AF
:100510008091BB00F0E0E155FC4F80838091D203D5
:1005200081115ECF81E08093AD0384EA8093BC00AB
:100530001092D30328CF85EC8093BC001092D30394
:1005400080911C02803230F4E0911C02F0E0E45013
:10055000FE4F108260911C0270E08CEF91E0E0E0B1
:10056000F0E0099510921C020ECF1092D10338CF03
:100570001092D30381E08093D2031092AD0361E027
:1005800082E10E94C40761E083E10E94C407E9EBB5
:10059000F0E080818E7F808380818D7F808388E4FE
:1005A0008093B80085E48093BC0008950E94AC0855
:1005B000AB01BC012AE080E193E00E94090666E5F8
:1005C00071E080E193E00E94410740916602509102
:1005D0006702609168027091690222E080E193E015
:1005E0000E94550666E571E080E193E00E944107B4
:1005F0004091720250917302609174027091750281
:1006000022E080E193E00E94550666E571E080E11A
:1006100093E00E94410740918202509183026091D1
:1006200084027091850222E080E193E00E945506E9
:1006300066E571E080E193E00E9441074091860207
:1006400050918702609188027091890222E080E1D6
:1006500093E00E94550668E571E080E193E00C9418
:10066000F4050F931F93CF93DF9311E006E00E94F0
:100670005F0A882309F41AC18BE591E00E94870A7A
:10068000882339F060E080E10E94C4070C94001CCC
:10069000EECF81E691E00E94870A882351F10E9403
:1006A000D80ABC01990F880B990B0E94051460931E
:1006B000720270937302809374029093750267E6DE
:1006C00071E080E193E00E944107409172025091F5
:1006D0007302609174027091750222E080E193E0F0
:1006E0000E94550668E571E080E193E00E94F40500
:1006F000BECF82E791E00E94870A8823C1F00E9462
:10070000D80A90936B0280936A0268E771E080E1F7
:1007100093E00E94410740916A0250916B0260E0B1
:1007200070E02AE080E193E00E940906DBCF80E8D8
:1007300091E00E94870A882309F460C00E94D80AC9
:10074000EC018130910509F44AC0C4F4892BF1F120
:10075000D0936D02C0936C020C9FB0010D9F700D81
:10076000112460507F4F80E193E00E944107809107
:100770006C0290916D020E94A00A79CF823091059F
:10078000A1F1039729F761E080E10E94F2076091EF
:1007900086027091870280918802909189020E945E
:1007A0000116109253027093500260934F02109200
:1007B0005202109251020E94AC086093580270934A
:1007C000590280935A0290935B0213C080E090E03C
:1007D0000E94900960E080E10E94F207B9CF80E0BA
:1007E00090E00E94900961E0F6CF61E080E10E9414
:1007F000F20781E090E00E949009AACF85E891E09D
:100800000E94870A882371F04091860250918702E6
:10081000609188027091890222E080E193E00E9459
:10082000550625CF8AE891E00E94870A882319F0AF
:100830000E94D6021CCF81E991E00E94870A88239A
:10084000C9F08BE591E00E944C0A86E991E00E9494
:100850004C0A82EA91E00E944C0A85E891E00E94ED
:100860004C0A8AE891E00E944C0A81E991E00E94DA
:100870004C0AFDCE0E945F0A8823A9F01093CC0297
:100880006091C6027091C7024EE150E08DE292E0A5
:100890000E94BB136EEA71E080E193E00E94410781
:1008A0008DE292E0E4CF10922D02F4CFDF91CF9150
:1008B0001F910F910895DC01ED91FD918081ED91E3
:1008C000FD919081ED91FD916C9163708E2309F003
:1008D00064609F2309F06860E8E7F4E0E60FF11D2B
:1008E000659565956D936D917D918D919D9109941F
:1008F00023C01AC012C016C010C01EC009C014C048
:1009000013C006C019C009C00DC007C00DC014C077
:1009100062507040804090400BC0615070408040F9
:10092000904006C06E5F01C06F5F7F4F8F4F9F4F3B
:100930009E938E937E936E9308958091D6019091AD
:10094000D7010C945B048091D8019091D9010C944B
:100950005B04CF92DF92EF92FF920F931F93CF939E
:10096000DF937C016A018B01C0E0D0E0CC15DD058E
:1009700079F0D8016D918D01D701ED91FC91019035
:10098000F081E02DC7010995892B11F02196EECF5A
:10099000CE01DF91CF911F910F91FF90EF90DF90EB
:1009A000CF900895FC01918D828D981761F0828D12
:1009B000DF01A80FB11D5D968C91928D9F5F9F7393
:1009C000928F90E008958FEF9FEF0895FC01918D35
:1009D000828D981731F0828DE80FF11D858D90E0A2
:1009E00008958FEF9FEF0895FC01918D228D892F3F
:1009F00090E0805C9F4F821B91098F739927089527
:100A000080E193E00E94F40421E0892B09F420E0C6
:100A1000822F0895FC01848DDF01A80FB11DA35A18
:100A2000BF4F2C91848D90E001968F739927848F0E
:100A3000A689B7892C93A089B1898C9180648C9305
:100A4000938D848D981306C00288F389E02D8081F0
:100A50008F7D80830895EF92FF920F931F93CF9322
:100A6000DF93EC01F62E81E0888F9B8D8C8D98139F
:100A700005C0E889F989808185FD2CC00B8D10E0C7
:100A80000F5F1F4F0F731127E02E8C8DE8120CC0E3
:100A90000FB607FCFACFE889F989808185FFF5CF89
:100AA000CE010E940A05F1CF8B8DFE01E80FF11DEA
:100AB000E35AFF4FF0820B8FEA89FB8980818062C5
:100AC000808381E090E0DF91CF911F910F91FF90A3
:100AD000EF900895EE89FF896083E889F989808124
:100AE0008064EECFCF93DF93EC01888D882351F0A3
:100AF000EA89FB89808185FD08C0A889B9898C9124
:100B000086FF03C0DF91CF9108950FB607FCF2CFA7
:100B1000808185FFEFCFE889F989808185FFE8CF63
:100B2000CE010E940A05E4CF80E090E0892B29F0F5
:100B30000E94000581110C9400000895833081F01B
:100B400028F4813099F08230A9F008958730A9F017
:100B50008830C9F08430B1F4809180008F7D03C06B
:100B6000809180008F7780938000089584B58F777F
:100B700084BD089584B58F7DFBCF8091B0008F77C1
:100B80008093B00008958091B0008F7DF9CF3FB77A
:100B9000F8948091B3029091B402A091B502B09103
:100BA000B60226B5A89B05C02F3F19F00196A11DDE
:100BB000B11D3FBFBA2FA92F982F8827BC01CD01A7
:100BC000620F711D811D911D42E0660F771F881F06
:100BD000991F4A95D1F708950895DC01ED91FC9194
:100BE0000190F081E02D09946115710579F0FB0108
:100BF00001900020E9F73197AF01461B570BDC014C
:100C0000ED91FC910280F381E02D099480E090E069
:100C100008958F929F92AF92BF92EF92FF920F939F
:100C20001F93CF93DF93CDB7DEB7A1970FB6F8949C
:100C3000DEBF0FBECDBF7C01FA01CB0119A2422F4E
:100C400050E0423051050CF42AE08E010F5D1F4F39
:100C5000822E912CA12CB12CBF01A50194010E94E0
:100C60003A16F901CA01015011096A30E4F4605DD5
:100C7000D8016C93232B242B252B71F7B801C701C6
:100C80000E94F405A1960FB6F894DEBF0FBECDBF4B
:100C9000DF91CF911F910F91FF90EF90BF90AF9098
:100CA0009F908F900895695CE3CF5F926F927F92DF
:100CB0008F929F92AF92BF92CF92DF92EF92FF926C
:100CC0000F931F93CF93DF93EC016A017B01522EA8
:100CD0009A01AB01C701B6010E943516882309F4B9
:100CE00092C061ED71E0AAC02FEF3FEF4FE75FE4E4
:100CF000C701B6010E94301618161CF46DEC71E0A5
:100D00009DC02FEF3FEF4FE75FECC701B6010E9498
:100D1000FE1387FDF3CF20E030E0A901C701B60143
:100D20000E94FE1387FF1DC06DE2CE010E94ED05FB
:100D30008C01F7FAF094F7F8F094B12C60E070E0D1
:100D400080E09FE3652C712C2B2D30E026153705B4
:100D50005CF420E030E040E251E40E948F15B3944F
:100D6000F3CF00E010E0E9CFA70196010E94231520
:100D70006B017C010E9401164B015C012AE0AB0172
:100D8000BC01CE010E940906080F191F672809F44B
:100D900067C0C501B4010E9403149B01AC01C701E7
:100DA000B6010E9422156B017C016EE2CE010E9409
:100DB000ED05080F191F552009F452C020E030E05E
:100DC00040E251E4C701B6010E9464144B015C018A
:100DD0000E9401166B01E12CF12C2AE0B701A6015B
:100DE000CE010E940906080F191FC701B6010E9413
:100DF00003149B01AC01C501B4010E9422156B01D3
:100E00007C015A94D8CF46015701E894B7F82FEFE8
:100E10003FEF4FE75FE7C501B4010E94351681112E
:100E200063CF2FEF3FEF4FE75FE7C501B4010E94AB
:100E3000FE1318160CF058CF69EC71E0CE01DF916B
:100E4000CF911F910F91FF90EF90DF90CF90BF90C7
:100E5000AF909F908F907F906F905F900C94F4056F
:100E6000C801DF91CF911F910F91FF90EF90DF901C
:100E7000CF90BF90AF909F908F907F906F905F903A
:100E800008950C94F4051F920F920FB60F9211243F
:100E90002F933F934F935F936F937F938F939F9382
:100EA000AF93BF93EF93FF9380E193E00E940A0515
:100EB000FF91EF91BF91AF919F918F917F916F9132
:100EC0005F914F913F912F910F900FBE0F901F9008
:100ED00018951F920F920FB60F9211242F938F9394
:100EE0009F93EF93FF93E0912003F0912103808182
:100EF000E0912603F091270382FD1BC09081809131
:100F000029038F5F8F7320912A03821741F0E091AC
:100F10002903F0E0E05FFC4F958F80932903FF9158
:100F2000EF919F918F912F910F900FBE0F901F9077
:100F300018958081F4CFCF93DF93282F30E0F9010B
:100F4000E255FF4F8491F901E656FF4FD491F90124
:100F5000EA57FF4FC491CC23A1F081110E949E0556
:100F6000EC2FF0E0EE0FFF1FE458FF4FA591B49176
:100F7000EC91ED2381E090E009F480E0DF91CF91E6
:100F8000089580E090E0FACF1F93CF93DF93162F60
:100F9000282F30E0F901E255FF4F8491F901E65620
:100FA000FF4FD491F901EA57FF4FC491CC23A1F030
:100FB00081110E949E05EC2FF0E0EE0FFF1FEE580E
:100FC000FF4FA591B4918FB7F894EC91111108C01F
:100FD000D095DE23DC938FBFDF91CF911F910895D1
:100FE000DE2BF8CFCF93DF9390E0FC01E656FF4F66
:100FF00024918A579F4FFC0184918823C9F090E087
:10100000880F991FFC01E859FF4FA591B491FC018D
:10101000EE58FF4FC591D49161110DC09FB7F89460
:101020008C91209582238C938881282328839FBFCD
:10103000DF91CF910895623051F49FB7F8943C91BD
:10104000822F809583238C93E8812E2BEFCF8FB74F
:10105000F894EC912E2B2C938FBFEACF789484B523
:10106000826084BD84B5816084BD85B5826085BDA4
:1010700085B5816085BDEEE6F0E08081816080838A
:10108000E1E8F0E01082808182608083808181606D
:101090008083E0E8F0E0808181608083E1EBF0E034
:1010A000808184608083E0EBF0E0808181608083D8
:1010B000EAE7F0E0808184608083808182608083C1
:1010C0008081816080838081806880831092C100EC
:1010D00008958230910538F0880F991F880F991F65
:1010E00005970197F1F708958F929F92AF92BF9263
:1010F000CF92DF92EF92FF926B017C010E94C705B5
:101100004B015C01C114D104E104F104C9F4FF9066
:10111000EF90DF90CF90BF90AF909F908F90089509
:1011200021E0C21AD108E108F10888EE880E83E0B8
:10113000981EA11CB11CC114D104E104F10411F3E7
:101140000E94C705681979098A099B09683E73409E
:101150008105910528F7D6CF2FB7F8946091AF029B
:101160007091B0028091B1029091B2022FBF0895A8
:101170001F920F920FB60F9211242F933F938F93CC
:101180009F93AF93BF938091AF029091B002A091D3
:10119000B102B091B2023091AE0223E0230F2D379D
:1011A00058F50196A11DB11D2093AE028093AF02A8
:1011B0009093B002A093B102B093B2028091B302B7
:1011C0009091B402A091B502B091B6020196A11D12
:1011D000B11D8093B3029093B402A093B502B09373
:1011E000B602BF91AF919F918F913F912F910F9038
:1011F0000FBE0F901F90189526E8230F0296A11D91
:10120000B11DD2CF1F920F920FB60F9211242F93C0
:101210003F934F935F936F937F938F939F93AF937E
:10122000BF93EF93FF93E0911C01F0911D0109958D
:10123000FF91EF91BF91AF919F918F917F916F91AE
:101240005F914F913F912F910F900FBE0F901F9084
:1012500018951F920F920FB60F9211242F933F9360
:101260004F935F936F937F938F939F93AF93BF93AE
:10127000EF93FF93E0911A01F0911B010995FF9103
:10128000EF91BF91AF919F918F917F916F915F91FE
:101290004F913F912F910F900FBE0F901F90189577
:1012A000FC01248131E03093AC022093AD02109216
:1012B0001E0210921D028385682BE0912102F0919D
:1012C00022020190F081E02D81E292E00995609187
:1012D0001D028091AD020E94F80910921E02109228
:1012E0001D021092AC0208958230C8F4E82FF0E09D
:1012F000EE0FFF1FE65EFE4F71836083813041F089
:10130000809169008C7F816080936900E89A0895DC
:1013100080916900837F846080936900E99A0895D1
:101320008F929F92AF92BF92CF92DF92EF92FF92F5
:10133000CF93C1E0019709F0C0E080912C0491E0C7
:101340008927C81349C0E0911004F0911104C080AE
:10135000D180E280F380C0921804D0921904E09208
:101360001A04F0921B04E0910E04F0910F048081A6
:101370009181A281B38180931C0490931D04A0935A
:101380001E04B0931F048090280490902904A0901C
:101390002A04B0902B04A5019401C701B6010E9454
:1013A000301618164CF48092180490921904A092EA
:1013B0001A04B0921B0410C080902404909025045D
:1013C000A0902604B0902704A5019401C701B6019E
:1013D0000E94FE1387FDE7CFC0932C04CF91FF90AE
:1013E000EF90DF90CF90BF90AF909F908F90089537
:1013F000613208F049C09091D3039111FCCF92E083
:101400009093D30391E09093D2039FEF9093D103F5
:101410001092D0036093CF03A4EDB3E0EFEAF3E0C2
:1014200090E069132BC01092AE039091AE03880F29
:10143000892B8093AE038091AD03813019F5109212
:10144000AD038091AE038093BB008091BC0083FD0F
:10145000F8CF85EC8093BC008091D3038230E1F318
:101460008091D1038F3F91F08091D103803281F040
:101470008091D103803371F084E008952D91219300
:101480009F5FCFCF85EEE6CF81E0089580E008959D
:1014900082E0089583E00895CF93DF93BC0180E15B
:1014A00093E00E94F405EC0168E571E080E193E0CF
:1014B0000E94F4058C0F9D1FDF91CF9108958091BC
:1014C000C302882311F18130E9F482E08093C302E2
:1014D0008EEC92E02091CC02222351F048EC52E0B5
:1014E0006AEC72E00E94CF139093C7028093C60209
:1014F0008091C6029091C702892B39F01092CC02DC
:1015000081E0089580E090E0E5CF80E00895CF93FA
:10151000DF93EC010E945F0A882389F06091C60284
:101520007091C702CE010E946216892B31F481E0CE
:101530008093CC02DF91CF91089580E0FBCFFACF6A
:10154000CF92DF92EF92FF92CF93DF936C01990FCE
:10155000EE08FF08F7FE23C06DE280E193E00E94F1
:10156000ED05EC0144275527BA014C195D096E09B8
:101570007F092AE080E193E00E940906C80FD91F85
:1015800068E571E080E193E00E94F4058C0F9D1FF7
:10159000DF91CF91FF90EF90DF90CF9008952AE0F8
:1015A000B701A60180E193E00E940906EC01E8CFB3
:1015B0000E945F0A882349F081E08093CC028091E9
:1015C000C6029091C7020C949D1380E090E00895AC
:1015D000CF93DF93CDB7DEB728970FB6F894DEBF71
:1015E0000FBECDBF98E0EEE4F1E0DE011196019070
:1015F0000D929A95E1F79091BF02462F50E0292F66
:1016000030E02417350714F46FEF690F262F30E010
:10161000220F331F41E050E04C0F5D1F240F351F98
:10162000F9016081680F606840E087EB92E02896DE
:101630000FB6F894DEBF0FBECDBFDF91CF910C94F3
:101640008001E1E2F2E01382128288EE93E0A0E0F2
:10165000B0E084839583A683B78382E391E091838E
:10166000808308950F931F93CF931092BA02109224
:10167000B9028AE291E09093B8028093B70287E2C0
:101680008093BB0284E18093C00284E08093C10216
:101690001092C2028DE080939B028AE080939D02AB
:1016A0008CE080939C02109293021092940210920C
:1016B00095021092960280E090E0A0E8BFE380934C
:1016C000970290939802A0939902B0939A0280E8AF
:1016D0008093920280E090ECA9E7B4EC80938E02B4
:1016E00090938F02A0939002B093910280938A020C
:1016F00090938B02A0938C02B0938D0262E082E003
:101700000E94F20762E083E00E94F207E8E8F0E05E
:10171000E491F0E0EE0FFF1FE458FF4F85919491A4
:101720009093770280937602ECE9F0E0E491E09305
:101730007A02E9E8F0E0E491F0E0EE0FFF1FE458F0
:10174000FF4F859194919093790280937802EDE90F
:10175000F0E0E491E0937B0210927D0210927E0211
:1017600010927F021092800280ED97E00E9469083B
:10177000E0917602F0917702908180917A0298232D
:1017800081E009F480E0E0917802F09179029081A3
:1017900020917B02922309F0826006E712E0809399
:1017A0007C021093D7010093D6016DE974E080E0CC
:1017B0000E947409C1E0C09381021093D901009383
:1017C000D80163EA74E081E00E947409809181028B
:1017D0008F5F809381021092C5021092C40280E252
:1017E0008093CA021092CB0280E480930E038FE3B1
:1017F00080930F031092CD021092C3021092C70281
:101800001092C6021092C9021092C802C093CC0274
:101810001092500210924F021092520210925102F6
:101820008FEF80935302109254021092550210923F
:1018300056021092570210925802109259021092BA
:101840005A0210925B0210925C0288E0EEE1F1E035
:10185000ADE5B2E001900D928A95E1F7C093650283
:1018600089E491E090934C0280934B0287E591E0EC
:1018700090934E0280934D0286E692E0909311047D
:10188000809310048EE692E090930F0480930E04F0
:1018900082E792E0909313048093120410922C0438
:1018A000109224041092250410922604109227040A
:1018B00080E090E0AFE7B3E480932804909329049C
:1018C000A0932A04B0932B0484E690E0A0E0B0E05B
:1018D0008093200490932104A0932204B0932304C6
:1018E00010920D0410920C0480E090E0A0E2B2E4AB
:1018F0008093F4039093F503A093F603B093F7035A
:101900001092F8031092F9031092FA031092FB035D
:101910001092FC031092FD031092FE031092FF033D
:101920008093000490930104A0930204B0930304F5
:1019300010920404109205041092060410920704F9
:10194000109208041092090410920A0410920B04D9
:101950000E94AC08009120041091210420912204DF
:1019600030912304601B710B820B930B6093140462
:10197000709315048093160490931704CF911F91D0
:101980000F910895CF93DF93CDB7DEB72A970FB6A7
:10199000F894DEBF0FBECDBF0E942E08E091200359
:1019A000F091210382E08083E0911C03F0911D03FC
:1019B0001082E0911E03F0911F0380E1808310925A
:1019C0002803E0912403F091250386E08083E091D1
:1019D0002203F0912303808180618083E0912203C0
:1019E000F0912303808188608083E0912203F0914D
:1019F0002303808180688083E0912203F091230398
:101A000080818F7D80831092200210921F0210929D
:101A10001E0210921D020E94B8021092BC02809118
:101A2000C102282F30E0223031051CF098E090935D
:101A3000BC028093BF0262E370E080E090E00E940D
:101A400074086091C20287EB92E00E94500968EE30
:101A500073E080E090E00E94740860E387EB92E01E
:101A60000E94640184E991E10E94690860E387EBC8
:101A700092E00E94640184E991E10E94690860E3B8
:101A800087EB92E00E94640186E990E00E94690879
:101A900060E287EB92E00E9464016091BC026062A8
:101AA00040E087EB92E00E94800184E08093BD02D9
:101AB00040E06CE087EB92E00E94800140E061E052
:101AC00087EB92E00E94800180ED97E00E94690818
:101AD00082E08093BE0240E066E087EB92E00E94E5
:101AE000800140E062E087EB92E00E94800180ED9F
:101AF00097E00E94690888E08093C20260E087EB6B
:101B000092E00E94500960E080919D020E94F207DD
:101B100060E080919D020E94C40761E080919B0279
:101B20000E94F20760E080919C020E94F20761E04F
:101B300080E10E94F20760E080E10E94C40761E05A
:101B400087E00E94F20761E086E00E94F20760E011
:101B500089E00E94F20760E088E00E94F20781E3DA
:101B600093E09093C5028093C4020E94AC086093F6
:101B7000A2027093A3028093A4029093A5020E94F4
:101B8000AC0860939E0270939F028093A002909392
:101B9000A10280E090E0A0E7B1E48093720290930C
:101BA0007302A0937402B0937502109224041092F1
:101BB00025041092260410922704812C912C5AEFB0
:101BC000A52E54E4B52E8092280490922904A09268
:101BD0002A04B0922B0480912C04882309F457C066
:101BE0000091100410911104D801CD90DD90ED907A
:101BF000FC90A5019401C701B6010E943016181689
:101C000034F5F80180829182A282B3828090180418
:101C100090901904A0901A04B0901B04C09028045E
:101C2000D0902904E0902A04F0902B04A70196019B
:101C3000C501B4010E9430161816CCF4C0921804E5
:101C4000D0921904E0921A04F0921B0420C020E004
:101C500030E0A901C701B6010E94FE1387FFD6CF6D
:101C6000D8011D921D921D921C921397CFCFC09048
:101C70002404D0902504E0902604F0902704A701C6
:101C80009601C501B4010E94FE1387FDD7CF609174
:101C900020047091210480912204909123040E94D9
:101CA00003149B01AC0160E070E08AE794E40E94B9
:101CB0008F156B017C019B01AC0160910404709154
:101CC000050480910604909107040E9464146093B7
:101CD0000404709305048093060490930704A701FD
:101CE0009601609108047091090480910A04909112
:101CF0000B040E948F15609308047093090480936D
:101D00000A0490930B0488EE93E0A0E0B0E0809387
:101D1000200490932104A0932204B093230480E034
:101D200090E00E94900946E0242E3324339488E00A
:101D30000E949B0721E0892B09F420E02093AB024D
:101D400089E00E949B0721E0892B09F420E0209381
:101D5000AA0261E080919D020E94F20710E2C12C6C
:101D6000D12C7601CC0CDD1CEE1CFF1C60E08091B8
:101D70009B020E94C40780919C020E949B07892BB2
:101D800029F0BFEFCB1ADB0AEB0AFB0A61E0809176
:101D90009B020E94C407115029F760E080919D02C8
:101DA0000E94F2071C2D17701093920246015701F2
:101DB00024E0B694A794979487942A95D1F7C50107
:101DC000B4017770882799270E94031420E030E03F
:101DD00040E85DE30E94641493FC50C360938A0260
:101DE00070938B0280938C0290938D0292E1F69413
:101DF000E794D794C7949A95D1F7C701B6017F713C
:101E0000882799270E94031420E030E040E85EE331
:101E10000E946414D5FC39C360938E0270938F02C4
:101E20008093900290939102C0909302D09094027C
:101E3000E0909502F090960220E030E0A901C70101
:101E4000B6010E94FE138823A1F0A70196016091BC
:101E50008E0270918F0280919002909191020E9467
:101E6000231560938E0270938F028093900290935B
:101E70009102112351F067EB71E080E193E00E9441
:101E80004107812F90E00E94A00A20919702309193
:101E900098024091990250919A0260918E0270913D
:101EA0008F0280919002909191020E94641460933D
:101EB00086027093870280938802909389028091B2
:101EC0008A0290918B02A0918C02B0918D02809336
:101ED000820290938302A0938402B0938502809142
:101EE000810290E002970CF0D7C2F89486E792E066
:101EF0000E945B0480917D0290917E02A0917F02FE
:101F0000B091800278944091A6025091A70260910E
:101F1000A8027091A902481759076A077B0741F088
:101F20008093A6029093A702A093A802B093A9025F
:101F30008091AB0281110EC080911901882351F06C
:101F400087E00E949B0761E0892B09F060E087E051
:101F50000E94C4078091AA02811132C080911801A9
:101F6000882371F16091A6027091A7028091A80266
:101F70009091A9020E94051420E030E040E85DE362
:101F80000E9464149B01AC01609172027091730213
:101F900080917402909175020E94231560937202E1
:101FA000709373028093740290937502F894109268
:101FB0007D0210927E0210927F021092800278942D
:101FC0008091AB02809319018091AA02809318013D
:101FD0008091860290918702A0918802B091890237
:101FE00080936E0290936F02A0937002B09371027F
:101FF00080912C04882309F4F3C00E94AC08698303
:102000007A838B839C838091140490911504A09112
:102010001604B091170449815A816B817C81481B59
:10202000590B6A0B7B0B8091200490912104A091A5
:102030002204B0912304481759076A077B0708F464
:10204000CFC0E0910E04F0910F0480809180A280B7
:10205000B380E0911204F0911304A5019401608112
:102060007181828193810E9422156D837E838F838B
:102070009887209104043091050440910604509102
:1020800007040E94641420911804309119044091AF
:102090001A0450911B040E9423156B017C0160936C
:1020A00018047093190480931A0490931B041091E0
:1020B0002804E0912904EA8700912A04F0912B0476
:1020C000F987212F3E2F402F5F2F0E9430161816C0
:1020D0000CF0E4C1812F9A85A02FB9858093180454
:1020E00090931904A0931A04B0931B042091000448
:1020F0003091010440910204509103046D817E816E
:102100008F8198850E9464142091180430911904DD
:1021100040911A0450911B040E9423156B017C010D
:1021200020911C0430911D0440911E0450911F0405
:10213000C501B4010E9422152091080430910904C0
:1021400040910A0450910B040E9464149B01AC015D
:10215000C701B6010E9422156B017C019B01AC01F5
:10216000612F7A85802F99850E94FE1387FD18C004
:1021700010912404209125042A870091260430918F
:1021800027043987212F3A85402F5985B601C70189
:102190000E94FE1387FD04C01C2DDA860E2DF986E1
:1021A000E0911004F0911104812F9A85A02FB98538
:1021B00080839183A283B38380921C0490921D0438
:1021C000A0921E04B0921F0489819A81AB81BC81C8
:1021D0008093140490931504A0931604B0931704ED
:1021E00080916C0290916D02019781F460916A0276
:1021F00070916B0280E090E00E940314609366028D
:102200007093670280936802909369020E94AC0801
:102210006B017C018091A2029091A302A091A40283
:10222000B091A502A7019601281B390B4A0B5B0B45
:10223000DA01C901813D9740A105B10540F0C09286
:10224000A202D092A302E092A402F092A502809191
:102250009E0290919F02A091A002B091A102A701BD
:102260009601281B390B4A0B5B0BDA01C901853F2C
:102270009140A105B10508F4A5C00E94D60240E036
:1022800061E087EB92E00E94800180ED97E00E9480
:10229000690860E082E00E94E80A4091860250915D
:1022A0008702609188027091890222E087EB92E0B8
:1022B0000E94550660E08AE00E94E80A80916C0264
:1022C00090916D02289EB001299E700D11246050DE
:1022D0007F4F87EB92E00E94410761E080E00E941F
:1022E000E80A80916C0290916D02892B31F46DE2C5
:1022F00072E087EB92E00E94410780916C0290911E
:102300006D02029739F56FEB71E087EB92E00E9466
:1023100041076091A6027091A7028091A802909156
:10232000A9020E94051420E030E040E85DE30E942D
:1023300064142091720230917302409174025091A2
:1023400075020E942315AB01BC0122E087EB92E0ED
:102350000E94550680916C0290916D02039799F44A
:102360006FEB71E087EB92E00E94410740917202AF
:1023700050917302609174027091750222E087EBB4
:1023800092E00E94550680916C0290916D02019737
:1023900089F464EC71E087EB92E00E944107409180
:1023A0006A0250916B0260E070E02AE087EB92E0F5
:1023B0000E940906C0929E02D0929F02E092A00263
:1023C000F092A1028091A2029091A302A091A40296
:1023D000B091A502A7019601281B390B4A0B5B0B94
:1023E000CA01B9010E94031420916602309167026C
:1023F00040916802509169020E94301618160CF044
:1024000066C060E080E10E94C40780E193E00E9422
:10241000F404892B09F47BC080E193E00E94D2048C
:102420001092C30218161906ECF48A309105D1F007
:10243000E091CD028D30910509F04BC0F0E0ED53F5
:10244000FD4F13861092CD021092C9021092C8025D
:102450003092CC023092C3024EEC52E05093C7024D
:102460004093C6028091C302813079F6E091C402A4
:10247000F091C502309749F20995C7CF20E030E0CE
:1024800040E053E40E942215A9CC20E030E040E077
:1024900055E40E942215C0CCF8942CCD4090240421
:1024A000509025046090260470902704A3019201A7
:1024B000C701B6010E94FE1387FF18CE4092180490
:1024C0005092190460921A0470921B040FCE61E0BE
:1024D00099CFAE2FB0E0AD53BD4F1B968C93EF5FFD
:1024E000E093CD02F0E020910F0330E0E217F30714
:1024F0000CF4B8CF1092CD021092C7021092C6020F
:102500001092C9021092C8023092CC02ABCF6091F7
:1025100086027091870280918802909189020E94C0
:1025200001164B015C018B0180915C02811168C036
:102530008091510290915202019709F061C00E946E
:10254000AC08F0905302CF2CD12C40905802509000
:10255000590260905A0270905B02641975098609ED
:10256000970920E63AEE40E050E00E943A16F60164
:1025700083E0EE0FFF1F8A95E1F7ED59FD4F808153
:102580009181A0E0B0E082179307A407B507C0F5DA
:102590005FEFC51AD50A8091650290E0C816D9068A
:1025A000B4F4F394F09253029092500280924F024E
:1025B00010925202109251020E94AC08609358028D
:1025C0007093590280935A0290935B0207C0309235
:1025D0005C02E0914D02F0914E0209950E94AC0818
:1025E0006093540270935502809356029093570261
:1025F00044E955E0452B09F49ACB0E94940597CB0A
:102600008091510290915202892B41F70E94AC08AF
:10261000C0905402D0905502E0905602F0905702BC
:102620006C197D098E099F09693E734081059105EA
:10263000A8F2E0915302B8E0EB9FF0011124E55BB2
:10264000FD4F868997890817190738F0E1E0F0E017
:10265000F0935202E0935102AFCF60914F0270911C
:10266000500280E090E00E9403146B017C010E9404
:10267000AC08009158021091590220915A023091F1
:102680005B02601B710B820B930B20E63AEE40E07D
:1026900050E00E943A16CA01B9010E940314E09169
:1026A000530228E0E29FF0011124E55BFD4F2289EF
:1026B0003389448955890E946414A70196010E94B8
:1026C00023150E940116E0914B02F0914C02CB01C0
:1026D000099584CFE0E1F3E01382128288EE93E063
:1026E000A0E0B0E084839583A683B78382E491E081
:1026F0009183808385EC90E09587848784EC90E0DB
:102700009787868780EC90E0918B808B81EC90E0BE
:10271000938B828B82EC90E0958B848B86EC90E09F
:10272000978B868B118E128E138E148E08950E94B5
:102730006A130E94210B0C94320BFC018827992705
:10274000E89421912032E9F3293010F02E30C8F3BB
:102750002B3241F02D3239F4689404C00E94F613F4
:10276000820F911D219120532A30C0F31EF49095C1
:1027700081959F4F0895DC01FB014150504058F076
:1027800049F001900D920020C1F7E61BF70B31973D
:10279000CF0108951C9201900020E9F7F6CFFA01CD
:1027A000A191B081009719F41097E1F0CD01DC01FF
:1027B000CD010D90002011F4C00113C0FB01219147
:1027C000222319F02015D9F7F3CFFB012191201511
:1027D00019F41E92119606C02223C1F70D90002015
:1027E000A1F7D001FA01A193B08308957AE0979FF1
:1027F000902D879F802D910D112408950E944014E3
:1028000008F481E00895E89409C097FB3EF49095A0
:102810008095709561957F4F8F4F9F4F9923A9F0B9
:10282000F92F96E9BB279395F69587957795679548
:10283000B795F111F8CFFAF4BB0F11F460FF1BC08C
:102840006F5F7F4F8F4F9F4F16C0882311F096E91F
:1028500011C0772321F09EE8872F762F05C06623CD
:1028600071F096E8862F70E060E02AF09A95660F86
:10287000771F881FDAF7880F9695879597F908953F
:10288000990F0008550FAA0BE0E8FEEF1616170681
:10289000E807F907C0F012161306E407F50798F0E9
:1028A000621B730B840B950B39F40A2661F0232B02
:1028B000242B252B21F408950A2609F4A140A6957E
:1028C0008FEF811D811D08950E9477140C94E814E8
:1028D0000E94DA1438F00E94E11420F0952311F0E0
:1028E0000C94D1140C94D71411240C941C150E9430
:1028F000F91470F3959FC1F3950F50E0551F629F37
:10290000F001729FBB27F00DB11D639FAA27F00D48
:10291000B11DAA1F649F6627B00DA11D661F829F6F
:102920002227B00DA11D621F739FB00DA11D621F54
:10293000839FA00D611D221F749F3327A00D611D71
:10294000231F849F600D211D822F762F6A2F112453
:102950009F5750409AF0F1F088234AF0EE0FFF1F86
:10296000BB1F661F771F881F91505040A9F79E3FDD
:10297000510580F00C94D1140C941C155F3FE4F3C6
:10298000983ED4F3869577956795B795F795E79533
:102990009F5FC1F7FE2B880F911D9695879597F93C
:1029A000089597F99F6780E870E060E008959FEFD1
:1029B00080EC089500240A941616170618060906D6
:1029C000089500240A9412161306140605060895A5
:1029D000092E0394000C11F4882352F0BB0F40F42D
:1029E000BF2B11F460FF04C06F5F7F4F8F4F9F4F6D
:1029F000089557FD9058440F551F59F05F3F71F0EF
:102A00004795880F97FB991F61F09F3F79F0879555
:102A10000895121613061406551FF2CF4695F1DFDE
:102A200008C0161617061806991FF1CF869571056E
:102A3000610508940895E894BB2766277727CB01A2
:102A400097F908955058BB27AA270E943A150C946D
:102A5000E8140E94DA1438F00E94E11420F039F4EE
:102A60009F3F19F426F40C94D7140EF4E095E7FB7D
:102A70000C94D114E92F0E94F91458F3BA17620785
:102A800073078407950720F079F4A6F50C941B15BD
:102A90000EF4E0950B2EBA2FA02D0B01B901900179
:102AA0000C01CA01A0011124FF27591B99F0593FBD
:102AB00050F4503E68F11A16F040A22F232F342F05
:102AC0004427585FF3CF469537952795A795F04053
:102AD0005395C9F77EF41F16BA0B620B730B840B68
:102AE000BAF09150A1F0FF0FBB1F661F771F881F20
:102AF000C2F70EC0BA0F621F731F841F48F4879578
:102B000077956795B795F7959E3F08F0B0CF939569
:102B1000880F08F09927EE0F9795879508950E94E2
:102B2000A3150C94E8140E94E11458F00E94DA14E2
:102B300040F029F45F3F29F00C94D11451110C940A
:102B40001C150C94D7140E94F91468F39923B1F35F
:102B5000552391F3951B550BBB27AA2762177307C3
:102B6000840738F09F5F5F4F220F331F441FAA1F57
:102B7000A9F335D00E2E3AF0E0E832D09150504013
:102B8000E695001CCAF72BD0FE2F29D0660F771FC1
:102B9000881FBB1F261737074807AB07B0E809F0A7
:102BA000BB0B802DBF01FF2793585F4F3AF09E3F2C
:102BB000510578F00C94D1140C941C155F3FE4F38C
:102BC000983ED4F3869577956795B795F7959F5F6F
:102BD000C9F7880F911D9695879597F90895E1E0BB
:102BE000660F771F881FBB1F621773078407BA071A
:102BF00020F0621B730B840BBA0BEE1F88F7E09575
:102C000008950E94011588F09F5798F0B92F9927D1
:102C1000B751B0F0E1F0660F771F881F991F1AF0C7
:102C2000BA95C9F714C0B13091F00E941B15B1E0FC
:102C300008950C941B15672F782F8827B85F39F0FB
:102C4000B93FCCF3869577956795B395D9F73EF460
:102C500090958095709561957F4F8F4F9F4F089508
:102C60000E94401408F48FEF08950E944014880BCE
:102C7000990B0895A1E21A2EAA1BBB1BFD010DC0E2
:102C8000AA1FBB1FEE1FFF1FA217B307E407F5071C
:102C900020F0A21BB30BE40BF50B661F771F881FF8
:102CA000991F1A9469F760957095809590959B018E
:102CB000AC01BD01CF010895EE0FFF1F0590F49107
:102CC000E02D0994FB01DC018D9101908019011028
:0A2CD000D9F3990B0895F894FFCF93
:102CDA0049444C452000504F57455200504F494EE9
:102CEA00540050524F4752000101EC05EC05CDCC7F
:102CFA00CC3E78001E00000000009701A9040000E5
:102D0A0000001801EB00E300D000BF00BE00000085
:102D1A0000002B05A904F404D204E604720500009D
:102D2A004000140054002C000D0A0052455345542B
:102D3A0000706F696E7400536574706F696E7420E9
:102D4A003A00706F77657200506F776572203A00AB
:102D5A006D6F64650074656D70007374617475736A
:102D6A000068656C7000706F776572203C707772CE
:102D7A003E006D6F6465203C6D6F64653E00627550
:102D8A006C6C7368697400737461743A090900534E
:102D9A00657420005077722000696E66006F76664F
:062DAA00006E616E0000E6
:107E0000112484B714BE81FFF0D085E080938100F7
:107E100082E08093C00088E18093C10086E0809377
:107E2000C20080E18093C4008EE0C9D0259A86E02C
:107E300020E33CEF91E0309385002093840096BBD3
:107E4000B09BFECF1D9AA8958150A9F7CC24DD24C4
:107E500088248394B5E0AB2EA1E19A2EF3E0BF2EE7
:107E6000A2D0813461F49FD0082FAFD0023811F036
:107E7000013811F484E001C083E08DD089C08234E0
:107E800011F484E103C0853419F485E0A6D080C0E4
:107E9000853579F488D0E82EFF2485D0082F10E0AE
:107EA000102F00270E291F29000F111F8ED06801E7
:107EB0006FC0863521F484E090D080E0DECF843638
:107EC00009F040C070D06FD0082F6DD080E0C81688
:107ED00080E7D80618F4F601B7BEE895C0E0D1E017
:107EE00062D089930C17E1F7F0E0CF16F0E7DF06D8
:107EF00018F0F601B7BEE89568D007B600FCFDCFD4
:107F0000A601A0E0B1E02C9130E011968C91119780
:107F100090E0982F8827822B932B1296FA010C0160
:107F200087BEE89511244E5F5F4FF1E0A038BF0790
:107F300051F7F601A7BEE89507B600FCFDCF97BE46
:107F4000E89526C08437B1F42ED02DD0F82E2BD052
:107F50003CD0F601EF2C8F010F5F1F4F84911BD097
:107F6000EA94F801C1F70894C11CD11CFA94CF0C13
:107F7000D11C0EC0853739F428D08EE10CD085E9AC
:107F80000AD08FE07ACF813511F488E018D01DD067
:107F900080E101D065CF982F8091C00085FFFCCF94
:107FA0009093C60008958091C00087FFFCCF809118
:107FB000C00084FD01C0A8958091C6000895E0E648
:107FC000F0E098E1908380830895EDDF803219F02E
:107FD00088E0F5DFFFCF84E1DECF1F93182FE3DFCA
:107FE0001150E9F7F2DF1F91089580E0E8DFEE27F6
:047FF000FF270994CA
:027FFE00040479
:0400000300007E007B
:00000001FF
